:10003E0000A8C0003F065B4F666D7D077F6F00080E
:10004E0040014148BF86DBCFE6EDFD87FFEFF3F5BC
:10005E00FAF44F0010001000100010360831083569
:10006E00083608330C3504350832083310001036C4
:10007E000835080010000835083608000836043325
:10008E0004310836043204330800083508360800F7
:10009E0008360435043308360433043308001000E0
:1000AE001000100010230822042304231000100057
:1000BE000C2204210816081610001021082208230D
:1000CE000822042304231000100008220421041720
:1000DE0004210417080010001027083104270426F5
:1000EE001825082308210421042104250C230821A6
:1000FE000422042210000C210421082208230822C5
:10010E0004230423100010250825042604250822A4
:10011E000423042210001027083104270426182572
:10012E00082308210421042104250C23082104227C
:10013E000422100008310832083204330432083128
:10014E000426042610000C22043208310832103224
:10015E00100010001033103310321031082708260B
:10016E00082504260426100010250831083308320D
:10017E000433043310000C2504340C3304320831DC
:10018E0004320432100008330832083108311031BD
:10019E001033103310340833083110001025083195
:1001AE0008320831043204321000102608320833A7
:1001BE0008320433043310001000103610360400D9
:1001CE000232023602330232022602261026103680
:1001DE000235023104310431043204320432083261
:1001EE0008330800102705310527062610000C25B8
:1001FE0004230821042104210825082308210422B0
:10020E00042210201021082208230822042304238C
:10021E001000102508250426042508220423042294
:10022E00100010270831042704260826102604255E
:10023E00042308210421042108250823082104226F
:10024E000422100008310832083204330432083117
:10025E000426042610000C22043208310832103213
:10026E0010001000103310331032103108270826FA
:10027E0008250426042610001025083108330832FC
:10028E000433043310000C2504340C3304320831CB
:10029E0004320432100008330832083108311031AC
:1002AE001033103310340833083110001025083184
:1002BE000832083104320432100010260832083396
:1002CE00083204330433103310331000100010269C
:1002DE001026102710271031103110321032103422
:1002EE0010341035103608350836103610361036E4
:1002FE00103610361000100010F450004023082263
:10030E0004230423100010000C22042108160816E2
:10031E0010001021082208230822042304231000B1
:10032E0010000822042104170421041708001000ED
:10033E001027083104270426182508230821042134
:10034E00042104250C2308210422042210000C2170
:10035E000421082208230822042304231000102558
:10036E000825042604250822042304221000102741
:10037E000831042704261825082308210421042106
:10038E0004250C230821042204221000083108320F
:10039E0008320433043208310426042610000C22DD
:1003AE0004320831083210321000100010331033AE
:1003BE0010321031082708260825042604261000BE
:1003CE0010250831083308320433043310000C258D
:1003DE0004340C3304320831043204321000083372
:1003EE00083208310831103110331033103408330D
:1003FE000831100010250831083208310432043259
:10040E00100010260832083308320433043310006B
:03041E00100010BB
:1012B70012133A12137A1213A67D07E4FF1213C111
:1012C7007BFF7A00795C7527037528C57529F07D42
:1012D700FA7F5A1210B27F011213121213E212127E
:0312E7007980FB10
:0412EA00151F151F98
:1012EE001213CAA81FA60608A607A81FE6FE08E640
:0F12FE00FF4E600BEF24FFFFEE34FFFE1213D301
:05130D00051F051F2271
:10133A0053B1EF43B2101213F1E4F5D975DA49D279
:10134A00DE90003F74FFF0A37412F0A374EAF02257
:08103A008E288F298C2A8D2BD2
:101042001213CAEF4E7066AF2BAE2A1213D3C3E54A
:1010520029940AE5289400404BE47B18FAF9F890A9
:10106200003E120908120862C006C007AE28AF2966
:10107200AB07AA06E4F9F8D007D006120862AB075C
:10108200AA06AFF9EFFEADE97C00E42DFFEC3ECFFE
:101092002BCF3AAD07FCAF03AE02121395D2D84361
:0F10A200DA0180061213F153DAFE7F02227F0378
:0110B100221C
:0C13B5001213CAEF4E7002FF227F0122CB
:100B3D00E4F580900089E0FFB40800505F900B5100
:100B4D00F8282873020B69020B6F020B75020B7BE1
:100B5D00020B81020B8B020B95020B9FC2A3C2A24B
:100B6D008016C2A3C2A2801AC2A3C2A2801EC2A3B3
:100B7D00C2A28022C2A3D2A2C2A1C2A08020C2A3BF
:100B8D00D2A2C2A1D2A08016C2A3D2A2D2A1C2A0CB
:100B9D00800CC2A3D2A2D2A1D2A08002D2A3C3EF55
:100BAD00648094885029900089E0FF3395E0FE74AD
:100BBD00802FF58274003EF583E0FF3395E0FE74DF
:100BCD00422FF58274003EF583E493F580801E90EC
:100BDD000089E0FFB408133395E0FE74802FF58291
:100BED0074003EF583E0F5808003E4F58090007F8E
:100BFD00E0FF900089E004FEF0D3EF6480F8EE642E
:100C0D0080984014E0D36480948850047408F022D6
:090C1D0090007EE0900089F022B5
:10137A00E4F5937594FF5395F043960F90002A7401
:0B138A00FFF0A3740BF0A3743DF022F1
:0913C10090007EEFF0A3EDF02294
:10135A00900080EFF0A3EDF0A3EBF0A3E525F0A356
:10136A00E526F0A3E527F0A3E528F0A3E529F02276
:0613DC00900088EFF022F2
:100D78004100000A4100290A41006D0A040E0000E2
:100D880000000114004600670000FFFF8FFFC10D3F
:100D9800C105C108C101C10E60240005FF000AFF9A
:100DA800000AFF000AFF000AFF000AFF000AFF000E
:100DB8000AFF000AFF000AFF000AFF000AFF000AF4
:100DC8006036002AFF000AFF000AFF13EEFF000A40
:100DD800FF13EEFF000AFF13EEFF000AFF000AFFF1
:100DE800000AFF13EEFF13EEFF13EEFF13EEFF00F2
:0A0DF8000AFF000AFF000AFF000ACC
:01000A0022D3
:0313EE007F00225B
:1011AF00438E805389F07BE07A2879017800900094
:1011BF003E1209081211F6EFF404F58A7BE07A2843
:1011CF007901780090003E1209081211F6C3E49FCE
:1011DF00FFE49EFE74019DFDE49CFC78081208F468
:0711EF008F8CD28CD2A922E3
:03000B0002115D82
:04115D00C0E0C0D05E
:10116100D5080A75084C300D020514D20DA2037280
:10117100045036150AE50A7030850C0AD207300A88
:1011810017E50D6007150D438F01801D538FFEC2BA
:10119100B5D51615C20A8011050BE50BD39406408F
:0911A10008C203E5136002D20646
:0511AA00D0D0D0E032BE
:10110A00300E47C20E90003E12090878101208F4F9
:10111A008E1D8F1E900003E0FEA3E0FFE4FCFD7B22
:10112A0019FAF9F81207D7C006C007AE1DAF1EABF1
:10113A0007AA06E4F9F8D007D0061211F6780312C6
:10114A0008F4900065EEF0A3EFF0900065E0FEA3CE
:02115A00E0FFB4
:01115C002270
:0913CA00900067E0FEA3E0FF22A1
:0913D300900067EEF0A3EFF02298
:1013950090006BEEF0A3EFF0900069ECF0A3EDF098
:0113A5002225
:0313F100C2B42261
:03003B00020CD0E4
:100CD000C0E0C083C082C0D075D000C004C005C0D1
:030CE00006C00744
:100CE30030DF04C2DF807D30DA04C2DA807630D9A7
:100CF3003DC2D9AFFBEFFEADEB7C00E42DFFEC3E34
:100D030020000E900001F0A3EFF075DB11D20080FC
:100D130053FE900001E0FCA3E0FDC3EF9DFFEE9CBA
:100D2300A3F0A3EFF075DB00C200D20E803630D8FB
:100D330033C2D8900067E07002A3E06022B2B4909F
:100D43000069E0FEA3E0F5EAEEF5FAA3E0FEA3E016
:100D5300FF90006AE02FF0900069E03EF08005C24A
:040D6300B453DAFEAD
:100D6700D007D006D005D004D0D0D082D083D0E031
:010D77003249
:0613E2001211AFD2AF2290
:100F32003004047F0180027F00200A047E018002C7
:100F42007E00EE5F6074E515C39509506830023685
:100F5200750D01E515131313541FAB17AA18A91920
:100F6200F582758300120717FFE515540704FEEF9B
:100F7200A806088002C333D8FC30D7057516038053
:100F82002F751601802AAB17AA18A91975F002E568
:100F920015A4F58285F083120717F50DE51575F096
:100FA20002A429F9EA35F0FA900001120717F516A2
:0A0FB2000515D20A22C204438F1075
:010FBC002212
:100A5000900000E014F0701F740AF0D20590002995
:100A6000E014F07012740AF0D20890006DE014F0F7
:100A70007005740AF0D20190002AA3E0FAA3E0F90D
:100A800012092490002DA3E0FAA3E0F912092490A2
:100A90000039A3E0FAA3E0F9120924900045A3E08D
:100AA000FAA3E0F9120924900054A3E0FAA3E0F9B4
:100AB00012092490005DA3E0FAA3E0F91209249042
:100AC000004BA3E0FAA3E0F9120924EF600C9000B8
:100AD0001DA3E0FAA3E0F912092490004EA3E0FA66
:100AE000A3E0F9120924EF600E900020A3E0FAA31E
:100AF000E0F9120924D20BE512D394004016D51266
:100B00003030090C900023A3E0FAA3E0F912092485
:100B1000D20C801D900051A3E0FAA3E0F912092441
:100B2000EF600E900023A3E0FAA3E0F9120924D2AB
:0D0B30000C900005A3E0FAA3E0F9020924EF
:100E130090003FA3E0FAA3E0F9120924900042A353
:100E2300E0FAA3E0F9120924900033A3E0FAA3E067
:100E3300F9120924900008A3E0FAA3E0F9120924A7
:100E4300900030A3E0FAA3E0F9120924EF600C90BC
:100E53000011A3E0FAA3E0F9120924900036A3E0FD
:100E6300FAA3E0F9120924EF600C900017A3E0FA4B
:100E7300A3E0F9120924900048A3E0FAA3E0F912D1
:100E83000924EF600C90001AA3E0FAA3E0F9120919
:100E93002430060EC206900026A3E0FAA3E0F9125E
:030EA300092422FD
:10123A0090000BA3E0FAA3E0F912092490003CA362
:10124A00E0FAA3E0F9120924EF600C900014A3E07D
:10125A00FAA3E0F9120924900057A3E0FAA3E0F9EF
:0F126A0012092490005AA3E0FAA3E0F902092424
:10000E00AF11AE10AD0FAC0E90006012091890003B
:10001E0064E514F0E4F511F510F50FF50EF51490F6
:0B002E00000EA3E0FAA3E0F902092491
:10127900300705C207120F32300D05C20D120A5090
:10128900300505C205120E13300805C20812123ABC
:10129900300105C20112000EE5112401F511E435F2
:0E12A90010F510E4350FF50FE4350EF50E22AA
:100FBD008B1A8A1B891CEFB40C005070900FD0F85F
:100FCD00282873020FF4020FF9020FFE021003021C
:100FDD00100802100D02101202101702101C021040
:100FED002102102602102B900005803590000880FC
:100FFD003090000B802B90000E80269000118021E8
:10100D00900017801C900014801790001A80129089
:10101D00001D800D9000208008900023800390001B
:0D102D0026E51AF0A3E51BF0A3E51CF02258
:070003007B017A0079602205
:10092A0000C400DC00F701060126014A01720188B1
:10093A0001B801EE020B024B029302E403100370AA
:10094A0003DC04160497052605C800DC00F7011528
:10095A000126014A0172019F01B801EE022A024BE7
:10096A00029302E4033F037003DC0455049705264F
:10097A0005C8067D00F701150137014A0172019F7A
:10098A0001D201EE022A026E029302E4033F03A49B
:10099A0003DC045504DD057505C8067D0749010613
:1009AA000126014A015D018801B801EE020B024BE2
:1009BA00029302BA0310037003DC04160497052697
:1009CA000575062006E007B80126014A017201886A
:1009DA0001B801EE022A024B029302E403100370EB
:1009EA0003DC04550497052605C8062006E007B867
:1009FA0008AA014A0172019F01B801EE022A026E99
:100A0A00029302E4033F037003DC045504DD052668
:100A1A0005C8067D06E007B808AA09B9015D01887C
:100A2A0001B801D2020B024B029302BA03100370FF
:100A3A0003A40416049705260575062006E007494F
:060A4A00082D092D0A4DE4
:100E02004D0071030000000000000000000000001F
:060C26008F228D238B24B8
:100C2C001213B5EF60037F0122E524D39400400634
:100C3C00E52494114028E524D394174006E5249428
:100C4C0021401BE524D394274006E5249431400E23
:100C5C00E524D394375007E522C394F950037F035E
:100C6C0022E524603DC4540F75F007A4FDACF0E5FB
:100C7C002275F015A42DFFE5F03CFEE52454077C0D
:100C8C00002FFFEC3EFEEF25E0FFEE33FE74402F0D
:100C9C00F58274E03EF583E493F526740193F52711
:100CAC008005E4F526F527AF257E007C017D7712C3
:100CBC000744AD231C120756AD07AC06AF27AE2672
:030CCC0012103AC9
:010CCF002202
:04042100151F151F6F
:100425001213B5EF70047F0180027F00900071E028
:10043500FEB402047D0180027D00ED5F60030207CA
:1004450012EEB4030AE490006FF0A3F002071290D5
:100455000072E0FFB4F3047E0180027E00EFB4F188
:10046500047F0180027F00EF4E603E900074E0FE45
:1004750075F06484FFEE75F00A8475F00A84ADF0BA
:10048500E075F00A84ABF075250A900073E0240747
:10049500F52690006EE0FEC4540F240AF527752852
:1004A5000AEE5407F52912135A900072E0FFB4F3CF
:1004B500047E0180027E00EFB4F2047F0180027F9A
:1004C50000EF4E700302056B900074E0FD7C007E2A
:1004D500177F70120756A81FA607E6F975F002A444
:1004E500FFC390007DE09F90007CE095F05070E0A8
:1004F500FEA3E0FF7C007D0B120744E9FBFD12071C
:1005050056A81F08A60790007CE475F0011207C1E4
:10051500FED3E5F09BEE94004018A81F08E624F9E9
:10052500FFE47EF0A807088005CEC313CE13D8F9E3
:10053500801FA81F08E6FF740F7E00A80708800526
:10054500C333CE33CED8F97804CEA2E713CE13D871
:10055500F8A81F08F6A81F08E6FF1213DC8007E4B9
:1005650090007CF0A3F0900078E0FEA3E0FFC3903C
:10057500007BE09F90007AE09E400302070C121377
:10058500B5EF6003020712900075E0FBA3E0FAA344
:10059500E0F990007AE0FEA3E0F5828E831207175A
:1005A500FFD3943750030206A7EF241024FC50799B
:1005B500604524FE70030206521470030206682487
:1005C500026003020696900075E0FBA3E0FAA3E043
:1005D500F990007AE475F0011207AB85F082F58396
:1005E500120717900073F090007BE004F07098906C
:1005F500007AE004F08090900075E0FBA3E0FAA398
:10060500E0F990007AE475F0011207AB85F082F508
:1006150083120717900074F090007BE004F0706E71
:1006250090007AE004F002058C900075E0FBA3E0F1
:10063500FAA3E0F990007AE475F0011207C185F09C
:1006450082F583120717900072F002058C90007AEC
:10065500E475F0011207ABAFF090006FF0A3EFF077
:1006650002058C90006FE0FEA3E0FF4E6012900043
:100675007AEEF0A3EFF0E490006FF0A3F002058CA2
:1006850090007BE004F0700690007AE004F002052B
:100695008C90007BE004F0700690007AE004F00294
:1006A500058C900078E0FEA3E0FFC390007BE09FFF
:1006B50090007AE09E5056900075E0FBA3E0FAA307
:1006C500E0F990007AE475F0011207C185F082F532
:1006D5008312071790006EF0900073E0FFA3E0FD12
:1006E500A3E0FBA3E0FAA3E0F990007AE475F0013A
:1006F5001207C185F082F583120717F52590006E64
:0D070500E0FB120C2680069000717403F0DA
:05071200051F051F2278
:0F13A60090004274FFF0A37404F0A37421F022AE
:1010B200900071E0B4030DE490007AF0A3F0A3F085
:1010C200A3F0C20FEF6004900074F0ED6004900092
:1010D20073F0E94A60047F0180027F00E52845271A
:1010E20060047E0180027E00EE5F6013900075EB6B
:1010F200F0A3EAF0A3E9F0A3E527F0A3E528F0E5E1
:08110200296004900072F02244
:10131200BF02047E0180027E00BF01047D018002C3
:101322007D00ED4EFEBF03047D0180027D00ED4E87
:081332006005900071EFF0224C
:0613E800900071E0FF22FD
:03000000020EA647
:0C0EA600787FE4F6D8FD75812B020EED7C
:10071700BB010CE58229F582E5833AF583E0225097
:1007270006E92582F8E622BBFE06E92582F8E222E1
:0D073700E58229F582E5833AF583E49322FB
:10074400EF8DF0A4A8F0CF8CF0A428CE8DF0A42EC9
:02075400FE2283
:10075600BC000BBE0029EF8DF084FFADF022E4CC87
:10076600F875F008EF2FFFEE33FEEC33FCEE9DEC50
:10077600984005FCEE9DFE0FD5F0E9E4CEFD22ED96
:10078600F8F5F0EE8420D21CFEADF075F008EF2FE0
:10079600FFED33FD4007985006D5F0F222C398FDD1
:0507A6000FD5F0EA226E
:1007AB00C5F0F8A3E028F0C5F0F8E58215827002D9
:0607BB001583E038F02276
:1007C100A3F8E0C5F025F0F0E582158270021583EB
:0607D100E0C838F0E82248
:1007D700E88FF0A4CC8BF0A42CFCE98EF0A42CFCC1
:1007E7008AF0EDA42CFCEA8EF0A4CDA8F08BF0A43F
:1007F7002DCC3825F0FDE98FF0A42CCD35F0FCEB9E
:100807008EF0A4FEA9F0EB8FF0A4CFC5F02ECD3962
:0F081700FEE43CFCEAA42DCE35F0FDE43CFC22CF
:1008260075F008758200EF2FFFEE33FECD33CDCC89
:1008360033CCC58233C5829BED9AEC99E58298400C
:100846000CF582EE9BFEED9AFDEC99FC0FD5F0D6E9
:10085600E4CEFBE4CDFAE4CCF9A88222B800C1B913
:100866000059BA002DEC8BF084CFCECDFCE5F0CB51
:10087600F97818EF2FFFEE33FEED33FDEC33FCEB8A
:1008860033FB10D703994004EB99FB0FD8E5E4F945
:10089600FA227818EF2FFFEE33FEED33FDEC33FC32
:1008A600C933C910D7059BE99A4007EC9BFCE99A26
:1008B600F90FD8E0E4C9FAE4CCFB2275F010EF2F6B
:1008C600FFEE33FEED33FDCC33CCC833C810D7076B
:1008D6009BEC9AE899400AED9BFDEC9AFCE899F8A6
:0E08E6000FD5F0DAE4CDFBE4CCFAE4C8F92239
:1011F600C2D5E830E70FB2D5E4C39BFBE49AFAE424
:1012060099F9E498F8EC30E717B2D512122C1208C7
:1012160062E4C39BFBE49AFAE499F9E498F8800344
:1012260012086230D50DE4C39FFFE49EFEE49DFDE7
:04123600E49CFC2216
:1008F400E86010ECA2E713FCED13FDEE13FEEF131A
:04090400FFD8F02206
:10090800E493FC740193FD740293FE740393FF2235
:0C091800ECF0A3EDF0A3EEF0A3EFF02252
:060924008A838982E4735E
:100EB2000212B7E493A3F8E493A34003F68001F28D
:100EC20008DFF48029E493A3F85407240CC8C33341
:100ED200C4540F4420C8834004F456800146F6DF10
:100EE200E4800B0102040810204080900D78E47E1B
:100EF200019360BCA3FF543F30E509541FFEE49305
:100F0200A360010ECF54C025E060A840B8E493A3CB
:100F1200FAE493A3F8E493A3C8C582C8CAC583CAF6
:100F2200F0A3C8C582C8CAC583CADFE9DEE780BEAE
:010E120000DF
:00000001FF
