:101FAE0048554E414E20554E495645525349545967
:101FBE00004E657874204D6F6465A3BA0000000072
:101FCE00000000000000000040C000000000000003
:101FDE0000000000000000000000000000000000F3
:101FEE0000000000000000000000000000000000E3
:101FFE0000000000000000000000000000000000D3
:10200E0000000000000000000000000000000000C2
:10201E0000000000000000000000000000000000B2
:10202E00000000000000000000000000000080E43E
:10203E00380000000000000000000000000000005A
:10204E00000000000000000000433F000000000000
:10205E0000F8FEFE88F0E0C0000080C0C0E0F0F0A6
:10206E006000000000000000000000000000000002
:10207E000000C0F8FC8080E040000000000000007E
:10208E00000000000000000000000000F8FC180036
:10209E000000000000000000000000000000000032
:1020AE00000000001860C00010301098DEF3703091
:1020BE0090180888C4743C0E040000000000000054
:1020CE0000000000000000000080C0E0F070787C8E
:1020DE003F1F0F070303C1D072E3C100C0FF3F03D0
:1020EE00000000000000000000202030301898DCB6
:1020FE00EC7EB7939B090C0406EE0E000000000068
:10210E000000000000000000000000F8FFC7C060E3
:10211E0072381000000000000000000000000000F7
:10212E00000000063C701B0F04128D8783D0487789
:10213E00F3FCF63301000000000000000000000078
:10214E000000000000FCE000C0F81F0100C0E030FD
:10215E008CE6FE3018C6FF011E330100FFFF800023
:10216E0000000000000000008060080407030784E0
:10217E00CEFFFB310000000000FF00000000000059
:10218E000000000000000C0CC67E3F07010110206D
:10219E00C080800000000000000000000000000071
:1021AE0000000000000002028281C1F1484C262787
:1021BE00E3E16000000000000000000000000000ED
:1021CE0000000000E0FFFF3F0F01000000000000D4
:1021DE0001030000E0FF1F00040810307F7F4F0056
:1021EE0000000000000000000300000000000001DD
:1021FE000100070000000818180F00000000000082
:10220E0000000000000804030100000000000000B0
:10221E000001030707060602000000000000000090
:10222E0008080C0E0607030301010001FC00000163
:10223E000000000000000000000000000000000090
:10224E00000000000001010000000000000000007E
:10225E000000030703000000000000000000000063
:10226E000000000000000000000000000000000060
:10227E000000000000000000000000000000000050
:10228E000000000000000000000000000000000040
:10229E000000000000000000000000000000000030
:1022AE000000000000000202020606060700000001
:1022BE0000000000000000000000000000F3F5FA2E
:1022CE002504250425182504250425182504250490
:1022DE0025082408230822082110F6150C150421C0
:1022EE0010151023102110251826082510250C2551
:1022FE000431103110260C2504240826082530251B
:10230E000C2504261026102210220C220425182437
:10231E00082310150C150425102508260825082459
:10232E0008230822082130250C25043110311026EF
:10233E0010260C2504241825082610220C2204250C
:10234E00102508260825082408230822082138000D
:10235E0008210C1508231023180008230C2104262D
:10236E001026180008161816082210220C23042214
:10237E000821082708260815202110151016081602
:10238E0010150821102210231000102210260826E6
:10239E0008250825102308221026102510000821D4
:1023AE0008310C31043108250826183108260C2571
:1023BE00042408250825100010310C310431083191
:1023CE000825102508260825082408230822082198
:1023DE0010F5FBF464F7F3F5FAF45000100010005A
:1023EE001000103608310835083608330C35043520
:1023FE000832083310001036083508001000083572
:10240E000836080008360433043108360432043323
:10241E000800083508360800083604350433083637
:10242E00043304330800100010001000102308229B
:10243E0004230423100010000C2204210816081691
:10244E001000102108220823082204230423100060
:10245E00100008220421041704210417080010009C
:10246E0010270831042704261825082308210421E3
:10247E00042104250C2308210422042210000C211F
:10248E000421082208230822042304231000102507
:10249E0008250426042508220423042210001027F0
:1024AE0008310427042618250823082104210421B5
:1024BE0004250C23082104220422100008310832BE
:1024CE0008320433043208310426042610000C228C
:1024DE00043208310832103210001000103310335D
:1024EE00103210310827082608250426042610006D
:1024FE0010250831083308320433043310000C253C
:10250E0004340C3304320831043204321000083320
:10251E0008320831083110311033103310340833BB
:10252E000831100010250831083208310432043207
:10253E00100010260832083308320433043310001A
:10254E001000103610360400023202360233023208
:10255E0002260226102610360235023104310431CD
:10256E0004320432043208320833080010230822E1
:10257E000423042310001000082208210416041658
:10258E000816100010210822082308220423042311
:10259E0010000C1504220821041704170421041737
:1025AE0008001000102705310527062610000C25FF
:1025BE0004230821042104210825082308210422CC
:1025CE0004221020102108220823082204230423A9
:1025DE0010001025082504260425082204230422B1
:1025EE00100010270831042704260826102604257B
:1025FE00042308210421042108250823082104228C
:10260E000422100008310832083204330432083133
:10261E000426042610000C2204320831083210322F
:10262E001000100010331033103210310827082616
:10263E000825042604261000102508310833083218
:10264E000433043310000C2504340C3304320831E7
:10265E0004320432100008330832083108311031C8
:10266E0010331033103408330831100010250831A0
:10267E0008320831043204321000102608320833B2
:10268E0008320433043310331033100010001026B8
:10269E00102610271027103110311032103210343E
:1026AE001034103510360835083610361036103600
:1026BE001036103610001000103310331032103157
:1026CE0008270427042608250426042610000C25B6
:1026DE000425083108330832043304331000103453
:1026EE001032083104320432100008330832083137
:1026FE0008311C31043310331034083304310431E3
:10270E0010000C2504250831083208310432043239
:10271E001000102608320833083204320433103306
:10272E0010331000A8C0003F065B4F666D7D077F1B
:10273E006F00084001414876000000BF86DBCFE6FF
:10274E00EDFD87FFEF777C395E79713D76301E7532
:10275E003815373F736B336D313E3E2A76665BB765
:10276E00F9DEEDB0B1B7000000000000000100027C
:10277E00000300040005000600070008000000002A
:10278E000001000200030004000500060007000817
:10279E000001000101020102010A0106010101030B
:1027AE000102010E0101010430321125070223033B
:0527BE00C80300010149
:10365900C113C116014200013D00024A0000024C9B
:103669000000C118C119023F0D99C117C111C10F3D
:08367900C115C114C110C112FA
:104E960012000E12588312478D7F9812563E1259F1
:104EA6001B78247C007D007BFF7A2779B67E007F05
:104EB600071233901244B978247C007D007BFF7A78
:104EC6002779BD7E007F06123390125819125A397F
:104ED6007F2B125A297BFF7A3F79D77F04124F1313
:104EE6007BFF7A2779C37F02124F137BFF7A3C79C7
:104EF600517F07124F13E4F541F53E1257527D07D5
:0D4F0600E4FF125AAF125AF61255C680FB96
:105752007527087528FF75291F752ACB7B80E4FD04
:10576200FF12514C7BFF7A1F79AE7531107D06E432
:08577200FF125362754102228F
:103C5100E4FF12543A8F247F0512543A8F257F02D4
:103C610012543A8F267F0412543A8F277F0112543F
:103C71003A8F28E541B4041AE524B40115B218308D
:103C81001805E4F54AF54B7D147C007FE87E0312AC
:103C91004F90E54164056003023D4C201703023D4E
:103CA1004CE525B4011D30110A74582540F54074C6
:103CB10002800A300F5C740A2540F540E4353FF577
:103CC1003F804FE5266401705430111DE54024A862
:103CD100FFE53F34FDFED3EF9400EE9400402E74D7
:103CE100A82540F54074FD801E300F26E54024F6DE
:103CF100FFE53F34FFFED3EF9400EE9400400E74D5
:103D0100F62540F54074FF353FF53F8005E4F53F6A
:103D1100F5407D147C007FE87E03124F90E527B4C7
:103D21000112300F04C20FD2117D147C007FE87E96
:103D310003124F90E528B40112301104C211D20FC1
:103D41007D147C007FE87E03124F90E541B4050AA3
:103D5100201707E524B40102B215E5416408702873
:103D6100E524B40109201206D212D210800FE524F5
:103D7100B4011530121230100FC212C2107D147C22
:103D8100007FDC7E05124F90E54164086003023E2E
:013D91002A07
:103D92001251B11234B1F52A85F0291251B1E92438
:103DA20002F9E43AFA1233B6F52B1251B1E92403BF
:103DB200F9E43AFA1233B6F52C1251B1E92404F9B6
:103DC200E43AFA1233B6F52D1251B1E92405F9E4B9
:103DD2003AFA1233B6F52EE525B4011430140A0569
:103DE2002AE52A70220529801E30101B052B801718
:103DF200E526B4011D30140AE52A152A7009152991
:103E02008005301002152B7D147C007FE87E0312A2
:103E12004F90782F7C007D007B007A0079297E000C
:083E22007F06123390124923C0
:013E2A002275
:103FD700E4FF1255088F247F011255088F252013FF
:103FE7000DE524B4010885413E7541018046201343
:103FF70009E524B40204D213803A30132DE5246472
:10400700017027C3E53E6480948A7D0A7C007F584F
:104017007E02500C124F90E53E04F541D2168014F3
:10402700124F90754103D216800A301307E524B466
:104037000202C213E541B40315E525B40110C3E537
:104047003D648094825004053D8003E4F53DE541DD
:10405700B4041AE525B40115B219301905E4F54C75
:10406700F54D7D147C007FDC7E05124F90E541B451
:10407700050F20150CE525B40107201702D20FB252
:1040870017E54164087028E525B40109201206D216
:1040970012D214800FE525B4011530121230140F17
:1040A700C212C2147D147C007FDC7E05124F90E59E
:1040B7004164097042E525B4011E125AFCBF03187A
:1040C7007BFF7A2379E4752B03752C4D752DF07DD5
:1040D700FA7F5A12520D801AE525B4010A125AFCCA
:1040E700BF01047F02800DE525B4010B125AFCBF06
:1040F70002057F011257A2E54164096013125AFCB9
:10410700EF64026006125AFCBF01057F031257A233
:10411700E541B40A1EE525B401197BFF7A2779A08A
:104127007D1612566FBF020B7D147C007FDC7E0567
:03413700124F9094
:01413A002262
:1027C300301808054BE54B7002054A301908054DD2
:1027D300E54D7002054C301508E5401540700215B3
:1027E3003FE540453F7012C2157DC8FC7F787E05EA
:1027F300124F90753F0B7540B8E54114B40A004081
:1028030003022F1590281575F003A4C58325F0C581
:10281300837302283302287F0228A90229F4022A9B
:10282300C0022CD3022D47022DED022EC0022EFD35
:102833003016127BFF7A1F79BF7531107D06E4FFD6
:10284300125362C216752F2C7530307531227532D2
:102853000CAF3EEF3395E0FEEF25E0FFEE33FE7461
:102863008A2FF58274273EF583E4740193F5337B55
:0C2873002C7D257F201258A3E4FF802755
:10287F00752F0C7530207531307532227533227BF0
:10288F00327D2B7F251258A3E524600625E0F52421
:0A289F008003752401AF24025AF0F3
:1028A900125AE378437C007D007E007F0712339043
:1028B900E53D14603014605A24026003022F15E5C7
:1028C90045C4540FFFE545540FFDE544C4540FF5C5
:1028D9002FE544540FF53075310CE543C4540FF519
:1028E90032E5438024E549C4540FFFE549540FFDFF
:1028F900E547C4540FF52FE547540FF53075310CF2
:10290900E546C4540FF532E546540FF5337B0C0206
:022919002F127B
:10291B00854824E52414B407004003022F159029A1
:10292B003775F003A4C58325F0C5837302294C02C8
:10293B00296402297C0229940229AC0229C40229A8
:10294B00DC752F3875300A75310A75320C75330109
:10295B007B2C7D2B7F2B022F12752F0A75300A755E
:10296B00310A75320C7533027B397D327F31022F80
:10297B0012752F3A75300A75310A75320C7533039F
:10298B007B227D327F32022F12752F2F75303B75D4
:10299B00310A75320C7533047B327D257F31022F62
:1029AB0012752F0A75300A75310A75320C7533049E
:1029BB007B3C7D2F7F23022F12752F0A75300A75F2
:1029CB00310A75320C7533047B3D7D1E7F30022F2F
:1029DB0012752F0A75300A75310A75320C7533046E
:0929EB007B3E7D327F30022F1289
:1029F400AE4AAF4B7C037DE81234307C007D0A1272
:102A040034308D2BE52B7003752B0AAE4AAF4B7C0B
:102A1400007D641234307C007D0A1234308D2AE546
:102A24002A7003752A0AAE4AAF4B7C007D0A123421
:102A3400307C007D0A123430ED2414F529AE4AAFFF
:102A44004B7C007D0A1234308D28AE4CAF4D7C0394
:102A54007DE81234307C007D0A1234308D27E5275E
:102A6400700375270AAE4CAF4D7C007D6412343080
:102A74007C007D0A1234308D26E526700375260A03
:102A8400AE4CAF4D7C007D0A1234307C007D0A12BE
:102A94003430ED2414F525AE4CAF4D7C007D0A1284
:102AA40034308D2485282F8527308526318525329D
:0C2AB400852433AB29AD2AAF2B022F1272
:102AC0000542D3E542648094835002800C301703A2
:102AD000022C13301503022B73AE3FAF407C007DF8
:102AE0000A1234307C007D3C1234307C007D0A12A6
:102AF0003430AB07C003AE3FAF407C007D0A1234D8
:102B0000307C007D3C1234307C007D0A123430ABC6
:102B100005AE3FAF407C007D0A1234307C007D3C26
:102B20001234307E007F0ACFCDCFCECCCE123430DF
:102B3000AA07AE3FAF407C007D0A1234307C007D96
:102B40003C1234307E007F0ACFCDCFCECCCE1234B3
:102B500030ED2414F5328A318B2F75300CAE3FAF37
:102B6000407C007D0A1234308D33D0037D0A7F0A09
:102B7000022CC1201503022CC4AE3FAF407C007D67
:102B80000A1234307C007D3C1234307C007D0A1205
:102B90003430AB07C003AE3FAF407C007D0A123437
:102BA000307C007D3C1234307C007D0A123430AB26
:102BB00005AE3FAF407C007D0A1234307C007D3C86
:102BC0001234307E007F0ACFCDCFCECCCE1234303F
:102BD000AA07AE3FAF407C007D0A1234307C007DF6
:102BE0003C1234307E007F0ACFCDCFCECCCE123413
:102BF00030ED2414F5328A318B2F75300CAE3FAF97
:102C0000407C007D0A1234308D33D0037D0A7F2D45
:102C1000022CC1301162AE3FAF407C007D0A1234FD
:102C2000307C007D3C1234307E007F0ACFCDCFCE89
:102C3000CCCE123430AB07AE3FAF407C007D0A12E1
:102C400034307C007D3C1234307E007F0ACFCDCF03
:102C5000CECCCE123430ED2414F5328B31752F0AE0
:102C600075300CAE3FAF407C007D0A1234308D339E
:102C70007B0A7D0A7F208049300F49AE3FAF407C00
:102C8000007D0A1234307C007D3C1234307C007DA3
:102C90000A123430AB07AE3FAF407C007D0A1234DD
:102CA000307C007D3C1234307C007D0A1234308D43
:102CB0002F75300C75310A75320A75330A7D0A7F1B
:102CC000201258A3D3E542648094855003022F1547
:032CD000022EBC15
:102CD300120003E92406F9E43AFA1234B1F5258522
:102CE300F024AE24FF7C007D64123430AB07AE24A5
:102CF300AF257C007D0A1234307C007D0A1234300B
:102D03008D328B31752F0A75300AAE24AF257C00C6
:102D13007D0A1234308D337B0C7D047F221258A33D
:102D2300E4FF125AF0C3E5259414E52494005003FC
:102D3300022DC1D3E5259464E52494005003022FAA
:042D430015022DE266
:102D4700120003E92404F9E43AFA1234B1F52585AF
:102D5700F024FFAE24124BD08E268F277C007D6493
:102D67001234307C007D0A123430AB05AE26AF2713
:102D77007C007D0A1234307C007D0A123430ED2449
:102D870014F5328B31752F0A75300AAE26AF277CC2
:102D9700007D0A1234308D337B0C7D057F2212585B
:102DA700A3E4FF125AF0AE26AF277C007D0A123447
:102DB70030C3EF9414EE9400500A7DC87C007FB0B6
:102DC7007E04801FAE26AF277C007D0A123430D3E5
:102DD700EF9428EE94005003022F157DC87C007FE6
:062DE700D07E07024F90B0
:102DED001251B11234B1F52585F0241251B1E924F7
:102DFD0002F9E43AFA1233B6F526AE24AF257C007B
:102E0D007D0A1234308D27AE24AF257C007D0A1249
:102E1D0034307C007D0A123430ED2414F528AE24B4
:102E2D00AF257C007D641234307C007D0A12343075
:102E3D008D29E529700375290AE52675F00A848523
:102E4D00F02AE52675F00A8475F00A8485F02B05C5
:102E5D0042D3E542648094835002800620141420EE
:102E6D001011752F0A753023852931852832852754
:102E7D00338012301415752F0A75302375310A758C
:102E8D00320A75330AAB2AAD2B8016301018752F08
:102E9D000A7530238529318528328527337B0A7DB4
:102EAD000A7F321258A3D3E542648094854059E4D9
:032EBD00F54222B9
:102EC000125AFCBF0318752F0A75300A75310A753E
:102ED000320A75330A7B0C7D077F221258A3125ADF
:102EE000FCEF6402702F752F3075302275310A7532
:102EF000320A75330A7B327D1E7F2D8015752F2C8B
:102F000075300C75310875320C75330C7B2B7D0CCC
:062F10007F0C1258A32201
:104BD000AD07AC06E41231B9E4FBFA797A784412F5
:104BE00031178F2F8E2E8D2D8C2CAB2FAA2EA92D09
:104BF000A82CE4FFFE7D807C3F122F19A804A90594
:104C0000AA06AB07AF2FAE2EAD2DAC2C123117126A
:104C1000416F7B007AE0797678451231177B0F7A05
:104C2000CF795B783B122F1DA804A905AA06AB0714
:104C3000E4FFFE7D807C3F1231177B337A937988C5
:104C400078C3122F1D8F338E328D318C30E4FFFEEE
:104C50007D207C41AB33AA32A931A83012300E122C
:024C600031F22F
:014C6200222F
:095AA6008B88898C88898F88891E
:1036810052027A86860086860086860086860086B5
:09369100860086860041026F09E3
:03002B00025AEA8C
:065AEA0053BCEFD21A329A
:023E2B0015710F
:103E2D00201A03023FD4C21A90026EE0B40900407A
:103E3D0003023FB6903E48F8282873023E8F023E9B
:103E4D0063023E75023EA1023E63023E75023EB81C
:103E5D00023E63023E75AFBDEFFEADBE7C00E42DAC
:103E6D00FFEC3E900270803CAFBDEFFEADBE7C001E
:103E7D00E42DFFEC3E900272F0A3EFF075670102A6
:103E8D003FBCAFBDEFFEADBE7C00E42DFFEC3E9020
:103E9D0002748010AFBDEFFEADBE7C00E42DFFECD3
:103EAD003E900276F0A3EFF0023FBCAFBDEFFEAD4A
:103EBD00BE7C00E42DFFEC3E900278F0A3EFF09075
:103ECD000278E0FEA3E07807CEC313CE13D8F9A88D
:103EDD0071F6C394065013A871E675F003A4247A05
:103EED00F582E43402F583E014F090026FE014F0F3
:103EFD006003023FBC7409F0A871E4F6A871E6FFF7
:103F0D00C394064003023FBCEF75F003A4247AF579
:103F1D0082E43402F583E0C39480502AE6FF75F005
:103F2D0003A4247BF582E43402F583E0D39480402E
:103F3D0040EF75F003A4247CF582E43402F583741C
:103F4D0001F0F568802BA871E6FF75F003A4247BC2
:103F5D00F582E43402F583E0C394805014EF75F0DC
:103F6D0003A4247CF582E43402F5837402F07568B1
:103F7D0001A871E6FF75F003A4247AF582E43402FA
:103F8D00F583E0FEEF75F003A4247BF582E43402A3
:103F9D00F583EEF0E675F003A4247AF582E434029D
:103FAD00F5837486F006023F0990026E74FFF0905F
:103FBD00026EE0D39407400374FFF090026EE004AC
:073FCD00F0905AA693F5BC29
:033FD40005712252
:025A66001571B8
:095A6800A871A668E4F568E6FFE8
:035A71000571229A
:025A74001571AA
:095A7600A871A667E4F567E6FFDC
:035A7F000571228C
:10563E008F9D75BC88439720D2AD90024574FFF0C4
:10564E00A3743EF0A3742BF0A374FFF0A3745AF06E
:10565E00A37466F0A374FFF0A3745AF0A37474F0ED
:01566E002219
:070003007B017A02797022F3
:10543A00C3EF64809480403BD3EF648094855033FB
:10544A00EFFD3395E0FC90027C75F003ED123647D0
:10545A00EC75F003A42583F583E0FE90027C75F0D9
:10546A0003ED123647EC75F003A42583F583E4F0C7
:05547A00AF06227F03D4
:01547F00220A
:04577A00157115711F
:10577E00125AB8A871A60608A607A871E6FE08E692
:0F578E00FF4E600BEF24FFFFEE34FFFE125AC1F7
:05579D000571057122F9
:1058830053B1EF43B210125B05E4F5D975DA49D28F
:10589300DE90023F74FFF0A37457F0A3747AF022F2
:084F90008E2F8F308C318D3221
:104F9800125AB8EF4E7066AF32AE31125AC1C3E53D
:104FA80030940AE52F9400404BE47B18FAF9F89006
:104FB800273112361B123567C006C007AE2FAF3037
:104FC800AB07AA06E4F9F8D007D006123567AB0795
:104FD800AA06AFF9EFFEADE97C00E42DFFEC3ECF69
:104FE8002BCF3AAD07FCAF03AE02125A18D2D84302
:0F4FF800DA018006125B0553DAFE7F02227F0387
:015007002286
:0C002E00125AB8EF4E7002FF227F012230
:1046A400E4F5809002A7E0FFB40800505F9046B89C
:1046B400F82828730246D00246D60246DC0246E2B7
:1046C4000246E80246F20246FC024706C2A3C2A220
:1046D4008016C2A3C2A2801AC2A3C2A2801EC2A311
:1046E400C2A28022C2A3D2A2C2A1C2A08020C2A31D
:1046F400D2A2C2A1D2A08016C2A3D2A2D2A1C2A029
:10470400800CC2A3D2A2D2A1D2A08002D2A3C3EFB2
:104714006480948850299002A7E0FF3395E0FE74EA
:104724009E2FF58274023EF583E0FF3395E0FE741C
:10473400352FF58274273EF583E493F580801E902F
:1047440002A7E0FFB408133395E0FE749E2FF582B0
:1047540074023EF583E0F5808003E4F58090029DC9
:10476400E0FF9002A7E004FEF0D3EF6480F8EE646B
:1047740080984014E0D36480948850047408F02234
:0947840090029CE09002A7F022D3
:10591B00E4F5937594FF5395F043960F90022A7418
:0B592B00FFF0A37446F0A374A4F02268
:095AAF0090029CEFF0A3EDF0223F
:1058A30090029EEFF0A3EDF0A3EBF0A3E52FF0A39E
:1058B300E530F0A3E531F0A3E532F0A3E533F022C0
:065AF0009002A6EFF02277
:10369A00016D004902A99494009494009494004105
:0336AA0002A81E55
:0243960015719F
:1043980020B2069002A9E014F020B3069002ACE027
:1043A80014F02097069002AFE014F09002A8E014F1
:1043B800F060030244B6741EF0A871E4F6A871E632
:1043C800FFC36480948340030244B6EF3395E0FE54
:1043D8009002A975F003EF123647EE75F003A42595
:1043E80083F583E0C3948050399002AA75F003EFF7
:1043F800123647EE75F003A42583F583E0D3948045
:10440800405AE6FF3395E0FE9002AB75F003EF12D9
:104418003647EE75F003A42583F5837401F0F56D36
:10442800803AA871E6FF3395E0FE9002AA75F00382
:10443800EF123647EE75F003A42583F583E0C394A5
:104448008050199002AB75F003EF123647EE75F005
:1044580003A42583F5837402F0756D01A871E6FF46
:10446800FD3395E0FC9002A975F003ED123647EC98
:1044780075F003A42583F583E0FE9002AA75F00386
:10448800ED123647EC75F003A42583F583EEF0EFC3
:104498003395E0FE9002A975F003EF123647EE75EA
:0E44A800F003A42583F5837494F0060243C547
:0344B6000571226B
:025A820015719C
:095A8400A871A66DE4F56DE6FFC2
:035A8D000571227E
:10000E0090023074FFF0A3745AF0A37482F0900241
:0D001E002D74FFF0A37443F0A37496F0223C
:10550800EF600764016003BF0233EFFD3395E0FCF1
:105518009002AB75F003ED123647EC75F003A42545
:1055280083F583E0FE9002AB75F003ED123647EC8D
:0F55380075F003A42583F583E4F0AF06227F030B
:015547002241
:1036AD004102000A4102290A41026D0A040E00007E
:1036BD0000000114004602670000FFFF8FFFC10DDF
:1036CD00C105C108C101C10E60240205FF000AFF3A
:1036DD00000AFF000AFF000AFF000AFF000AFF00B0
:1036ED000AFF000AFF000AFF000AFF000AFF000A96
:1036FD006036022AFF000AFF000AFF5B02FF000A84
:10370D00FF5B02FF000AFF5B02FF000AFF000AFFDA
:10371D00000AFF5B02FF5B02FF5B02FF5B02FF0023
:0A372D000AFF000AFF000AFF000A6D
:01000A0022D3
:035B02007F0022FF
:1053F300438E805389F07BE07A28790178009027E7
:105403003112361B1254C4EFF404F58A7BE07A2878
:105413007901780090273112361B1254C4C3E49FDC
:10542300FFE49EFE74019DFDE49CFC7808123607A0
:075433008F8CD28CD2A9225C
:03000B000253108D
:04531000C0E0C0D069
:10531400D5080A75084C300D020514D20DA203728B
:10532400045036150AE50A7030850C0AD207300A93
:1053340017E50D6007150D438F01801D538FFEC2C5
:10534400B5D51615C20A8011050BE50BD39406409A
:0953540008C203E5136002D20651
:05535D00D0D0D0E032C9
:1052BD00300E47C20E90273112361B78101236076A
:1052CD008E698F6A900203E0FEA3E0FFE4FCFD7B94
:1052DD0019FAF9F81234DCC006C007AE69AF6AAB33
:1052ED0007AA06E4F9F8D007D0061254C4780312C1
:1052FD003607900265EEF0A3EFF0900265E0FEA395
:02530D00E0FFBF
:01530F00227B
:095AB800900267E0FEA3E0FF226A
:095AC100900267EEF0A3EFF02261
:105A180090026BEEF0A3EFF0900269ECF0A3EDF0CA
:015A2800225B
:035B0500C2B42205
:03003B00024A83F3
:104A8300C0E0C083C082C0D075D000C004C005C0E0
:034A930006C00753
:104A960030DF04C2DF807D30DA04C2DA807630D9B6
:104AA6003DC2D9AFFBEFFEADEB7C00E42DFFEC3E43
:104AB60020000E900201F0A3EFF075DB11D200800A
:104AC60053FE900201E0FCA3E0FDC3EF9DFFEE9CC8
:104AD600A3F0A3EFF075DB00C200D20E803630D80B
:104AE60033C2D8900267E07002A3E06022B2B490AD
:104AF6000269E0FEA3E0F5EAEEF5FAA3E0FEA3E024
:104B0600FF90026AE02FF0900269E03EF08005C255
:044B1600B453DAFEBC
:104B1A00D007D006D005D004D0D0D082D083D0E040
:014B2A003258
:065AF6001253F3D2AF22AF
:104D82003004047F0180027F00200A047E01800239
:104D92007E00EE5F6074E515C395095068300236F7
:104DA200750D01E515131313541FAB17AA18A91992
:104DB200F5827583001233CFFFE515540704FEEF29
:104DC200A806088002C333D8FC30D70575160380C5
:104DD2002F751601802AAB17AA18A91975F002E5DA
:104DE20015A4F58285F0831233CFF50DE51575F024
:104DF20002A429F9EA35F0FA9000011233CFF51630
:0A4E02000515D20A22C204438F10E6
:014E0C002283
:1045B700900200E014F0701F740AF0D205900229EF
:1045C700E014F07012740AF0D20890026DE014F053
:1045D7007005740AF0D20190022AA3E0FAA3E0F969
:1045E70012365390022DA3E0FAA3E0F91236539046
:1045F7000239A3E0FAA3E0F9123653900245A3E08B
:10460700FAA3E0F9123653900254A3E0FAA3E0F9B3
:1046170012365390025DA3E0FAA3E0F912365390E5
:10462700024BA3E0FAA3E0F9123653EF600C9002B5
:104637001DA3E0FAA3E0F912365390024EA3E0FA65
:10464700A3E0F9123653EF600E900220A3E0FAA31D
:10465700E0F9123653D20BE512D394004016D51267
:104667003030090C900223A3E0FAA3E0F912365385
:10467700D20C801D900251A3E0FAA3E0F912365341
:10468700EF600E900223A3E0FAA3E0F9123653D2AB
:0D4697000C900205A3E0FAA3E0F9023653EF
:104C630090023FA3E0FAA3E0F9123653900242A365
:104C7300E0FAA3E0F9123653900233A3E0FAA3E07B
:104C8300F9123653900208A3E0FAA3E0F91236535F
:104C9300900230A3E0FAA3E0F9123653EF600C90D0
:104CA3000211A3E0FAA3E0F9123653900236A3E00F
:104CB300FAA3E0F9123653EF600C900217A3E0FA5F
:104CC300A3E0F9123653900248A3E0FAA3E0F912E5
:104CD3003653EF600C90021AA3E0FAA3E0F9123600
:104CE3005330060EC206900226A3E0FAA3E0F9129F
:034CF30036532213
:1055480090020BA3E0FAA3E0F912365390023CA3B1
:10555800E0FAA3E0F9123653EF600C900214A3E0CE
:10556800FAA3E0F9123653900257A3E0FAA3E0F940
:0F55780012365390025AA3E0FAA3E0F902365319
:1056FE00AF11AE10AD0FAC0E90026012363B9002A1
:10570E0064E514F0E4F511F510F50FF50EF51490AF
:0B571E00020EA3E0FAA3E0F9023653EC
:1055C600300705C207124D82300D05C20D1245B7D0
:1055D600300505C205124C63300805C2081255484D
:1055E600300105C2011256FEE5112401F511E4351C
:0E55F60010F510E4350FF50FE4350EF50E221A
:104F13008B248A258926EFB40C005070904F26F815
:104F2300282873024F4A024F4F024F54024F59022F
:104F33004F5E024F63024F68024F6D024F72024F82
:104F430077024F7C024F81900205803590020880E2
:104F53003090020B802B90020E802690021180214C
:104F6300900217801C900214801790021A801290EE
:104F7300021D800D9002208008900223800390027E
:0D4F830026E524F0A3E525F0A3E526F022A5
:075ADC007B017A02796022D0
:1042700000C400DC00F701060126014A0172018832
:1042800001B801EE020B024B029302E4031003702B
:1042900003DC04160497052605C800DC00F70115A9
:1042A0000126014A0172019F01B801EE022A024B68
:1042B000029302E4033F037003DC045504970526D0
:1042C00005C8067D00F701150137014A0172019FFB
:1042D00001D201EE022A026E029302E4033F03A41C
:1042E00003DC045504DD057505C8067D0749010694
:1042F0000126014A015D018801B801EE020B024B63
:10430000029302BA0310037003DC04160497052617
:104310000575062006E007B80126014A01720188EA
:1043200001B801EE022A024B029302E4031003706B
:1043300003DC04550497052605C8062006E007B8E7
:1043400008AA014A0172019F01B801EE022A026E19
:10435000029302E4033F037003DC045504DD0526E9
:1043600005C8067D06E007B808AA09B9015D0188FD
:1043700001B801D2020B024B029302BA0310037080
:1043800003A40416049705260575062006E00749D0
:06439000082D092D0A4D65
:103737004D028F03000000000000000000000000A1
:0649D9008F248D258B26C2
:1049DF0012002EEF60037F0122E526D394004006DC
:1049EF00E52694114028E526D394174006E5269432
:1049FF0021401BE526D394274006E5269431400E2F
:104A0F00E526D394375007E524C394F950037F0369
:104A1F0022E526603DC4540F75F007A4FDACF0E508
:104A2F002475F015A42DFFE5F03CFEE52654077C18
:104A3F00002FFFEC3EFEEF25E0FFEE33FE74862FD6
:104A4F00F58274193EF583E493F528740193F529E3
:104A5F008005E4F528F529AF277E007C017D7712CC
:104A6F00341EAD251C123430AD07AC06AF29AE286D
:034A7F00124F9043
:014A82002211
:04395B00157115715C
:10395F0012002EEF70047F0180027F0090028FE033
:10396F00FEB402047D0180027D00ED5F6003023C26
:10397F004CEEB4030AE490028DF0A3F0023C4C909D
:10398F000290E0FFB4F3047E0180027E00EFB4F1F9
:10399F00047F0180027F00EF4E603E900292E0FEB6
:1039AF0075F06484FFEE75F00A8475F00A84ADF04B
:1039BF00E075F00A84ABF0752F0A900291E02407AE
:1039CF00F53090028CE0FEC4540F240AF5317532A5
:1039DF000AEE5407F5331258A3900290E0FFB4F3A8
:1039EF00047E0180027E00EFB4F2047F0180027F2B
:1039FF0000EF4E7003023AA5900292E0FD7C007E2C
:103A0F00177F70123430A871A607E6F975F002A47B
:103A1F00FFC390029BE09F90029AE095F05070E0F8
:103A2F00FEA3E0FF7C007D0B12341EE9FBFD123478
:103A3F0030A87108A60790029AE475F00112349B22
:103A4F00FED3E5F09BEE94004018A87108E624F928
:103A5F00FFE47EF0A807088005CEC313CE13D8F974
:103A6F00801FA87108E6FF740F7E00A80708800565
:103A7F00C333CE33CED8F97804CEA2E713CE13D802
:103A8F00F8A87108F6A87108E6FF125AF08007E44B
:103A9F0090029AF0A3F0900296E0FEA3E0FFC3908D
:103AAF000299E09F900298E09E4003023C4612006C
:103ABF002EEF6003023C4C900293E0FBA3E0FAA3CD
:103ACF00E0F9900298E0FEA3E0F5828E831233CFE7
:103ADF00FFD394375003023BE1EF241024FC5079BD
:103AEF00604524FE7003023B8C147003023BA2243A
:103AFF00026003023BD0900293E0FBA3E0FAA3E045
:103B0F00F9900298E475F00112348585F082F583FF
:103B1F001233CF900291F0900299E004F0709890D8
:103B2F000298E004F08090900293E0FBA3E0FAA3E8
:103B3F00E0F9900298E475F00112348585F082F572
:103B4F00831233CF900292F0900299E004F0706EDE
:103B5F00900298E004F0023AC6900293E0FBA3E0D3
:103B6F00FAA3E0F9900298E475F00112349B85F006
:103B7F0082F5831233CF900290F0023AC6900298EA
:103B8F00E475F001123485AFF090028DF0A3EFF0E1
:103B9F00023AC690028DE0FEA3E0FF4E6012900243
:103BAF0098EEF0A3EFF0E490028DF0A3F0023AC686
:103BBF00900299E004F07006900298E004F0023A47
:103BCF00C6900299E004F07006900298E004F002AB
:103BDF003AC6900296E0FEA3E0FFC3900299E09FE1
:103BEF00900298E09E5056900293E0FBA3E0FAA358
:103BFF00E0F9900298E475F00112349B85F082F59C
:103C0F00831233CF90028CF0900291E0FFA3E0FD7E
:103C1F00A3E0FBA3E0FAA3E0F9900298E475F001AA
:103C2F0012349B85F082F5831233CFF52790028CE7
:0D3C3F00E0FB1249D9800690028F7403F05B
:053C4C00057105712265
:0F5A390090024274FFF0A37439F0A3745BF02263
:10520D0090028FE0B4030DE4900298F0A3F0A3F0A8
:10521D00A3F0C21BEF6004900292F0ED60049002C7
:10522D0091F0E94A60047F0180027F00E52C452B57
:10523D0060047E0180027E00EE5F6013900293EBAE
:10524D00F0A3EAF0A3E9F0A3E52BF0A3E52CF0E53C
:08525D002D6004900290F02284
:1057A200BF02047E0180027E00BF01047D018002EF
:1057B2007D00ED4EFEBF03047D0180027D00ED4EB3
:0857C200600590028FEFF02258
:065AFC0090028FE0FF2282
:043747004102BA0180
:10595000C295E4FEEF1392CC000000D29500EFC395
:0859600013FFC2950EBE08EC16
:01596800221C
:10599B00E4FEEFC313FF30CC03430780D295000026
:0759AB0000C2950EBE08EBDF
:0159B20022D2
:1056D000F07F851256E3A3EFF07F871256E3A3EF26
:0356E000F07F89CF
:1056E300C296000000C295000000D29600125950E5
:0A56F30012599BD295000000C296E8
:0156FD00228A
:0358C300A3E0FD62
:1058C600C296000000C295000000D2960012595000
:0D58D600AF05125950D295000000C2962275
:075AE3007B017A0279B32276
:1059690078B37C027D017B007A00792B7E007F076A
:09597900123390E49002BAF0220E
:105A0600EFD3941F5009EF25E044C1FF0256E37F10
:025A160001226B
:10572900AC07AB05ECD3941F501CE4FD7F8E1258D7
:10573900C6EC25E044C0FFAD031258C67D807F8EBC
:095749001258C67F00227F0122E4
:024B2B00157102
:104B2D009002BAE060447F811256E3A871EFF690CF
:104B3D0002B3E06F7003024BCDA871E6F07F8312D4
:104B4D0056E3A871EFF6A3E06F6075A871E61256F3
:104B5D00D0A3EFF07F8D1256E39002B9EFF07F8B6B
:104B6D001256E39002B8EFF080569002B2E0FF04C7
:104B7D00F0EFC3940A4049E4F09002BA04F0E4FD6A
:104B8D007F8E1258C69002B3E0FD7F801258C67F0B
:104B9D00821258C37F841258C3A3E0FD7F8612583A
:104BAD00C6A3E0FD7F881258C6A3E0FD7F8A125888
:104BBD00C6A3E0FD7F8C1258C67D807F8E1258C62D
:034BCD000571224D
:1044B9007F811256E39002B3EFF07F831256E3A394
:1044C900EF1256D0A3EFF07F8B1256E3A3EFF07FE4
:1044D9008D1256E3A3EFF0E4FD7F8E1258C67F1EBE
:1044E900125A06EF64A560047F0180027F009002E2
:1044F900B3E05480FEA3E0D3945940047D018002C7
:104509007D00ED4EFE9002B5E0D394A440047D01F8
:1045190080027D00ED4EFE9002B6E0D39431400456
:104529007D0180027D00ED4EFE9002B7E0D394122A
:1045390040047D0180027D00ED4EFE9002B8E0D37B
:10454900940740047D0180027D00ED4EFE9002B982
:10455900E0D3949940047D0180027D00ED4E4F60C7
:1045690030782B7C007D007B007A0079247E007FE7
:10457900071233901259697DA57F1E12572978B306
:104589007C027D017B007A0079247E007F0712334B
:10459900907DA97F901258C67D807F8E1258C69053
:0E45A900025A74FFF0A3744BF0A3742BF0229F
:0B374B004802BBD4111A50400288A5B0
:0959E0007F031259E9D2C57F03CF
:0A59E900AE071FEE60030080F722F6
:1059F300D2A71259E0C2A77F031259E9C2C57F0398
:035A03000259E95C
:0C5A9000C2A71259E0D2A77F030259E917
:1058E300E4FFD2C530A709EFC394FA50030F80F445
:0C58F3007F031259E9C2C57F030259E986
:0257CA00AD0729
:1057CC00E4FBC2C57F031259E9ED3392A7ED25E046
:1057DC00FD1259E00BBB08EAC2C57F031259E9D28E
:0657EC00C57F030259E92C
:025480001571A4
:105482009002C3E0640170371259F37F201257CAA9
:105492001258E3A871E4F6A871E6FFC39408501706
:1054A20074BB2FF582E43402F583E0FF1257CA126F
:0F54B20058E3A8710680E0125A90E49002C3F00C
:0354C10005712250
:1051B1009002BDE025E025E0FFA3E0C413135403F2
:1051C1002F2466F536E43403F5359002C2E0540F1E
:1051D100F5379002C0E0543FFF5403FEBE0305754E
:1051E10038FF8003E4F538EF540CFEBE0C05753929
:1051F100FF8003E4F539EF5430FFBF3005753AFF06
:0B5201008003E4F53A7B007A00793569
:01520C00227F
:10492300D3E5309438E52F940450047F0180027F4F
:1049330000C3E5309466E52F940340047E018002B2
:104943007E00EE5F60301251B11234B165307004F5
:10495300E5F0652F6020E530249AFD1313543F9052
:1049630002BDF0ED5403FFC4333354C04410A3F02D
:104973009002C37401F01251B1E92402F9E43AFA46
:104983001233B6653160047F0180027F00E531D3C5
:10499300940F50047E0180027E00EE5F6011E531CA
:1049A300540FFF9002C2E054F04FF0A37401F07D66
:1049B3002AE5326003430501E5336003430504E55B
:1049C3003460034305109002C0E06D6008EDF09081
:0549D30002C37401F0B5
:0149D80022BC
:10581900782F7C007D007B007A0079247E007F064A
:1058290012339012492390025774FFF0A37454F075
:05583900A37480F022C1
:105A290053B1DF43B220C2B5C20A8F0C438F102293
:0300530002500850
:10500800C0E0C083C082C0D075D000C000C001C05D
:0350180002C003D0
:10501B00200313D203751B08751300751A00E50CDA
:10502B00C313F50A803AE50BC394014031E51A2509
:10503B00E0F51AE50BC394034002051AD51B21E5D5
:10504B0013C3951C501A751B08AB1DAA1EA91F85EF
:10505B001382758300E51A1233FC05138002C20319
:03506B00750B00C2
:10506E00D003D002D001D000D0D0D082D083D0E0F7
:01507E0032FF
:095ACA008B1D8A1E891F8D1C2210
:035B0800AF1322B6
:10566F002003047F0180027F00200A047E01800254
:10567F007E00EE5F60188B178A188919EDC313F53A
:10568F0009C202E4F515538FEFD2047F02227F0384
:01569F0022E8
:105587002003047F0180027F00200A047E0180023D
:105597007E00EE5F6026538FEF750D10751608D2EB
:1055A7000A438F018B178A188919ED75F008A4042F
:0F55B700F509D202E4F515D2047F02227F032208
:1058FF002003047F0180027F00200A047E018002C2
:0C590F007E00EE5F60037F00227F01221B
:100056000000000000000000002F00000000070064
:10006600070000147F147F1400242A7F2A120062DE
:10007600640813230036495522500000050300008A
:1000860000001C224100000041221C000014083E12
:1000960008140008083E0808000000A060000008D8
:1000A600080808080000606000000020100804022C
:1000B600003E5149453E0000427F400000426151EA
:1000C6004946002141454B31001814127F10002784
:1000D60045454539003C4A49493000017109050347
:1000E60000364949493600064949291E0000363678
:1000F60000000000563600000008142241000014DB
:1001060014141414000041221408000201510906B7
:1001160000324959513E007C1211127C007F494938
:100126004936003E41414122007F4141221C007F69
:1001360049494941007F09090901003E4149497A77
:10014600007F0808087F0000417F410000204041F1
:100156003F01007F08142241007F40404040007F5D
:10016600020C027F007F0408107F003E4141413EA1
:10017600007F09090906003E4151215E007F0919E9
:1001860029460046494949310001017F0101003FE6
:100196004040403F001F2040201F003F4038403F66
:1001A60000631408146300070870080700615149CA
:1001B600454300007F41410000552A552A5500005D
:1001C60041417F00000402010204004040404040DB
:1001D600000001020400002054545478007F484473
:1001E600443800384444442000384444487F0038AA
:1001F6005454541800087E0901020018A4A4A47CD3
:10020600007F080404780000447D4000004080849C
:100216007D00007F102844000000417F4000007CE4
:1002260004180478007C08040478003844444438F0
:1002360000FC242424180018242418FC007C08043C
:10024600040800485454542000043F444020003C15
:100256004040207C001C2040201C003C4030403C9C
:10026600004428102844001CA0A0A07C004464542C
:100276004C44141414141414000000000000000070
:100286000000000000000000000000F80000000070
:10029600000000333000000000100C06100C0600B1
:1002A600000000000000000040C07840C078400018
:1002B600043F04043F040400007088FC083000007A
:1002C600001820FF211E0000F008F000E0180000D2
:1002D60000211C031E211E0000F00888700000008B
:1002E6001E2123241927211010160E0000000000DD
:1002F6000000000000000000000000E018040200FA
:10030600000000071820400000020418E00000006A
:100316000040201807000000404080F08040400068
:100326000202010F01020200000000F000000000BE
:100336000101011F01010100000000000000000092
:1003460080B0700000000000000000000000000007
:100356000001010101010101000000000000000090
:10036600003030000000000000000000806018042B
:10037600006018060100000000E010080810E00008
:10038600000F102020100F00001010F800000000D1
:100396000020203F20200000007008080888700018
:1003A6000030282422213000003008888848300098
:1003B6000018202020110E000000C02010F80000B8
:1003C60000070424243F240000F808888808080051
:1003D6000019212020110E0000E010888818000066
:1003E600000F112020110E0000380808C838080038
:1003F6000000003F000000000070880808887000B8
:10040600001C222121221C0000E010080810E00038
:100416000000312222110F00000000C0C0000000C1
:1004260000000030300000000000008000000000E6
:1004360000008060000000000000804020100800DE
:1004460000010204081020004040404040404000A7
:100456000404040404040400000810204080000082
:100466000020100804020100007048080808F00087
:100476000000003036010000C030C828E810E00057
:100486000718272423140B000000C038E0000000E2
:10049600203C23020227382008F88888887000004C
:1004A600203F202020110E00C03008080808380020
:1004B600071820202010080008F808080810E00097
:1004C600203F202020100F0008F88888E808100038
:1004D600203F20202320180008F88888E80810000C
:1004E600203F200003000000C03008080838000044
:1004F60007182020221E020008F808000008F80845
:10050600203F210101213F20000808F808080000CB
:100516000020203F2020000000000808F8080800FE
:10052600C08080807F00000008F888C02818080076
:10053600203F20012638200008F8080000000000AF
:10054600203F20202020300008F8F800F8F80800A6
:10055600203F003F003F200008F830C00008F808A0
:10056600203F200007183F00E01008080810E000B0
:100576000F10202020100F0008F808080808F000C7
:10058600203F210101010000E01008080810E000EA
:100596000F18242438504F0008F88888888870007F
:1005A600203F2000030C302000708808080838001F
:1005B6000038202121221C00180808F80808180015
:1005C6000000203F2000000008F808000008F80896
:1005D600001F202020201F000878880000C8380847
:1005E600000007380E010000F80800F80008F800BF
:1005F600033C0700073C0300081868808068180859
:1006060020302C03032C30200838C800C8380800D6
:100616000000203F2000000010080808C838080025
:100626002038262120201800000000FE02020200C9
:100636000000007F40404000000C30C00000000079
:10064600000000010638C00000020202FE000000A1
:10065600004040407F000000000004020202040047
:100666000000000000000000000000000000000084
:10067600808080808080808000020204000000006C
:100686000000000000000000000080808080000064
:100696000019242222223F2008F800808000000052
:1006A600003F112020110E00000000808080000015
:1006B600000E112020201100000000808088F80024
:1006C600000E112020103F20000080808080000056
:1006D600001F222222221300008080F088888818BA
:1006E6000020203F202000000000808080808000C5
:1006F600006B94949493600008F80080808000005A
:10070600203F210000203F20008098980000000034
:100716000020203F20200000000000809898000064
:1007260000C08080807F000008F800008080800084
:10073600203F24022D302000000808F800000000A9
:100746000020203F20200000808080808080800064
:10075600203F20003F20003F8080008080800000F6
:10076600203F210000203F20000080808080000084
:10077600001F202020201F008080008080000000B5
:1007860080FFA12020110E000000008080808000E4
:10079600000E112020A0FF808080800080808000D5
:1007A60020203F2120000100000080808080800002
:1007B6000033242424241900008080E08080000077
:1007C6000000001F202000008080000000808000C4
:1007D600001F202020103F20808080000080808025
:1007E60000010E30080601008080008000808080B5
:1007F6000F300C030C300F000080800080808000DA
:100806000020312E0E312000808080000080808004
:1008160080818E70180601000080808080808000B4
:100826000021302C2221300000000000807C0202D2
:1008360000000000003F404000000000FF000000F4
:1008460000000000FF0000000002027C80000000A3
:100856000040403F000000000006010102020404BF
:10086600000000000000000000080808080809FA57
:100876000808080808080000000000000000000042
:100886000000000000000000404041414141417F1E
:10089600414141414140400000000000000000008D
:1008A6000000000000000000040444C44F4444C497
:1008B60024242FB4240404000000000000000000DB
:1008C600000000000000000040442424150C04FE33
:1008D600040C152424444000000000000000000021
:1008E60000000000000000000000F8494A4C48F8EB
:1008F600484C4A49F80000000000000000000000D3
:10090600000000000000000010101312121212FF67
:100916001212121213101000000000000000000056
:100926000000000000000000404044445464454676
:1009360044645444444040000000000000000000AD
:100946000000000000000000000000FF494949497E
:10095600494949FF000000000000000000000000B7
:1009660000000000000000000000E09C848484F485
:100976008282838280800000000000000000000068
:100986000000000000000000002010080640807FE4
:100996000000020408300000000000000000000013
:1009A600000000000000000000FE024222325E92BB
:1009B6005232120202FE0000000000000000000099
:1009C600000000000000000000FF42424251556452
:1009D6006941424242FF00000000000000000000A2
:1009E6000000000000000000000000FE2020202083
:1009F600203F202020200000000000000000000012
:100A060000000000000000000080601F02020202D9
:100A16000202FE00000000000000000000000000CE
:100A26000000000000000000080889EE980000FEA3
:100A36000202F20202FE00000000000000000000B8
:100A46000000000000000000020100FF00834023B8
:100A56001806017E8083E000000000000000000010
:100A66000000000000000000407C407F484840F243
:100A7600121AD61212F20200000000000000000056
:100A86000000000000000000908E404F201E804FA6
:100A960020180710204F8000000000000000000012
:100AA60000000000000000001060028C0008F94EF3
:100AB600C820584F48C80800000000000000000089
:100AC600000000000000000004047E8140300F405A
:100AD6007F0044847F040400000000000000000042
:100AE60000000000000000000008488808C83840E0
:100AF6004040FF2022AC2000000000000000000063
:100B060000000000000000000020100C0304188004
:100B1600402017182641F0000000000000000000E9
:100B260000000000000000000202F28A4600FC04F9
:100B3600FC0402FE030200000000000000000000AA
:100B4600000000000000000042827F0080601F005D
:100B56007F2810610E3040000000000000000000F9
:100B660000000000000000000000F9A9A9ABABFDE1
:100B7600ADABABA9F80000000000000000000000CB
:100B8600000000000000000000888B4828180E09AD
:100B9600084888483B0000000000000000000000F4
:100BA6000000000000000000202024242424BF644C
:100BB6002434282422202000000000000000000029
:100BC600000000000000000010080402FF49494927
:100BD600494949FF00000000000000000000000035
:100BE60000000000000000000404E424242424FF84
:100BF60024242424E4040400000000000000000073
:100C0600000000000000000040402722120A06FFF4
:100C1600060A1222274040000000000000000000E3
:100C260000000000000000008080808080808080BE
:100C360090A0E0C0C080800000000000000000001E
:100C4600000000000000000000000000000000009E
:100C56000402030101000000000000000000000083
:100C6600000000000000000000000000000000007E
:100C7600000000000000000000000000000000006E
:100C8600000000000000000000000000000000005E
:100C9600000000000000000000000000000000004E
:100CA60000000000000000002424A4FE2322008A85
:100CB600B282461981918D000000000000000000FC
:100CC6000000000000000000080601FF010600FF0A
:100CD600444440404444FF0000000000000000007F
:100CE600000000000000000010109092523212FE28
:100CF6001231519190101000000000000000000019
:100D06000000000000000000010100FF49494949B8
:100D1600494949FF000101000000000000000000F1
:100D2600000000000000000000FC8484FC00445425
:100D360054547F5454544400000000000000000046
:100D46000000000000000000003F10103F0000FF00
:100D560015151555957F00000000000000000000E5
:100D6600000000000000000040404242424242FEB5
:100D760042424242424040000000000000000000A3
:100D8600000000000000000080804020100C0300DE
:100D9600030C1020408080000000000000000000CE
:100DA6000000000000000000040484E41C0405C6E2
:100DB6003CA42424E4040400000000000000000019
:100DC6000000000000000000020100FF00828146D2
:100DD6002810294641808000000000000000000025
:100DE600000000000000000000F0101010FF1010BE
:100DF60010FF101010F000000000000000000000BE
:100E0600000000000000000000FF4242427F424214
:100E1600427F424242FF0000000000000000000046
:100E26000000000000000000000202C2020202FEF2
:100E36008282828282020000000000000000000020
:100E460000000000000000004040407F4040407F1E
:100E560040404040404040000000000000000000CC
:100E66000000000000000000080888C8380C0B08C5
:100E760008E8080808080800000000000000000054
:100E86000000000000000000020100FF4041414157
:100E9600417F414141414000000000000000000048
:100EA60000000000000000001010FF109082563A6B
:100EB600127F1139559080000000000000000000EC
:100EC600000000000000000042827F010000FF4990
:100ED600497F4949FF0000000000000000000000B3
:100EE60000000000000000000808F94A48C8482031
:100EF600D8171010F01010000000000000000000CD
:100F0600000000000000000040300F20403F8040FD
:100F16002116081621408000000000000000000095
:100F26000000000000000000829A9693FA52528058
:100F36007E121212F11110000000000000000000E5
:100F46000000000000000000000100FE9392939252
:100F5600929292FE030000000000000000000000D4
:100F660000000000000000008060F80700047454D0
:100F760055565454740400000000000000000000A0
:100F860000000000000000000000FF00030105450E
:100F9600857D050505010300000000000000000036
:100FA6000000000000000000048484FC84844044A7
:100FB600C44444C444444000000000000000000053
:100FC60000000000000000002060201F109040304C
:100FD6000F00003F404070000000000000000000CD
:100FE6000000000000000000102C2424A4A465A624
:100FF60024242424A4340C00000000000000000077
:1010060000000000000000004049492924145289CC
:101016007F040A11102020000000000000000000DC
:1010260000000000000000000000000040301CFF2F
:101036001C3040000000000000000000000000001E
:10104600000000000000000000000000000000FF9B
:10105600000000000000000000000000000000008A
:10106600000000000000000020202020202020FF9B
:10107600202020202020200000000000000000008A
:10108600000000000000000080804020100C0300DB
:10109600030C1020408080000000000000000000CB
:1010A6000000000000000000000000E0000000FF5B
:1010B600000000204080000000000000000000004A
:1010C6000000000000000000080403000040807FCC
:1010D6000000000000010E000000000000000000FB
:1010E600000000000000000088681FC80810C854EF
:1010F60052D1129408D01000000000000000000039
:101106000000000000000000091909FF0500FF1299
:1011160092FF005F807F00000000000000000000DA
:1011260000000000000000000202EEAAAAAAAAAB74
:10113600AAAAAAAAEA020200000000000000000013
:101146000000000000000000807EAAFE00BE423AB9
:1011560042BE807E127EE00000000000000000001B
:1011660000000000000000001060028C000CA4A427
:10117600A5E6A4A4A40C00000000000000000000E6
:10118600000000000000000004047E0100804F2AD9
:101196000A0F0A2A4F80000000000000000000002D
:1011A60000000000000000000000C05E52525252D3
:1011B6005252525EC0000000000000000000000015
:1011C600000000000000000080808F404020100ECC
:1011D600101020204F8000000000000000000000DA
:1011E6000000000000000000008060F807402018A2
:1011F6000F08C808082818000000000000000000BA
:101206000000000000000000010000FF00100C03B9
:1012160040807F000106180000000000000000006A
:10122600000000000000000080808282828282FE30
:10123600828282828280800000000000000000001E
:10124600000000000000000000000000000000FF99
:101256000000000000000000000000000000000088
:101266000000000000000000FC0404FC00FC4444F4
:10127600FC4546FC44440400000000000000000059
:1012860000000000000000000F04044F300F0806A5
:10129600FF0906FF030C100000000000000000001C
:1012A600000000000000000000FC0404FC00C41F55
:1012B6000404041FC4040000000000000000000035
:1012C6000000000000000000000F04048F8040238F
:1012D6001408142340808000000000000000000075
:1012E600000000000000000000FC04FC006058C67E
:1012F6003010FF1010F00000000000000000000099
:101306000000000000000000000F0407000C0B881E
:101316005C300F40807F00000000000000000000ED
:10132600000000000000000040221408F4024454AB
:1013360054547F5454544400000000000000000040
:101346000000000000000000084482413F0000FF4A
:1013560015151555957F00000000000000000000DF
:10136600000000000000000020202020202020FF98
:101376002020202020202000000000000000000087
:10138600000000000000000080804020100C0300D8
:10139600030C1020408080000000000000000000C8
:1013A6000000000000000000000000E0000000FF58
:1013B6000000002040800000000000000000000047
:1013C6000000000000000000080403000040807FC9
:1013D6000000000000010E000000000000000000F8
:1013E600000000000000000008488808C838000017
:1013F600FC061544847C000000000000000000008C
:10140600000000000000000020100C03041800106B
:101416001312125292423E0000000000000000002B
:10142600000000000000000000FC0404FC20104C3A
:101436004B484848C80808000000000000000000AB
:101446000000000000000000000F04040F003048F8
:10145600444242414040700000000000000000008D
:1014660000000000000000000804E30206FA020A79
:10147600F443C2464A420200000000000000000099
:10148600000000000000000040407D44447D4445CB
:10149600447C44457C404000000000000000000001
:1014A6000000000000000000048484FC84841050C6
:1014B6009010FF9011169000000000000000000040
:1014C60000000000000000002060201F101010081F
:1014D60045827F01060910000000000000000000A0
:1014E600000000000000000008049392969A92FA09
:1014F60094939296FA020200000000000000000099
:1015060000000000000000004040472424140CFFA7
:1015160004042444241C0000000000000000000015
:10152600000000000000000000001011161010F06E
:10153600101014131000000000000000000000004E
:1015460000000000000000008181414121110D03CF
:101556000D112141418181000000000000000000C2
:101566000000000000000000001088C43300BEAA7E
:10157600AAAAAAAABE80000000000000000000007F
:101586000000000000000000020100FF00020A1235
:101596000242827F020202000000000000000000FA
:1015A60000000000000000008040209088868080B7
:1015B60080838C10204080000000000000000000A6
:1015C60000000000000000000080402018070040D6
:1015D60080403F0000000000000000000000000006
:1015E600000000000000000000FC04FC001010FFDA
:1015F60090C8090E08E8080000000000000000007E
:101606000000000000000000000F040F0044827F6D
:1016160000404F605C4340000000000000000000F6
:10162600000000000000000000F808080CCA494845
:1016360048C8080808F80000000000000000000084
:10164600000000000000000000FF0000001F080866
:10165600081F0040807F000000000000000000001E
:10166600000000000000000000FE0222DA0600FC76
:101676000404040404FC0000000000000000000054
:10168600000000000000000000FF0810080700FF2F
:101696004141414141FF0000000000000000000000
:1016A6000000000000000000040404846F04040429
:1016B600E4048F442404040000000000000000003D
:1016C6000000000000000000040201FF00100804F2
:1016D6003F4140404040780000000000000000000C
:1016E60000000000000000000010101010D030FFB5
:1016F60030D01010101000000000000000000000A4
:10170600000000000000000010080402010000FFB5
:1017160000000102040810000000000000000000A4
:101726000000000000000000000000007FC94949D9
:101736004949497F00000000000000000000000049
:1017460000000000000000000008044223128E4240
:10175600320E4282423E00000000000000000000FF
:1017660000000000000000000020222C2020E03FA6
:1017760020202020E0000000000000000000000003
:101786000000000000000000804020100806010054
:10179600014680403F0000000000000000000000FD
:1017A600000000000000000040445454D454745F0C
:1017B6005454D4545444400000000000000000007B
:1017C600000000000000000004040201FE92929254
:1017D6009292FE01020404000000000000000000D6
:1017E600000000000000000000FC0404FC0000FCF7
:1017F600444444C243424000000000000000000090
:101806000000000000000000000F04040F80601FAD
:10181600000000FF000000000000000000000000C3
:101826000000000000000000404042CC0000F1161D
:1018360010101814F3000000000000000000000063
:1018460000000000000000000000003F9048211941
:1018560007013F4141407000000000000000000009
:101866000000000000000000008060F8074020181B
:101876000F08C80808281800000000000000000033
:101886000000000000000000010000FF00100C0333
:1018960040807F00010618000000000000000000E4
:1018A600000000000000000080642C342424EC3288
:1018B6002222322E23A26000000000000000000059
:1018C60000000000000000000041219189874D556D
:1018D6002525554D81808000000000000000000095
:1018E60000000000000000000242A25A9257320295
:1018F6003A57925232020200000000000000000037
:101906000000000000000000044422150445857D07
:101916000505041521420200000000000000000039
:1019260000000000000000001088C43300201028CA
:1019360024E32428102020000000000000000000FE
:1019460000000000000000000100FF0020110D4112
:10195600817F010509310000000000000000000041
:101966000000000000000000202020FF202000F8DA
:101976008888FF8888F8000000000000000000004A
:1019860000000000000000001030100F0808001FC3
:101996000808FF08081F0000000000000000000003
:1019A60000000000000000000000F000000000FF42
:1019B60000000000F0000000000000000000000031
:1019C600000000000000000000003F202020203F13
:1019D600202020207F000000000000000000000002
:1019E600000000000000000000C0301F1010F000D2
:1019F60000FF204080000000000000000000000002
:101A06000000000000000000814021120C030000CD
:101A160000FF0000000300000000000000000000BE
:101A26000000000000000000404454545454547F09
:101A36005454545454444000000000000000000078
:101A46000000000000000000000000FF151515153D
:101A56001555957F00000000000000000000000002
:101A660000000000000000000000F000000000FF81
:101A760000000000F0000000000000000000000070
:101A8600000000000000000000003F202020203F52
:101A9600202020207F000000000000000000000041
:101AA60000000000000000001090FF90100090520F
:101AB60034107F1034529000000000000000000037
:101AC60000000000000000000601FF000182825AAB
:101AD600562322524E820200000000000000000041
:101AE600000000000000000000C0301F1010F000D1
:101AF60000FF204080000000000000000000000001
:101B06000000000000000000814021120C030000CC
:101B160000FF0000000300000000000000000000BD
:101B260000000000000000001090FF90100090528E
:101B360034107F10345290000000000000000000B6
:101B460000000000000000000601FF000182825A2A
:101B5600562322524E8202000000000000000000C0
:101B6600000000000000000000FC0404FC00007FF0
:101B7600494949497F0000000000000000000000BC
:101B86000000000000000000000F04040F00FF49E1
:101B96004949494949FF00000000000000000000D3
:101BA6000000000000000000003E22E2223E000885
:101BB60010FF00FFA0100800000000000000000059
:101BC6000000000000000000407E403F22228042CC
:101BD600310F007F8081F20000000000000000004D
:101BE6000000000000000000101010FF1090040418
:101BF6000404FC04040404000000000000000000CB
:101C060000000000000000000444827F0100000084
:101C160040807F000000000000000000000000007F
:101C260000000000000000000804E30206FA020AB1
:101C3600F443C2464A4202000000000000000000D1
:101C4600000000000000000040407D44447D444503
:101C5600447C44457C404000000000000000000039
:101C66000000000000000000048484FC84841050FE
:101C76009010FF9011169000000000000000000078
:101C860000000000000000002060201F1010100857
:101C960045827F01060910000000000000000000D8
:101CA6000000000000000000404042CC00504EC83A
:101CB600487FC848484000000000000000000000BF
:101CC60000000000000000000040201F20504C4390
:101CD60040404F50505C40000000000000000000F3
:101CE60000000000000000001010FF100082864A6D
:101CF60052A2524A868080000000000000000000C8
:101D0600000000000000000042827F010010121255
:101D160012FF121212100000000000000000000066
:101D260000000000000000000424C404E45C20F865
:101D36004F4849FA4848080000000000000000002B
:101D4600000000000000000020100C03041800FF33
:101D56002222223F22222000000000000000000074
:101D660000000000000000000000FC242424FC25E4
:101D76002624FC24242404000000000000000000A7
:101D8600000000000000000040308F80844C552584
:101D96002525554C808080000000000000000000D2
:101DA60000000000000000000804C312268AA2AA50
:101DB600A4A32226EA0202000000000000000000A0
:101DC60000000000000000000000FF00003F242487
:101DD600243F0080FF00000000000000000000001B
:101DE60000000000000000000000F8494A4C48F8D6
:101DF600484C4A49F80000000000000000000000BE
:101E0600000000000000000010101312121212FF52
:101E16001212121213101000000000000000000041
:101E2600000000000000000040445464457E444425
:101E3600447E456454444000000000000000000059
:101E46000000000000000000000000FF4949494969
:101E5600494949FF000000000000000000000000A2
:101E660000000000000000004042CC0000E2222AF0
:101E76002AF22A2622E000000000000000000000EE
:101E8600000000000000000080403F4080FF89897C
:101E960089BF89A9C9BF80000000000000000000BA
:101EA600000000000000000000FE02222222A2FE26
:101EB600A222222202FE0000000000000000000014
:101EC600000000000000000000FF40484442417F3F
:101ED6004041424C40FF00000000000000000000AE
:101EE60000000000000000000424C404E45C20F8A4
:101EF6004F4849FA4848080000000000000000006A
:101F0600000000000000000020100C03041800FF71
:101F16002222223F222220000000000000000000B2
:101F2600000000000000000000FE225A860810444F
:101F360024F42C2724E40400000000000000000024
:101F4600000000000000000000FF040887413F4039
:101F560080BF8595A59F800000000000000000005E
:101F660000000000000000001010D0FF901000FEDE
:101F7600020202FE00000000000000000000000057
:101F86000000000000000000040300FF0083601F43
:101F96000000003F40407800000000000000000004
:081FA600000000000000000033
:103756006200000000000000000000000000000001
:103766000000000000000000000000000000000053
:103776000000000000000000000000000000000043
:103786000000000000000000000000000000000033
:103796000000000000000000000000000000000023
:1037A6000000000000000000000000000000000013
:1037B6000000000000000000000000000000000003
:1037C60000000000000000000000000000000000F3
:1037D60000000000000000000000000000000000E3
:1037E60000000000000000000000000000000000D3
:1037F60000000000000000000000000000000000C3
:1038060000000000000000000000000000000000B2
:1038160000000000000000000000000000000000A2
:103826000000000000000000000000000000000092
:103836000000000000000000000000000000000082
:103846000000000000000000000000000000000072
:103856000000000000000000000000000000000062
:103866000000000000000000000000000000000052
:103876000000000000000000000000000000000042
:103886000000000000000000000000000000000032
:103896000000000000000000000000000000000022
:1038A6000000000000000000000000000000000012
:1038B6000000000000000000000000000000000002
:1038C60000000000000000000000000000000000F2
:1038D60000000000000000000000000000000000E2
:1038E60000000000000000000000000000000000D2
:1038F60000000000000000000000000000000000C2
:1039060000000000000000000000000000000000B1
:1039160000000000000000000000000000000000A1
:103926000000000000000000000000000000000091
:103936000000000000000000000000000000000081
:103946000000000000000000000000000000000071
:04395600000000006D
:10526500ED131313541FFEED5407FD7401A8050833
:105275008002C333D8FCFDEFC39440503A75F00863
:10528500EFA42400301C16F582E5F03400F583E523
:10529500822EF582E43583F583E04DF022F582E533
:1052A500F03400F583E5822EF582E43583F583E05D
:0752B500FFEDF4FEEF5EF0D7
:0152BC0022CF
:1050E700E4F56BE56B24B0FFE4FD125615E4FDFF14
:1050F700125615E4FD7F10125615E4F56C75F0088D
:10510700E56CA42400F582E5F03400F583E58225FB
:105117006BF582E43583F583E0FF7D0112561505B3
:105127006CE56CC3944040D5056BE56BC3940840B0
:10513700B2E4F56B7D01E4FF125615056BE56BC311
:04514700944040F060
:01514B002241
:10593600EF4E60157D087C07ED1DAA0470011C4A18
:0959460070F6EF1F70EA1E80E705
:01594F002235
:105982008F6EE56E7006FD7FA6125615E56EB401A8
:0959920007E4FD7FA7125615225F
:1057F2008F6FE56F700DFD7FC8125615E4FD7FA116
:10580200125615E56FB4010EE4FD7FC0125615E481
:07581200FD7FA012561522D4
:085AD3007F01AE071FEE70FA1F
:015ADB0022A8
:0F5A4800D291D290125AD3C291125AD3C2902245
:0A5A9C00C291D290125AD3D2912287
:0F5A5700D291125AD3D290125AD3C290025AD37C
:02583E00AD07B4
:10584000E4FCC290ED30E704D2918002C291125A7A
:10585000D3D290125AD3C290ED25E0FD0CBC08E2E1
:015860002225
:10560400F583E58229F582E43583F583E493FF7D10
:015614000194
:10561500AB05AA07125A487F7812583E125A57EB23
:1056250060047F408002E4FF12583E125A57AF02D1
:0956350012583E125A57025A9C09
:10586100A907ED24B0FFE4FD125615E954F0C45424
:105871000F4410FFE4FD125615E9540FFFE4FD0239
:025881005615BA
:10003E00E4FD7F8D125615E4FD7F14125615E4FD76
:05004E007FAF02561512
:1059CB00E4FD7F8D125615E4FD7F10125615E4FD94
:0559DB007FAE0256152D
:1056A000E4F9E924B0FFE4FD125615E4FDFF1256BB
:1056B00015E4FD7F10125615E4F5247D01E4FF1278
:0F56C00056150524E524C3948040F009B908D39A
:0156CF0022B8
:04485D008F338D34D4
:10486100E4F537E536C313FDF538E4F539F53AE5F6
:1048710036B40808753B00753C068029E5361313EC
:1048810013541FFF7E00E536540760059000018038
:1048910003900000E5822FFFE5833EFE7C00123489
:1048A1001E8E3B8F3CEB24E0F537AD34AF3312580D
:1048B10061E4F539F53AC3E53A953CE539953B5064
:1048C10060E538FD7C00AE39AF3A123430ED4C7002
:1048D1000FE53664086009AD340534AF3312586111
:1048E100E536B4081075F006E537A42456F582E5DF
:1048F100F034008013E536B4102775F010E537A4C5
:10490100247EF582E5F03402F583E582253AF582CD
:10491100E583353912560E053AE53A709905398025
:014921009500
:014922002272
:0459B3008F70A90543
:1059B7007F017E00AD0119ED6009AD707C001234E6
:0359C7001E80F14E
:0159CA0022BA
:084E0D008F598D5A8A5B8B5C02
:104E1500E4F561F562E55EB40803756102E4F55FEA
:104E2500E55FC3955D5069C3E55D955F14FD7F0A38
:104E35001259B3AC5BAD5CCFCDCFCECCCE123430F6
:104E45007C007D0A1234308D60E5627025E55D14C5
:104E5500FFE55FC39F501BE5607014E55EC3132536
:104E650061855FF0A42559FF855E367B2080187526
:104E75006201E55EC3132561855FF0A42559FFE551
:104E8500602430FB855E36AD5A12485D055F809023
:014E950022FA
:0A5362008F2C8D2D8B2E8A2F8930A1
:10536C00E4F532AB2EAA2FA9308532827583001258
:10537C0033CF602AAF3205328F827583001233CF60
:10538C00FB853136AD2DAF2C12485DE531B40804E8
:0E539C0074068004E531C313252CF52C80C562
:0153AA0022E0
:0653AB008F638D648B6529
:1053B100E4F566125861E4F975F040E565A4246EE0
:1053C100F582E5F03408125604056609B910E9E5DD
:1053D1006404FDAF63125861E4F975F040E565A41A
:1053E100248EF582E5F03408125604056609B910D9
:0153F100E9D2
:0153F2002298
:04514C008F248B26FB
:10515000E4F52BF52CE5275407700BE52713131303
:10516000541FF52E800AE527131313541F04F52E40
:105170008D2EE52EC395275037AD2EAF24125861E2
:1051800085242DE52DC395265022AB28AA29A92ACE
:10519000052CE52CAE2B7002052B14F5828E8312A4
:1051A00033CFFF7D01125615052D80D7052E80C205
:0151B00022DC
:06507F008F4E8D4F8B5097
:10508500E4F555F556E551131313541FFFE5515437
:105095000760047E0180027E00EF2EF551E4F5578E
:1050A500E557C39551503AE557254FFDAF4E125878
:1050B50061E4F558E558C395505022AB52AA53A95F
:1050C500540556E556AE557002055514F5828E8386
:1050D5001233CFFF7D01125615055880D70557802D
:0150E500BF0B
:0150E60022A7
:10478D00C2927FC87E00125936D292E4FD7FAE12DE
:10479D005615E4FDFF125615E4FD7F10125615E473
:1047AD00FD7F40125615E4FD7F81125615E4FD7F05
:1047BD00CF125615E4FD7FA1125615E4FD7FC812E8
:1047CD005615E4FD7FA6125615E4FD7FA812561569
:1047DD00E4FD7F3F125615E4FD7FD3125615E4FD1F
:1047ED00FF125615E4FD7FD5125615E4FD7F80129C
:1047FD005615E4FD7FD9125615E4FD7FF1125615BD
:10480D00E4FD7FDA125615E4FD7F12125615E4FD14
:10481D007FDB125615E4FD7F40125615E4FD7F2017
:10482D00125615E4FD7F02125615E4FD7F8D1256CA
:10483D0015E4FD7F14125615E4FD7FA4125615E400
:10484D00FD7FA61256151256A0E4FD7FAF02561538
:102F160002325EE86480F8E933E83360110460F059
:102F2600ED33EC337009E8FCE9FDEAFEEBFF220421
:102F360060DED3EB9FEA9EE99DE8C2E78CF0C2F71C
:102F460095F0400CE8CCF8E9CDF9EACEFAEBCFFBE8
:102F560012322985D0F05804700320D5B3E80470E6
:102F6600075002B2D502326892D5EC0460F7E4CC81
:102F7600C0E0C398F8603B94186008400DD0E0FBB1
:102F8600023240E4FBFAC9FC8028E830E406E4C9D2
:102F9600FBE4CAFCE830E305E4C9CACBFCE8540705
:102FA6006010F8C3E913F9EA13FAEB13FBEC13FC10
:102FB600D8F130F52FC3E49CFCEF9BFFEE9AFEEDB3
:102FC60099FDD0E0FBEF4E4D4C701222DB0302322E
:102FD60065EC2CFCEF33FFEE33FEED33FDED30E711
:102FE600EB023240EF2BFFEE3AFEED39FDD0E0FB6F
:102FF60050130BBB0003023268ED13FDEE13FEEF18
:0830060013FFEC13FC02324041
:10300E00EC4D6011E8497017ED33EC3304600DE4BC
:10301E00FCFFFEFD22E933E8330470F802325E1243
:10302E00322958046009E4CC248150062850090244
:10303E003268284003023265C0E0EB4A7044B98022
:10304E0006D0E0FB023254EF4E701CBD8008EBFF41
:10305E00EAFEE9FD80EBE98DF0A4FEE5F00230F723
:10306E00E9CDF9EAFEEBFFEF89F0A4FCE5F0CE899D
:10307E00F0A42EFFE435F0CD89F0A42DFEE435F05A
:10308E008067EF4E7005BD80D780C3EF8BF0A4AC88
:10309E00F0EE8BF0A42CFCE435F0F8EF8AF0A42CC3
:1030AE00E5F038FCE433CB8DF0A42CFCE5F03BF8D6
:1030BE00EE8AF0A42CFCE5F038F8E433CF89F0A4C6
:1030CE002CFCE5F038CF3400CE89F0A42FFFE5F0CC
:1030DE003EFEE433C98DF0A42EFEE5F039CD8AF024
:1030EE00A42FFFE5F03EFEE43DFD33D0E0FB50079C
:1030FE000BBB000F023268EC2CFCEF33FFEE33FEFD
:06310E00ED33FD0232402A
:10311400023268EC5D046005E85904700302325E13
:10312400123229580460F6EC4860F2EC7004FDFE9B
:10313400FF22C860DB2481C85009C398600250068E
:103144000232659850CAF582E9294B4A7005AB8270
:1031540002325475F0007C1A7880C3EF9BEE9AED2E
:1031640099400DC3EF9BFFEE9AFEED99FDE842F006
:10317400DC23ACF0D0E0FFD0E0FED0E0FDAB822059
:10318400E7101BEB60BAEC2CFCEF33FFEE33FEEDE3
:1031940033FD023240E803F830E705C0F075F00073
:1031A400EF2FFFEE33FEED33FD40B830E7C280AAC7
:1031B40075F020800E75F010800575F0087D007E96
:1031C400007F003392D530D5031235F9EC3340102B
:1031D400EF33FFEE33FEED33FDEC33FCD5F0ED229F
:0E31E400E5F0247EA2D513CC92E7CDCEFF22DB
:1031F200EDD2E7CD33EC3392D524814006E4FFFED5
:10320200FDFC22FCE4CFCECDCC24E0501174FF8033
:10321200EDC3CC13CCCD13CDCE13CECF13CF0470D0
:07322200F030D5DE0235F9A2
:10413B003E9248DA3ECCCCCD3F2AAAAB40000000E1
:10414B003F8000003F9837F03FB504F33FD744FC66
:10415B003E3172173EB172173F0515913EDE5BD9AA
:10416B00D21D8002C21DEDD2E7F8CD33EC330470C3
:10417B000BBD800592D502326802325E40FBD31430
:10418B0060F2F5F07C3FEE7A00C39496C8948B40B6
:10419B00230AC89469C8941A401A0AC89468C89428
:1041AB001F40110AC8945AC89425400805F07A009C
:1041BB00CDC2E7CDC0F08C348D358E368F37EA23E8
:1041CB0023C0E0244BF582E43441F58312362B12E5
:1041DB002F1DECC0E0EDC0E0EEC0E0EFC0E012360A
:1041EB001BA834A935AA36AB37122F19D0E0FBD058
:1041FB00E0FAD0E0F9D0E0B2E7F81231178C348D49
:10420B00358E368F3790413B7403123273A834A925
:10421B0035AA36AB3712300ED0E0600F2457F5823B
:10422B00E43441F58312362B122F1D8C348D358ED1
:10423B00368F37D0E0C3947FFDE49400FC1231B984
:10424B007B187A727931783F12300EA834A935AACF
:10425B0036AB37122F1D301D0B7BD97A5B79DE788D
:05426B003E12300E229E
:10322900E9D2E7C933E833F892D5EDD2E7CD33ECEB
:0732390033FC5002B2D52264
:10324000EC30E7100FBF000C0EBE00080DBD0004EF
:103250000BEB6014A2D5EB13FCED92E7FD2274FF9B
:10326000FCFDFEFF22E480F8A2D574FF13FC7D80F4
:03327000E480EF08
:10327300C0E0EFFBEEFAEDF9ECF812300ED0E0F51A
:10328300F0EFFBEEFAEDF9ECF812361BA3A3A3A3C0
:10329300E8C0E0E9C0E0EAC0E0EBC0E0C0F0123013
:1032A3000E12362BA3A3A3A3122F1DD0F0D0E0FB45
:0D32B300D0E0FAD0E0F9D0E0F8D5F0D42258
:03000000024CF6B9
:0C4CF600787FE4F6D8FD758171024D3D19
:1032C000E709F608DFFA8046E709F208DFFA803EF0
:1032D00088828C83E709F0A3DFFA8032E309F608DD
:1032E000DFFA8078E309F208DFFA807088828C8345
:1032F000E309F0A3DFFA806489828A83E0A3F608F9
:10330000DFFA805889828A83E0A3F208DFFA804CD2
:1033100080D280FA80C680D4806980F280338010A9
:1033200080A680EA809A80A880DA80E280CA803312
:1033300089828A83ECFAE493A3C8C582C8CCC5838A
:10334000CCF0A3C8C582C8CCC583CCDFE9DEE7805A
:103350000D89828A83E493A3F608DFF9ECFAA9F0D9
:10336000EDFB2289828A83ECFAE0A3C8C582C8CC2F
:10337000C583CCF0A3C8C582C8CCC583CCDFEADE48
:10338000E880DB89828A83E493A3F208DFF980CCAA
:1033900088F0EF60010E4E60C388F0ED2402B404A3
:1033A0000050B9F582EB2402B4040050AF2323454A
:0633B0008223903310732C
:1033B600BB010689828A83E0225002E722BBFE0215
:0933C600E32289828A83E4932248
:1033CF00BB010CE58229F582E5833AF583E02250B3
:1033DF0006E92582F8E622BBFE06E92582F8E222FD
:0D33EF00E58229F582E5833AF583E4932217
:1033FC00F8BB010DE58229F582E5833AF583E8F007
:10340C00225006E92582C8F622BBFE05E92582C8B2
:02341C00F2229A
:10341E00EF8DF0A4A8F0CF8CF0A428CE8DF0A42EC2
:02342E00FE227C
:10343000BC000BBE0029EF8DF084FFADF022E4CC80
:10344000F875F008EF2FFFEE33FEEC33FCEE9DEC49
:10345000984005FCEE9DFE0FD5F0E9E4CEFD22ED8F
:10346000F8F5F0EE8420D21CFEADF075F008EF2FD9
:10347000FFED33FD4007985006D5F0F222C398FDCA
:053480000FD5F0EA2267
:10348500C5F0F8A3E028F0C5F0F8E58215827002D2
:063495001583E038F0226F
:10349B00A3F8E0C5F025F0F0E582158270021583E4
:0634AB00E0C838F0E82241
:1034B100BB010A89828A83E0F5F0A3E022500687E6
:1034C100F009E71922BBFE07E3F5F009E3192289A8
