:1000560048554E414E20554E4956455253495459DE
:10006600004E657874204D6F6465A3BA00204D4F2D
:1000760044453A30312020434C4F434B20004348FF
:100086004F4F534520594F5552204D4F4445002060
:100096004D4F44453A3032202054494D45522000B8
:1000A600204D4F44453A3033202054494D45522087
:1000B60000204D4F44453A3034202054494D455296
:1000C6002000204D4F44453A3035202054494D45B7
:1000D600522000204D4F44453A3036202054494D99
:1000E60045522000204D4F44453A30372020544990
:1000F6004D455220000000000000000000000000F6
:1001060040C00000000000000000000000000000E9
:1001160000000000000000000000000000000000D9
:1001260000000000000000000000000000000000C9
:1001360000000000000000000000000000000000B9
:1001460000000000000000000000000000000000A9
:100156000000000000000000000000000000000099
:1001660000000000000080E43800000000000000ED
:100176000000000000000000000000000000000079
:1001860000433F000000000000F8FEFE88F0E0C0DB
:10019600000080C0C0E0F0F0600000000000000039
:1001A60000000000000000000000C0F8FC8080E0B5
:1001B60040000000000000000000000000000000F9
:1001C60000000000F8FC180000000000000000001D
:1001D6000000000000000000000000001860C000E1
:1001E60010301098DEF3703090180888C4743C0EF6
:1001F60004000000000000000000000000000000F5
:100206000080C0E0F070787C3F1F0F070303C1D069
:1002160072E3C100C0FF3F030000000000000000C1
:1002260000202030301898DCEC7EB7939B090C0434
:1002360006EE0E00000000000000000000000000B6
:10024600000000F8FFC7C060723810000000000010
:100256000000000000000000000000063C701B0FBC
:1002660004128D8783D04877F3FCF6330100000033
:1002760000000000000000000000000000FCE0009C
:10028600C0F81F0100C0E0308CE6FE3018C6FF0142
:100296001E330100FFFF8000000000000000000088
:1002A6008060080407030784CEFFFB3100000000CE
:1002B60000FF0000000000000000000000000C0C21
:1002C600C67E3F0701011020C080800000000000AC
:1002D6000000000000000000000000000000020214
:1002E6008281C1F1484C2627E3E16000000000004E
:1002F600000000000000000000000000E0FFFF3FDB
:100306000F0100000000000001030000E0FF1F00D5
:10031600040810307F7F4F0000000000000000003E
:10032600030000000000000101000700000008189B
:10033600180F000000000000000000000008040381
:100346000100000000000000000103070706060286
:10035600000000000000000008080C0E060703035A
:1003660001010001FC000001000000000000000087
:100376000000000000000000000000000001010075
:10038600000000000000000000000307030000005A
:100396000000000000000000000000000000000057
:1003A6000000000000000000000000000000000047
:1003B6000000000000000000000000000000000037
:1003C6000000000000000000000000000000000027
:1003D6000000000000000000000000000000020213
:1003E60002060606070000000000000000000000EC
:1003F6000000000000F3F5FA25042504251825045D
:100406002504251825042504250824082308220880
:100416002110F6150C150421101510231021102596
:100426001826082510250C250431103110260C2518
:1004360004240826082530250C250426102610221B
:1004460010220C2204251824082310150C15042547
:100456001025082608250824082308220821302507
:100466000C2504311031102610260C2504241825DD
:10047600082610220C220425102508260825082403
:10048600082308220821380008210C150823102308
:10049600180008230C210426102618000816181622
:1004A600082210220C2304220821082708260815F2
:1004B60020211015101608161015082110221023D9
:1004C60010001022102608260825082510230822C9
:1004D600102610251000082108310C31043108259A
:1004E6000826183108260C2504240825082510009E
:1004F60010310C310431083108251025082608254D
:10050600082408230822082110F5FBF464F7F3F504
:10051600FAF45000100010001000103608310835AB
:10052600083608330C350435083208331000103607
:100536000835080010000835083608000836043368
:10054600043108360432043308000835083608003A
:100556000836043504330836043304330800100023
:10056600100010001023082204230423100010009A
:100576000C22042108160816100010210822082350
:100586000822042304231000100008220421041763
:100596000421041708001000102708310427042638
:1005A6001825082308210421042104250C230821E9
:1005B6000422042210000C21042108220823082208
:1005C60004230423100010250825042604250822E8
:1005D60004230422100010270831042704261825B6
:1005E600082308210421042104250C2308210422C0
:1005F600042210000831083208320433043208316C
:100606000426042610000C22043208310832103267
:10061600100010001033103310321031082708264E
:100626000825042604261000102508310833083250
:100636000433043310000C2504340C33043208311F
:100646000432043210000833083208310831103100
:1006560010331033103408330831100010250831D8
:1006660008320831043204321000102608320833EA
:10067600083204330433100010001036103604001C
:1006860002320236023302320226022610261036C3
:1006960002350231043104310432043204320832A4
:1006A6000833080010230822042304231000100036
:1006B6000822082104160416081610001021082224
:1006C600082308220423042310000C150422082101
:1006D6000417041704210417080010001027053119
:1006E6000527062610000C250423082104210421D1
:1006F600082508230821042204221020102108229C
:1007060008230822042304231000102508250426A4
:100716000425082204230422100010270831042788
:100726000426082610260425042308210421042172
:100736000825082308210422042210000831083263
:1007460008320433043208310426042610000C2231
:100756000432083108321032100010001033103302
:100766001032103108270826082504260426100012
:1007760010250831083308320433043310000C25E1
:1007860004340C33043208310432043210000833C6
:100796000832083108311031103310331034083361
:1007A60008311000102508310832083104320432AD
:1007B600100010260832083308320433043310338D
:1007C60010331000100010261026102710271031A5
:1007D60010311032103210341034103510360835FE
:1007E6000836103610361036103610361000100047
:1007F6001033103310321031082704270426082539
:100806000426042610000C25042508310833083276
:100816000433043310001034103208310432043229
:10082600100008330832083108311C310433103304
:10083600103408330431043110000C250425083126
:100846000832083104320432100010260832083308
:100856000832043204331033103310000000000055
:100866000000000000000000000000000000000082
:100876000000000000000000000000000000000072
:100886000000000000000000000000000000000062
:100896000000000000000000000000000000000052
:1008A6000000000000000000000000000000000042
:1008B6000000000000000000000000000000000032
:1008C6000000000000000000000000000000000022
:1008D6000000000000000000000000000000000012
:1008E60000000000000000000000C0E0F0F0F8F892
:1008F600FCFCFCFCFCFCF8F080C0DEFFFFFFFFDE2A
:1009060080F0F8FCFCFCFCFCFCFCF8F8F0E0C08095
:1009160000000000000000000000000000000000D1
:10092600000000000000000000001F9FCFFFFFFF37
:10093600FFFF7F3F1F1F0F0F0707071F1F07070731
:100946000F0F0F1F3FBF7FFFFFFFF7EFCF1F1F03E5
:100956000000000000000000000000000000000091
:10096600000000000000000080F8FEFFFF3F0F03BC
:1009760001000000000000000000000080C0E0F060
:1009860078381C060301000001071FFFFFFFFCE08B
:100996000000000000000000000000000000000051
:1009A60000000000000000001FFFFFFFFFC606005A
:1009B600000000000000000000020F0F0F0F1D18BE
:1009C600307060C080000000000686FFFFFFFF7FDA
:1009D6000000000000000000000000000000000011
:1009E600000000000000000000010F1F7FFFFFFC59
:1009F600F0E0C0C080000000000000808000000021
:100A06000000008080C0E0F0F8FEFF7F3F0F03008B
:100A160000000000000000000000000000000000D0
:100A260000000000000000000000000000000103BC
:100A3600333F3F1F1F1F1F3F3E3E3E3F3F3E3E3E52
:100A46003E1F1F1F3F3F3707030100000000000045
:100A56000000000000000000000000000000000090
:100A66000000000000000000000000000000000080
:100A76000000000000000000000000000000000070
:100A86000000000000000000000000000000000060
:100A96000000000000000000000000000000000050
:100AA6000000000000000000000000000000000040
:100AB6000000000000000000000000000000000030
:100AC6000000000000000000000000000000000020
:100AD6000000000000000000000000000000000010
:100AE6000000000000000000000000000000000000
:100AF600F8FC0C0C0C0C0C0CFCF800002020202040
:100B0600202020202000000000000000000000003F
:100B160000000000000000000000000000000000CF
:100B260000000000000000000000000000000000BF
:100B3600FFFF0000E0E00000FFFF000040444444E7
:100B4600444444444400000000000000000000004B
:100B5600000000000000000000000000000000008F
:100B6600000000000000000000000000000000007F
:100B7600FFFF0000FFFF0000FFFF0000000C080859
:100B86000808080808000000000000000000000037
:100B9600000000000000000000000000000000004F
:100BA6000000000000000000000000000080C0C03F
:100BB6007F7F0000FFFF00207F7FC0C08101010111
:100BC600010101010100000000000000000000001A
:100BD600000000000000000000000000000000000F
:100BE60000000000000000000070FCFE0701017814
:100BF600FCFEFEFEFFFFFFFEFEFC38010107FEFCC9
:100C060000000000000000000000000000000000DE
:100C160000000000000000000000000000000000CE
:100C26000000000000000000000001070E0C18186C
:100C36003030212121212121303018180C0E0701D6
:100C4600000000000000000000000000000000009E
:100C5600000000000000000000000000000000008E
:100C6600000000000000000000000000000000007E
:100C7600000000000000000000000000000000006E
:100C8600000000000000000000000000000000005E
:100C9600000000000000000000000000000000004E
:100CA600000000000000000000000000000000003E
:100CB600000000000000000000000000000000002E
:100CC600000000000000000000000000000000001E
:100CD600000000000000000000000000000000000E
:100CE60000000000000000000000000000008080FE
:100CF6008000000000FCFCFCFCFCFCFCFCFCFC0096
:100D0600000000808080000000000000000000005D
:100D160000000000000000000000000000000000CD
:100D26000000000000000000000000069FFFFFFF1B
:100D3600FFFFF67878783C3F3F3F3F3F3F3C78786F
:100D460078FEFFFFFFDFFF9F0E000000000000009F
:100D5600000000000000000000000000000000008D
:100D66000000000000000080E0F8FEFF3F0F0703D0
:100D76000101000000000000E0FFFFF0000000009D
:100D86000000000103070F3FFFFEF8F0800000009F
:100D9600000000000000000000000000000000004D
:100DA60000000000000000FFFFFFFF000000000041
:100DB600000000000000007EFFFFFFFF7F00000034
:100DC600000000000000000000EFFFFFFF00000031
:100DD600000000000000000000000000000000000D
:100DE60000000000000000030F3FFFFEF8E0C08097
:100DF60000000000000000000000000000000000ED
:100E06000000000080C0E0F0FEFF7F1F070000002A
:100E160000000000000000000000000000000000CC
:100E260000000000000000000000000103070F0F93
:100E36001F1E3E3C3C787878787878787878783CCD
:100E46003C3E1E1F0F0F07030100000000000000BC
:100E5600000000000000000000000000000000008C
:100E6600000000000000000000000000000000007C
:100E7600000000000000000000000000000000006C
:100E8600000000000000000000000000000000005C
:100E9600000000000000000000000000000000004C
:100EA600000000000000000000000000000000003C
:100EB600000000000000000000000000000000002C
:100EC600000000000000000000000000000000001C
:100ED600000000000000000000000000000000000C
:100EE60000000000000000000000000000000000FC
:100EF600000000000000000000800000000000006C
:100F060000000000000000000000000000000000DB
:100F160000000000000000000000000000000000CB
:100F260000000000000000000000000000808000BB
:100F360038787080CFDFF860606F6060E8DFCF8060
:100F460070783800808080000000000000000000FB
:100F5600000000000000000000000000000000008B
:100F66000000000000000000000000303071630344
:100F7600FBFE1F070181C0E0E0C0E0E0C080010386
:100F86001FFEFB036371303000000000000000000C
:100F9600000000000000000000000000000000004B
:100FA60000000000000000000000000C0CCEC6E0AF
:100FB6006F3FF8E080030FFEF9C1F9FE0F0380E0F2
:100FC600F87F7FE0C6CE8E0C000000000000000017
:100FD600000000000000000000000000000000000B
:100FE60000000000000000000000000000010100F9
:100FF600000000031FFEF8E0EFEFEFE0F0FE1F0336
:1010060000000000010101000000000000000000D7
:1010160000000000000000000000000000000000CA
:1010260000000000000000000000000000000000BA
:101036000000000000011F1F1F1F17070707000001
:10104600000000000000000000000000000000009A
:10105600000000000000000000000000000000008A
:10106600000000000000000000000000000000007A
:10107600000000000000000000000000000000006A
:10108600000000000000000000000000000000005A
:10109600000000000000000000000000000000004A
:1010A600000000000000000000000000000000003A
:1010B600000000000000000000000000000000002A
:1010C600000000000000000000000000000000001A
:1010D600000000000000000000000000000000000A
:1010E60000000000000000000000000000000000FA
:1010F60000000000000000000000000000000000EA
:1011060000000000000000000000000000000000D9
:1011160000000000000000000000000000000000C9
:101126000000000000000000000000060F0FFFFF97
:10113600FF0F8F8F8F8F8F0F0F0F0F0F0F0F0F0F49
:101146000F0F0FFFFFFF0F0F06000000000000004B
:101156000000000000000000000000000000000089
:1011660000000000000000000000000000000F3F2B
:101176007FFCF7F7EFDFBF7FFFFEFEFC7CBCD8E805
:10118600F0F87C7F3F0F0000000000000000000028
:101196000000000000000000000000000000000049
:1011A6000000000000000000000000000000000039
:1011B60080C0E0F1FBFF7F3F00FDFD0C3F7FFFFBA2
:1011C600F1E0C08000000000000000000000000008
:1011D6000000000000000000000000000000000009
:1011E6000000000000000000000000000000FEFFFC
:1011F600FFE7F3F1F8F8FCFCFEFFFFFEFCFCF8F855
:10120600F1E3EFFFFFFC000000000000000000001B
:1012160000000000000000000000000000000000C8
:1012260000000000000000000000001C1C1C1F1F26
:101236001F1F1F1F1F1F1F1F1F1F1F1F1F1F1F1FB8
:101246001F1F1F1F1F1F1C1C08000000000000009E
:101256000000000000000000000000FFFFFFFFFF8D
:10126600FFFFFFFFFFFFFFFFFFFFFFFFFFFFFFFF88
:10127600FFFFFFFFFFFFFFFFFFFFFFFFFFFFFFFF78
:10128600FFFFFFFFFFFFFFFFFFFFFFFFFFFFFFFF68
:10129600FFFFFFFFFFFFFFFFFFFFFFFFFFFFFFFF58
:1012A600FFFFFFFFFFFFFFFFFFFFFFFFFFFFFFFF48
:1012B600FFFFFFFFFFFFFFFFFFFFFFFFFFFFFFFF38
:1012C600FFFFFFFFFFFFFFFFFFFFFFFFFFFFFFFF28
:1012D600FFFFFFFFFFFFFFFFFFFFFFFFFFFFFFFF18
:1012E600FFFFFFFFFFFFFFFFFFFFFFFFFFFFFF7F88
:1012F6000F1F9FDFDFEFEFEFFFFFFFF7FFFFFFFFA0
:10130600FFFFFFFFFFFFFFFFFFFFFFFFFFFFFFFFE7
:10131600FFFFFFFFFFFFFFFFFFFFFFFFFFFFFFFFD7
:10132600FFFFFFFFFFFFFF7F7F1FFF7FC3F0F8FC7C
:10133600FEFFFF01FBFBFBFF7FFFFFFFFFFFF7FB4E
:10134600FDFDFCF803FFFFFFFFFFFFFFFFFFFFFFB1
:10135600FFFFFFFFFFFFFFFFFFFFFFFFFFFFFFFF97
:10136600FFFFFFFFFFFFEFF3B0301F1E0F0FFFF76A
:10137600FFFBFBFFFCFFFFFFFFFFFFFFFFFFFFFC85
:10138600FFFF7F3EDEFEBF3FFFFEDECEE0F0F8FC55
:10139600FFFFFFFFFFFFFFFFFFFFFFFFFFFFFFFF57
:1013A600FFFFFFFFFFF7F3E18183031F7EFEDEFCF5
:1013B600FDFD1DC3FBFFFDFDFDF9F9F8FC0FC1E0C6
:1013C600ECDC3E3F3F7F7F7F7E31071F7FFFFFFFC5
:1013D600FFFFFFFFFFFFFFFFFFFFFFFFFFFFFFFF17
:1013E600FFFFFFFFFFFFFFFFFFFFFFFFF60F8FFF70
:1013F600FF03001F3F3F3F1F8FC7E7F1F8FCFEFFCB
:10140600FFFFFF7F7E3E1E9CCCECF8F8F8F1F7FF5D
:10141600FFFFFFFFFFFFFFFFFFFFFFFFFFFFFFFFD6
:10142600FFFFFFFFFFFFFFFFFFFFFFFFFFFFFFFFC6
:10143600FFE0F0F8FCFCFEFFFBF9F8F8F9F8F8F02D
:10144600F0FCFCFEFEFFFFFFFFFFFFFFFFFFFFFFBD
:10145600FFFFFFFFFFFFFFFFFFFFFF000000000091
:101466000000000000000000000000000000000076
:101476000000000000000000000000000000000066
:101486000000000000000000000000000000000056
:101496000000000000000000000000000000000046
:1014A6000000000000000000000000000000000036
:1014B6000000000000000000000000000000000026
:1014C6000000000000000000000000000000000016
:1014D6000000000000000000000000000000000006
:1014E60000000000000000000000000000000000F6
:1014F600F0F0F0F0C0C0C080808000000000000066
:1015060000000000000000000000000000000000D5
:1015160000000000000000000000000000000000C5
:10152600000000C0C0E0E0E0E0E0E0E0E0E0E0E095
:10153600E0E1E1E0E0E1E1E1E3E3E3E3E7E7E6EE72
:10154600EEECECFCFCF8F8F8F8F8FCFCF8F0E0E05F
:10155600C0C0000000000000000000000000000005
:10156600000000FFFFFFFFFFFFFFFFFF7F3F3F1F62
:101576001F1F1F1F1F3F7FFFFFFFFFFFFFFFFF0F05
:101586000F0F0F0F0F0F0F0F0F0F0F1FFFFFFFFF95
:10159600FFFF000000000000000000000000000047
:1015A600000000FFFFFFFFFFFFFFC7C7C7C7C7C792
:1015B600C7C7C7C7C7C7C7C7C7FFFFFFFFFFFFFC30
:1015C600FCFCFCFCFCFCFCFCFCFCFCFEFFFFFFFF47
:1015D600FFFF000000000000000000000000000007
:1015E600000000FFFFFFFFFFFFFFFFFFFDF9F9F11E
:1015F600F1E1F1F1F1F9F9FDFFFFFFFFFFFFFFFF59
:10160600FFFFFFFFFFFFFFF9F0F1FFFFFFFFFFFF07
:10161600FFFF0000000000000000000000000000C6
:10162600000000030707070707070707070707075D
:101636000707070707070707070707070707070734
:101646000707070707070707070707070707070724
:10165600070300000000000000000000A8C0003FD3
:10166600065B4F666D7D077F6F0008400141487637
:10167600000000BF86DBCFE6EDFD87FFEF777C3904
:101686005E79713D76301E753815373F736B336D55
:10169600313E3E2A76665BB7F9DEEDB0B1B70000A3
:1016A600000000000001000200030004000500061F
:1016B600000700000000000100020003000400050E
:1016C6000006000700013032112507022303C80374
:0316D6000001010F
:103DF100C10BC110C112010F00010900021700001F
:103E010002190000C114C115020C0D99C111C104A0
:103E1100C101C10D010A14010B64C193C108C10E96
:103E2100C10FC109021B00C8021E0190C18AC10055
:0C3E3100C106C107C102C10CC103C105DC
:10556F0012000E12610C1250067F98125EC7126164
:10557F00C178267C007D007BFF7A1679CC7E007F78
:10558F0007123761124D3278267C007D007BFF7A3F
:10559F001679D37E007F061237611260A212630460
:1055AF007F2B1262E512616C7BFF7A4879527F0480
:1055BF0012579C7BFF7A2879317F0212579C7BFF11
:1055CF007A3A794C7F0712579C7BFF7A6279717F09
:1055DF000612579CE4F50EF508F51D125FDB7D07EB
:0D55EF00E4FF1263941263DB125E4F80FB39
:105FDB00752908752AFF752B00752CFB7B80E4FD5A
:105FEB00FF1259D57BFF7A0079567533107D06E485
:085FFB00FF125BEB750E0222A0
:103A4C00E4FF125CC38F267F05125CC38F277F02B5
:103A5C00125CC38F287F04125CC38F297F01125C18
:103A6C00C38F2AE50EB4041AE526B40115B214303E
:103A7C001405E4F517F5187D147C007FE87E03121D
:103A8C005819E50E64056003023B47201103023B05
:103A9C0047E527B4011D30040A7458250DF50D7443
:103AAC0002800A30015C740A250DF50DE4350CF525
:103ABC000C804FE5286401705430041DE50D24A8DA
:103ACC00FFE50C34FDFED3EF9400EE9400402E7411
:103ADC00A8250DF50D74FD801E300126E50D24F68C
:103AEC00FFE50C34FFFED3EF9400EE9400400E740F
:103AFC00F6250DF50D74FF350CF50C8005E4F50C71
:103B0C00F50D7D147C007FE87E03125819E529B46D
:103B1C000112300104C201D2047D147C007FE87EC6
:103B2C0003125819E52AB40112300404C204D2015C
:103B3C007D147C007FE87E03125819E50EB4050A4B
:103B4C00201107E526B40102B20DE50E64066003F0
:103B5C00023C35200803023C35E5276401705030E7
:103B6C000E26AF0AEF3395E0FEEF2401FFE43EFE94
:103B7C00AD0BED3395E0FCC3EF9DEC6480F8EE6487
:103B8C008098505E050A805A300F1DAF0BEF3395AD
:103B9C00E0FEEF2401FFE43EFEC3EF94FFEE6480F1
:103BAC009480503E050B803A300937B2138033E5D0
:103BBC002864017038300E0EE50A14D364809480AA
:103BCC004020150A801C300F14E50B14FFD3E50AB6
:103BDC006480F8EF6480984009150B800530090269
:103BEC00B2137D147C007FE87E03125819E529B4CA
:103BFC000119300E04C20ED209300F04C20FD20EBE
:103C0C007D147C007FE87E03125819E52AB4011953
:103C1C00300E04C20ED20F300904C209D20E7D142C
:103C2C007C007FE87E03125819E50E6407600302DE
:103C3C003D21200003023D21E5276401704530063B
:103C4C001CE51C2401FFE4351BFEC3EF951FEE950C
:103C5C001E507B051CE51C7028051B807130071C51
:103C6C00E51F2401FFE4351EFEC3EF94E7EE940339
:103C7C00505C051FE51F7056051E805230024FB276
:103C8C000A804BE5286401705030061DE51C24FFAA
:103C9C00FFE51B34FFFED3EF9400EE9400402FE5BC
:103CAC001C151C7029151B802530071DE51F24FFD2
:103CBC00FFE51E34FFFED3EF951CEE951B400FE580
:103CCC001F151F7009151E8005300202B20A7D14E3
:103CDC007C007FE87E03125819E529B401193006DF
:103CEC0004C206D202300704C207D2067D147C003F
:103CFC007FE87E03125819E52AB40119300604C274
:103D0C0006D207300204C202D2067D147C007FE882
:103D1C007E03125819E50E64087028E526B40109D3
:103D2C00200506D205D203800FE526B40115300517
:103D3C001230030FC205C2037D147C007FDC7E05AC
:0C3D4C00125819E50E64086003023DF0F7
:103D5800125A3A1238A4F52C85F02B125A3AE92453
:103D680002F9E43AFA1237A9F52D125A3AE924036E
:103D7800F9E43AFA1237A9F52E125A3AE92404F965
:103D8800E43AFA1237A9F52F125A3AE92405F9E468
:103D98003AFA1237A9F530E527B40114300C0A05B0
:103DA8002CE52C7022052B801E30031B052D801757
:103DB800E528B4011D300C0AE52C152C7009152BCB
:103DC8008005300302152D7D147C007FE87E0312E8
:103DD800581978317C007D007B007A00792B7E00B1
:083DE8007F0612376112519CA5
:013DF00022B0
:10485200E4FF125D918F267F01125D918F27E5267D
:10486200B40102D212E50E6044200B0FE526B4011A
:104872000A850E08750E01D20B803E300B3BE526F1
:1048820064017035C3E508648094897D0A7C007FE9
:10489200587E02500C125819E50804F50ED2108009
:1048A20008125819750E03D210C20B800CE50E7057
:1048B20008E526B40103851D0EE50EB40315E527B0
:1048C200B40110C3E5096480948250040509800391
:1048D200E4F509E50EB4041AE527B40115B2153062
:1048E2001505E4F519F51A7D147C007FDC7E0512AE
:1048F2005819E50EB4050F200D0CE527B401072069
:104902001102D201B211E50EB40609E527B4010481
:10491200B208D20EE50EB40709E527B40104B200CD
:10492200D206E50E64087028E527B40109200506C1
:10493200D205D20C800FE527B40115300512300CD8
:104942000FC205C20C7D147C007FDC7E0512581953
:10495200E50E64097042E527B4011E1263E1BF034C
:10496200187BFF7A057914752D03752E4D752FF07E
:104972007DFA7F5A125A96801AE527B4010A126309
:10498200E1BF01047F02800DE527B4010B1263E150
:10499200BF02057F0112602BE50E640960131263EA
:1049A200E1EF640260061263E1BF01057F0312605A
:0149B2002BD9
:0149B30022E1
:10283100301205124414C2123014080518E518703C
:10284100020517301508051AE51A70020519300D31
:1028510008E50D150D7002150CE50D450C7012C241
:102861000D7DC8FC7F787E05125819750C0B750D0E
:10287100B8E50EB40A0040030232E6902883F82836
:1028810028730228A10228B9022907022931022A44
:1028910083022B4F022D62022F590231D70232AA35
:1028A10075310B75320B75330175340D75351E7B22
:1028B100017D0D7F1E0232E33010147BFF7A007917
:1028C100677533107D06E4FF125BEBC210D21275FF
:1028D100312C75323075332275340CAF08EF3395D6
:1028E100E0FEEF25E0FFEE33FE74B82FF58274169B
:1028F1003EF583E4740193F5357B2C7D257F201211
:06290100612CE4FF8027B9
:1029070075310C7532207533307534227535227B5D
:10291700327D2B7F2512612CE526600625E0F52602
:0A2927008003752601AF260263D578
:102931001263C878107C007D007E007F071237612A
:10294100E509146037146061240260030232E6E590
:1029510012C4540FFFE512540FFDE511C4540FF5D5
:1029610031E511540FF53275330CE510C4540FF5F0
:1029710034E510540FF5357B0C0232E3E516C454EF
:102981000FFFE516540FFDE514C4540FF531E5149E
:10299100540FF53275330CE513C4540FF534E513B8
:0929A100540FF5357B0C0232E302
:1029AA00851526E52614B4070040030232E690296D
:1029BA00C675F003A4C58325F0C583730229DB021B
:1029CA0029F3022A0B022A23022A3B022A53022A49
:1029DA006B75313875320A75330A75340C753501E1
:1029EA007B2C7D2B7F2B0232E375310A75320A75F7
:1029FA00330A75340C7535027B397D327F310232E8
:102A0A00E375313A75320A75330A75340C75350334
:102A1A007B227D327F320232E375312F75323B756C
:102A2A00330A75340C7535047B327D257F310232C9
:102A3A00E375310A75320A75330A75340C75350433
:102A4A007B3C7D2F7F230232E375310A75320A758A
:102A5A00330A75340C7535047B3D7D1E7F30023296
:102A6A00E375310A75320A75330A75340C75350403
:092A7A007B3E7D327F300232E325
:102A8300AE17AF187C037DE81238237C007D0A1251
:102A930038238D2DE52D7003752D0AAE17AF187CE5
:102AA300007D641238237C007D0A1238238D2CE5C7
:102AB3002C7003752C0AAE17AF187C007D0A1238F0
:102AC300237C007D0A123823ED2414F52BAE17AFB7
:102AD300187C007D0A1238238D2AAE19AF1A7C03A5
:102AE3007DE81238237C007D0A1238238D29E529DD
:102AF300700375290AAE19AF1A7C007D641238235E
:102B03007C007D0A1238238D28E528700375280A76
:102B1300AE19AF1A7C007D0A1238237C007D0A129D
:102B23003823ED2414F527AE19AF1A7C007D0A1261
:102B330038238D26852A3185293285283385273404
:0C2B4300852635AB2BAD2CAF2D0232E304
:102B4F00050FD3E50F648094835002800C3011037E
:102B5F00022CA2300D03022C02AE0CAF0D7C007DB7
:102B6F000A1238237C007D3C1238237C007D0A1228
:102B7F003823AB07C003AE0CAF0D7C007D0A1238B3
:102B8F00237C007D3C1238237C007D0A123823AB56
:102B9F0005AE0CAF0D7C007D0A1238237C007D3C06
:102BAF001238237E007F0ACFCDCFCECCCE12382362
:102BBF00AA07AE0CAF0D7C007D0A1238237C007D76
:102BCF003C1238237E007F0ACFCDCFCECCCE123829
:102BDF0023ED2414F5348A338B3175320CAE0CAFE0
:102BEF000D7C007D0A1238238D35D0037D0A7F0AB4
:102BFF00022D50200D03022D53AE0CAF0D7C007D26
:102C0F000A1238237C007D3C1238237C007D0A1287
:102C1F003823AB07C003AE0CAF0D7C007D0A123812
:102C2F00237C007D3C1238237C007D0A123823ABB5
:102C3F0005AE0CAF0D7C007D0A1238237C007D3C65
:102C4F001238237E007F0ACFCDCFCECCCE123823C1
:102C5F00AA07AE0CAF0D7C007D0A1238237C007DD5
:102C6F003C1238237E007F0ACFCDCFCECCCE123888
:102C7F0023ED2414F5348A338B3175320CAE0CAF3F
:102C8F000D7C007D0A1238238D35D0037D0A7F2DF0
:102C9F00022D50300462AE0CAF0D7C007D0A12384D
:102CAF00237C007D3C1238237E007F0ACFCDCFCE10
:102CBF00CCCE123823AB07AE0CAF0D7C007D0A12C1
:102CCF0038237C007D3C1238237E007F0ACFCDCF86
:102CDF00CECCCE123823ED2414F5348B3375310A54
:102CEF0075320CAE0CAF0D7C007D0A1238238D357A
:102CFF007B0A7D0A7F208049300149AE0CAF0D7CE5
:102D0F00007D0A1238237C007D3C1238237C007D25
:102D1F000A123823AB07AE0CAF0D7C007D0A1238B8
:102D2F00237C007D3C1238237C007D0A1238238DD2
:102D3F003175320C75330A75340A75350A7D0A7F81
:102D4F002012612CD3E50F6480948550030232E684
:032D5F000232A697
:102D6200120003E92406F9E43AFA1238A4F5278599
:102D7200F02620086DAE26FF7C007D64123823AB5E
:102D820007AE26AF277C007D0A1238237C007D0A1D
:102D92001238238D348B3375310A75320AAE26AF61
:102DA200277C007D0A1238238D357B0C7D047F221F
:102DB20012612C2013030232E6AF0AEF3395E0FED4
:102DC200C3E5279FE5269E5003022FDAAF0BEF33B0
:102DD20095E0FED3E5279FE5269E50030232E602E8
:102DE2002FFB2008030232E6050FD3E50F6480941F
:102DF200835067A213E433FFE50A75F06412378744
:102E0200FE75F00A123787ADF0E50A75F00A12373F
:102E120087FE75F00A123787ABF0E50A75F00A12E1
:102E2200378785F03175320CE50B75F06412378700
:102E3200FE75F00A12378785F033E50B75F00A123A
:102E42003787FE75F00A12378785F034E50B75F087
:102E52000A12378785F035022F47300E41A213E45C
:102E620033FF75310A75320CE50B75F06412378742
:102E7200FE75F00A12378785F033E50B75F00A12FA
:102E82003787FE75F00A12378785F034E50B75F047
:102E92000A12378785F0357B0A7D0A022F47300FE9
:102EA20040A213E433FFE50A75F064123787FE751A
:102EB200F00A123787ADF0E50A75F00A123787FE7D
:102EC20075F00A123787ABF0E50A75F00A123787F8
:102ED20085F03175320C75330A75340A75350A80FE
:102EE20064300964E50A75F064123787FF75F00AE9
:102EF200123787ADF0E50A75F00A123787FF75F0D1
:102F02000A123787ABF0E50A75F00A12378785F0A7
:102F12003175320CE50B75F064123787FF75F00AD4
:102F220012378785F033E50B75F00A123787FF7584
:102F3200F00A12378785F034E50B75F00A123787ED
:102F420085F0357F0A12612CD3E50F648094855099
:072F5200030232E60232A681
:102F5900120003E92404F9E43AFA1238A4F52785A2
:102F6900F026FFAE261254498E288F29300003021D
:102F790030067C007D641238237C007D0A123823D8
:102F8900AB05AE28AF297C007D0A1238237C007D71
:102F99000A123823ED2414F5348B3375310A75324E
:102FA9000AAE28AF297C007D0A1238238D357B0CA7
:102FB9007D057F2212612C200A030232E6AE28AF7A
:102FC900297C007D0A123823C3EF9414EE94005033
:102FD9000A7DC87C007FB07E04801FAE28AF297CA3
:102FE900007D0A123823D3EF9428EE94005003028F
:102FF90032E67DC87C007FD07E0702581920000385
:103009000232E6050FD3E50F648094834003023052
:103019009EAE1BAF1C7C007D641238237C007D0AA8
:10302900123823AA05C002AE1BAF1C7C007D0A1210
:1030390038237C007D0A123823ED2414FBAE1EAF21
:103049001F7C007D641238237C007D0A123823AA74
:1030590005AE1EAF1F7C007D0A1238237C007D0A55
:10306900123823ED2414F5348A33A20AE433FFC05D
:1030790007AE1BAF1C7C007D0A1238238D317532D7
:103089000CAE1EAF1F7C007D0A1238238D35D00788
:10309900D0050231C5300650AE1EAF1F7C007D64DD
:1030A9001238237C007D0A123823AB05AE1EAF1FF0
:1030B9007C007D0A1238237C007D0A123823ED2416
:1030C90014F5348B33A20AE433FFC00775310A754E
:1030D900320CAE1EAF1F7C007D0A1238238D35D00D
:1030E900077B0A7D0A0231C5300751AE1BAF1C7C34
:1030F900007D641238237C007D0A123823AA05AEAC
:103109001BAF1C7C007D0A1238237C007D0A123813
:1031190023ED2414FBA20AE433FFC007AE1BAF1C46
:103129007C007D0A1238238D3175320C75330A758E
:10313900340A75350AAD02D0070231C520020302EF
:1031490031C8AE1BAF1C7C007D641238237C007D26
:103159000A123823AA05C002AE1BAF1C7C007D0AE7
:103169001238237C007D0A123823ED2414FBAE1E8D
:10317900AF1F7C007D641238237C007D0A1238233E
:10318900AA05AE1EAF1F7C007D0A1238237C007D84
:103199000A123823ED2414F5348A33AE1BAF1C7C94
:1031A900007D0A1238238D3175320CAE1EAF1F7C9B
:1031B900007D0A1238238D35D0057F0A12612CD380
:0E31C900E50F6480948550030232E60232A6C0
:1031D700125A3A1238A4F52785F026125A3AE924EA
:1031E70002F9E43AFA1237A9F528AE26AF277C0090
:1031F7007D0A1238238D29AE26AF277C007D0A125F
:1032070038237C007D0A123823ED2414F52AAE26D4
:10321700AF277C007D641238237C007D0A12382397
:103227008D2BE52B7003752B0AE52875F00A84852D
:10323700F02CE52875F00A8475F00A8485F02D05D1
:103247000FD3E50F6480948350028006200C14206E
:10325700031175310A753223852B33852A34852965
:10326700358012300C1575310A75322375330A759E
:10327700340A75350AAB2CAD2D801630031875311D
:103287000A753223852B33852A348529357B0A7DB8
:103297000A7F3212612CD3E50F648094854040E4A5
:0332A700F50F22FE
:1032AA001263E1BF031875310A75320A75330A755C
:1032BA00340A75350A7B0C7D077F2212612C126352
:1032CA00E1BF021875313075322275330A75340A36
:0D32DA0075350A7B327D1E7F2D12612C227E
:10627100E50E6002F51DE4F50E7D0AFC7F587E02F5
:06628100125819D212228E
:10544900AD07AC06E412358AE4FBFA797A7844129E
:1054590034E88F318E308D2F8C2EAB31AA30A92FA5
:10546900A82EE4FFFE7D807C3F1232EAA804A9053C
:10547900AA06AB07AF31AE30AD2FAC2E1234E8120D
:1054890049E87B007AE0797678451234E87B0F7A2F
:10549900CF795B783B1232EEA804A905AA06AB07BF
:1054A900E4FFFE7D807C3F1234E87B337A93798870
:1054B90078C31232EE8F358E348D338C32E4FFFE91
:1054C9007D207C41AB35AA34A933A8321233DF12CF
:0254D90035C3D9
:0154DB0022AE
:10441400125F29E4FF126228E50EB40A0040030289
:1044240046A590442DF828287302444B024479028F
:1044340046A50244A70244EE02453E02457C0245DD
:10444400DE02463F02467D7BFF7A007973753310A6
:10445400E4FDFF125BEB7B1D7D037F40125C347B2C
:104464001E7D037F50125C347B1F7D037F60125CD2
:10447400347B20806E7BFF7A007984753310E4FDF1
:10448400FF125BEB7B217D037F40125C347B227D3A
:10449400037F50125C347B237D037F60125C347B8A
:1044A4002480407531407532FF7533087534617B63
:1044B40040E4FDFF1259087BFF7A007973753310CD
:1044C400E4FDFF125BEBE4FB7D037F40125C347B75
:1044D400017D037F50125C347B027D037F60125C9C
:1044E400347B037D037F7002467A7531407532FF59
:1044F40075330C7534617B40E4FDFF1259087BFF72
:104504007A007995753310E4FDFF125BEB7B047D33
:10451400037F40125C347B057D037F50125C347B47
:10452400067D037F60125C347B077D057F40125C4F
:10453400347B087D057F5002467A7531407532FF21
:104544007533107534617B40E4FDFF1259087BFF1D
:104554007A0079A6753310E4FDFF125BEB7B097DCD
:10456400037F40125C347B0A7D037F50125C347BF2
:104574000B7D037F6002467A7531407532FF7533D7
:104584000E7534617B40E4FDFF1259087BFF7A000D
:1045940079B7753310E4FDFF125BEB7B0C7D037F71
:1045A40040125C347B0D7D037F50125C347B0E7DA6
:1045B400037F60125C347B0F7D037F70125C347B5D
:1045C400107D057F40125C347B117D057F50125CA9
:1045D400347B127D057F6002467A7531407532FF67
:1045E40075330A7534617B40E4FDFF1259087BFF83
:1045F4007A0079C8753310E4FDFF125BEB7B137D01
:10460400037F40125C347B147D037F50125C347B47
:10461400157D037F60125C347B167D037F70125C12
:10462400347B177D057F40125C347B187D057F50F9
:10463400125C347B197D057F60803B753140753297
:10464400FF7533147534617B40E4FDFF1259087B18
:10465400FF7A0079D9753310E4FDFF125BEB7B1A06
:104664007D037F40125C347B1B7D037F50125C34DE
:104674007B1C7D037F60025C347F011262287531EC
:10468400407532FF7533127534617B40E4FDFF12CF
:1046940059087BFF7A0079EA753310E4FDFF125B59
:0246A400EB2207
:09638B008B88898C88898F888930
:103E3D0052027A86860086860086860086860086F1
:093E4D00860086860041026F091F
:03002B000263CF9E
:0663CF0053BCEFD22532A1
:0246A600156B92
:1046A80020250302484FC22590026EE0B40900405D
:1046B800030248319046C3F828287302470A024685
:1046C800DE0246F002471C0246DE0246F00247338D
:1046D8000246DE0246F0AFBDEFFEADBE7C00E42D23
:1046E800FFEC3E900270803CAFBDEFFEADBE7C009B
:1046F800E42DFFEC3E900272F0A3EFF07561010229
:104708004837AFBDEFFEADBE7C00E42DFFEC3E9018
:1047180002748010AFBDEFFEADBE7C00E42DFFEC4F
:104728003E900276F0A3EFF0024837AFBDEFFEAD42
:10473800BE7C00E42DFFEC3E900278F0A3EFF090F1
:104748000278E0FEA3E07807CEC313CE13D8F9A809
:104758006BF6C394065013A86BE675F003A4247A8D
:10476800F582E43402F583E014F090026FE014F06F
:1047780060030248377409F0A86BE4F6A86BE6FFFB
:10478800C394064003024837EF75F003A4247AF572
:1047980082E43402F583E0C39480502AE6FF75F082
:1047A80003A4247BF582E43402F583E0D3948040AB
:1047B80040EF75F003A4247CF582E43402F5837499
:1047C80001F0F562802BA86BE6FF75F003A4247B4B
:1047D800F582E43402F583E0C394805014EF75F059
:1047E80003A4247CF582E43402F5837402F0756234
:1047F80001A86BE6FF75F003A4247AF582E434027D
:10480800F583E0FEEF75F003A4247BF582E434021F
:10481800F583EEF0E675F003A4247AF582E4340219
:10482800F5837486F00602478490026E74FFF09058
:10483800026EE0D39407400374FFF090026EE00428
:07484800F090638B93F5BCB7
:03484F00056B22D4
:02633100156BEA
:09633300A86BA662E4F562E6FF26
:03633C00056B22CC
:02633F00156BDC
:09634100A86BA661E4F561E6FF1A
:03634A00056B22BE
:105EC7008F9D75BC88439720D2AD90024574FFF033
:105ED700A37446F0A374A6F0A374FFF0A37463F051
:105EE700A37431F0A374FFF0A37463F0A3743FF0BD
:015EF7002288
:070003007B017A02797022F3
:105CC300C3EF64809480403BD3EF6480948550336A
:105CD300EFFD3395E0FC90027C75F003ED123A3A48
:105CE300EC75F003A42583F583E0FE90027C75F048
:105CF30003ED123A3AEC75F003A42583F583E4F03F
:055D0300AF06227F0342
:015D08002278
:04600300156B156B99
:1060070012639DA86BA60608A607A86BE6FE08E61E
:0F601700FF4E600BEF24FFFFEE34FFFE1263A677
:05602600056B056B2273
:10610C0053B1EF43B2101263EAE4F5D975DA49D210
:10611C00DE90023F74FFF0A37460F0A37403F022CE
:085819008E318F328C338D3487
:1058210012639DEF4E7066AF34AE331263A6C3E5CB
:1058310032940AE5319400404BE47B18FAF9F89070
:105841001661123A0E12395AC006C007AE31AF3294
:10585100AB07AA06E4F9F8D007D00612395AAB070C
:10586100AA06AFF9EFFEADE97C00E42DFFEC3ECFD7
:105871002BCF3AAD07FCAF03AE021262D4D2D843AC
:0F588100DA0180061263EA53DAFE7F02227F0308
:0158900022F5
:0C63690012639DEF4E7002FF227F0122A4
:104F1D00E4F5809002A7E0FFB40800505F904F3198
:104F2D00F8282873024F49024F4F024F55024F5B2D
:104F3D00024F61024F6B024F75024F7FC2A3C2A297
:104F4D008016C2A3C2A2801AC2A3C2A2801EC2A38F
:104F5D00C2A28022C2A3D2A2C2A1C2A08020C2A39B
:104F6D00D2A2C2A1D2A08016C2A3D2A2D2A1C2A0A7
:104F7D00800CC2A3D2A2D2A1D2A08002D2A3C3EF31
:104F8D006480948850299002A7E0FF3395E0FE7469
:104F9D009E2FF58274023EF583E0FF3395E0FE749B
:104FAD00652FF58274163EF583E493F580801E908F
:104FBD0002A7E0FFB408133395E0FE749E2FF5822F
:104FCD0074023EF583E0F5808003E4F58090029D48
:104FDD00E0FF9002A7E004FEF0D3EF6480F8EE64EA
:104FED0080984014E0D36480948850047408F022B3
:094FFD0090029CE09002A7F02252
:1061C100E4F5937594FF5395F043960F90022A746A
:0B61D100FFF0A3744FF0A3741DF02238
:0963940090029CEFF0A3EDF02251
:10612C0090029EEFF0A3EDF0A3EBF0A3E531F0A30A
:10613C00E532F0A3E533F0A3E534F0A3E535F02226
:0663D5009002A6EFF02289
:103E56000167004902A99494009494009494004147
:033E660002A81E91
:024C0F00156B23
:104C110020B2069002A9E014F020B3069002ACE0A5
:104C210014F02097069002AFE014F09002A8E0146F
:104C3100F06003024D2F741EF0A86BE4F6A86BE63A
:104C4100FFC3648094834003024D2FEF3395E0FE50
:104C51009002A975F003EF123A3AEE75F003A4251C
:104C610083F583E0C3948050399002AA75F003EF75
:104C7100123A3AEE75F003A42583F583E0D39480CC
:104C8100405AE6FF3395E0FE9002AB75F003EF1258
:104C91003A3AEE75F003A42583F5837401F0F567C4
:104CA100803AA86BE6FF3395E0FE9002AA75F00307
:104CB100EF123A3AEE75F003A42583F583E0C3942D
:104CC1008050199002AB75F003EF123A3AEE75F08D
:104CD10003A42583F5837402F0756701A86BE6FFD1
:104CE100FD3395E0FC9002A975F003ED123A3AEC20
:104CF10075F003A42583F583E0FE9002AA75F00305
:104D0100ED123A3AEC75F003A42583F583EEF0EF4A
:104D11003395E0FE9002A975F003EF123A3AEE7571
:0E4D2100F003A42583F5837494F006024C3E43
:034D2F00056B22EF
:02634D00156BCE
:09634F00A86BA667E4F567E6FF00
:03635800056B22B0
:10000E0090023074FFF0A37463F0A3744DF090026D
:0D001E002D74FFF0A3744CF0A3740FF022BA
:105D9100EF600764016003BF0233EFFD3395E0FC60
:105DA1009002AB75F003ED123A3AEC75F003A425BD
:105DB10083F583E0FE9002AB75F003ED123A3AEC05
:0F5DC10075F003A42583F583E4F0AF06227F037A
:015DD00022B0
:103E69004102000A4102290A41026D0A0445000083
:103E79000000014B004602670000FFFF8FFFC123CE
:103E8900C11BC11EC117C12460240205FF000AFF1E
:103E9900000AFF000AFF000AFF000AFF000AFF00EC
:103EA9000AFF000AFF000AFF000AFF000AFF000AD2
:103EB9006036022AFF000AFF000AFF63E7FF000AD3
:103EC900FF63E7FF000AFF63E7FF000AFF000AFF3D
:103ED900000AFF63E7FF63E7FF63E7FF63E7FF00AC
:0A3EE9000AFF000AFF000AFF000AAA
:01000A0022D3
:0363E7007F002212
:105C7C00438E805389F07BE07A2879017800901666
:105C8C0061123A0E125D4DEFF404F58A7BE07A282E
:105C9C0079017800901661123A0E125D4DC3E49FA3
:105CAC00FFE49EFE74019DFDE49CFC78081239FA19
:075CBC008F8CD28CD2A922CB
:03000B00025B99FC
:045B9900C0E0C0D0D8
:105B9D00D53F0A753F4C302302054BD223A2197213
:105BAD001A50361541E5417030854341D21D3020E4
:105BBD0017E54460071544438F01801D538FFEC2C6
:105BCD00B5D54D15C22080110542E542D39406404E
:095BDD0008C219E54A6002D21C5D
:055BE600D0D0D0E03238
:105B4600302447C224901661123A0E78101239FAA0
:105B56008E638F64900203E0FEA3E0FFE4FCFD7B0E
:105B660019FAF9F81238CFC006C007AE63AF64ABB6
:105B760007AA06E4F9F8D007D006125D4D7803129D
:105B860039FA900265EEF0A3EFF0900265E0FEA30D
:025B9600E0FF2E
:015B980022EA
:09639D00900267E0FEA3E0FF227C
:0963A600900267EEF0A3EFF02273
:1062D40090026BEEF0A3EFF0900269ECF0A3EDF006
:0162E4002297
:0363EA00C2B42218
:03003B000252FC72
:1052FC00C0E0C083C082C0D075D000C004C005C05F
:03530C0006C007D1
:10530F0030DF04C2DF807D30DA04C2DA807630D934
:10531F003DC2D9AFFBEFFEADEB7C00E42DFFEC3EC1
:10532F0020160E900201F0A3EFF075DB11D216805C
:10533F0053FE900201E0FCA3E0FDC3EF9DFFEE9C46
:10534F00A3F0A3EFF075DB00C216D224803630D85D
:10535F0033C2D8900267E07002A3E06022B2B4902B
:10536F000269E0FEA3E0F5EAEEF5FAA3E0FEA3E0A2
:10537F00FF90026AE02FF0900269E03EF08005C2D4
:04538F00B453DAFE3B
:10539300D007D006D005D004D0D0D082D083D0E0BF
:0153A30032D7
:0663DB00125C7CD2AF222F
:10568800301A047F0180027F002020047E018002FE
:105698007E00EE5F6074E54CC39540506830183664
:1056A800754401E54C131313541FAB4EAA4FA95070
:1056B800F5827583001237C2FFE54C540704FEEFEC
:1056C800A806088002C333D8FC30D705754D03807F
:1056D8002F754D01802AAB4EAA4FA95075F002E5EF
:1056E8004CA4F58285F0831237C2F544E54C75F079
:1056F80002A429F9EA35F0FA9000011237C2F54DF3
:0A570800054CD22022C21A438F1074
:015712002274
:104E3000900200E014F0701F740AF0D21B90022957
:104E4000E014F07012740AF0D21E90026DE014F0BB
:104E50007005740AF0D21790022AA3E0FAA3E0F9D1
:104E6000123A4690022DA3E0FAA3E0F9123A4690D6
:104E70000239A3E0FAA3E0F9123A46900245A3E012
:104E8000FAA3E0F9123A46900254A3E0FAA3E0F93B
:104E9000123A4690025DA3E0FAA3E0F9123A469076
:104EA000024BA3E0FAA3E0F9123A46EF600C90023D
:104EB0001DA3E0FAA3E0F9123A4690024EA3E0FAED
:104EC000A3E0F9123A46EF600E900220A3E0FAA3A5
:104ED000E0F9123A46D221E549D394004016D5496B
:104EE00030301F0C900223A3E0FAA3E0F9123A46F7
:104EF000D222801D900251A3E0FAA3E0F9123A46B3
:104F0000EF600E900223A3E0FAA3E0F9123A46D232
:0D4F100022900205A3E0FAA3E0F9023A4660
:1054DC0090023FA3E0FAA3E0F9123A46900242A3ED
:1054EC00E0FAA3E0F9123A46900233A3E0FAA3E003
:1054FC00F9123A46900208A3E0FAA3E0F9123A46F0
:10550C00900230A3E0FAA3E0F9123A46EF600C9057
:10551C000211A3E0FAA3E0F9123A46900236A3E096
:10552C00FAA3E0F9123A46EF600C900217A3E0FAE6
:10553C00A3E0F9123A46900248A3E0FAA3E0F9126C
:10554C003A46EF600C90021AA3E0FAA3E0F9123A83
:10555C0046301C0EC21C900226A3E0FAA3E0F912FE
:03556C003A46229A
:105DD10090020BA3E0FAA3E0F9123A4690023CA329
:105DE100E0FAA3E0F9123A46EF600C900214A3E046
:105DF100FAA3E0F9123A46900257A3E0FAA3E0F9B8
:0F5E0100123A4690025AA3E0FAA3E0F9023A4699
:105F8700AF48AE47AD46AC45900260123A2E90023C
:105F970064E54BF0E4F548F547F546F545F54B90D4
:0B5FA700020EA3E0FAA3E0F9023A4664
:105E4F00301D05C21D125688302305C223124E3055
:105E5F00301B05C21B1254DC301E05C21E125DD151
:105E6F00301705C217125F87E5482401F548E4355E
:0E5E7F0047F547E43546F546E43545F545223E
:10579C008B268A278928EFB40C0050709057AFF8ED
:1057AC002828730257D30257D80257DD0257E2025A
:1057BC0057E70257EC0257F10257F60257FB025813
:1057CC000002580502580A900205803590020880A4
:1057DC003090020B802B90020E80269002118021BB
:1057EC00900217801C900214801790021A8012905D
:1057FC00021D800D900220800890022380039002ED
:0D580C0026E526F0A3E527F0A3E528F0220D
:0763C1007B017A02796022E2
:073EF3000168004102C40058
:0D002E0020A4097568019002C47401F0223D
:02635B00156BC0
:09635D00A86BA668E4F568E6FFF0
:03636600056B22A2
:10616C0090023C74FFF0A37463F0A3745BF0900294
:0D617C003974FFF0A37400F0A3742EF0221C
:0262F500156B27
:0A62F7009002C4E0A86BF6FFE4F08B
:03630100056B2207
:104AE90000C400DC00F701060126014A01720188B1
:104AF90001B801EE020B024B029302E403100370AA
:104B090003DC04160497052605C800DC00F7011527
:104B19000126014A0172019F01B801EE022A024BE6
:104B2900029302E4033F037003DC0455049705264E
:104B390005C8067D00F701150137014A0172019F79
:104B490001D201EE022A026E029302E4033F03A49A
:104B590003DC045504DD057505C8067D0749010612
:104B69000126014A015D018801B801EE020B024BE1
:104B7900029302BA0310037003DC04160497052696
:104B89000575062006E007B80126014A0172018869
:104B990001B801EE022A024B029302E403100370EA
:104BA90003DC04550497052605C8062006E007B866
:104BB90008AA014A0172019F01B801EE022A026E98
:104BC900029302E4033F037003DC045504DD052668
:104BD90005C8067D06E007B808AA09B9015D01887C
:104BE90001B801D2020B024B029302BA03100370FF
:104BF90003A40416049705260575062006E007494F
:064C0900082D092D0A4DE3
:103EFA004D028F03000000000000000000000000D7
:065252008F268D278B283A
:10525800126369EF60037F0122E528D394004006BA
:10526800E52894114028E528D394174006E52894AA
:1052780021401BE528D394274006E5289431400EA9
:10528800E528D394375007E526C394F950037F03E4
:1052980022E528603DC4540F75F007A4FDACF0E585
:1052A8002675F015A42DFFE5F03CFEE52854077C93
:1052B800002FFFEC3EFEEF25E0FFEE33FE74FF2FDC
:1052C800F58274213EF583E493F52A740193F52B56
:1052D8008005E4F52AF52BAF297E007C017D771245
:1052E8003811AD271C123823AD07AC06AF2BAE2AF8
:0352F80012581930
:0152FB002290
:04411E00156B156B9D
:10412200126369EF70047F0180027F0090028FE0CA
:10413200FEB402047D0180027D00ED5F6003024453
:104142000FEEB4030AE490028DF0A3F002440F9044
:104152000290E0FFB4F3047E0180027E00EFB4F12E
:10416200047F0180027F00EF4E603E900292E0FEEB
:1041720075F06484FFEE75F00A8475F00A84ADF080
:10418200E075F00A84ABF075310A900291E02407E1
:10419200F53290028CE0FEC4540F240AF5337534D4
:1041A2000AEE5407F53512612C900290E0FFB4F349
:1041B200047E0180027E00EFB4F2047F0180027F60
:1041C20000EF4E7003024268900292E0FD7C007E96
:1041D200177F70123823A86BA607E6F975F002A4C0
:1041E200FFC390029BE09F90029AE095F05070E02E
:1041F200FEA3E0FF7C007D0B123811E9FBFD1238B3
:1042020023A86B08A60790029AE475F00112388E73
:10421200FED3E5F09BEE94004018A86B08E624F963
:10422200FFE47EF0A807088005CEC313CE13D8F9A9
:10423200801FA86B08E6FF740F7E00A807088005A0
:10424200C333CE33CED8F97804CEA2E713CE13D837
:10425200F8A86B08F6A86B08E6FF1263D58007E49E
:1042620090029AF0A3F0900296E0FEA3E0FFC390C2
:104272000299E09F900298E09E4003024409126373
:1042820069EF600302440F900293E0FBA3E0FAA3FC
:10429200E0F9900298E0FEA3E0F5828E831237C225
:1042A200FFD3943750030243A4EF241024FC507927
:1042B200604524FE700302434F14700302436524D9
:1042C200026003024393900293E0FBA3E0FAA3E0AF
:1042D200F9900298E475F00112387885F082F5833E
:1042E2001237C2900291F0900299E004F070989017
:1042F2000298E004F08090900293E0FBA3E0FAA31E
:10430200E0F9900298E475F00112387885F082F5B0
:10431200831237C2900292F0900299E004F0706E1C
:10432200900298E004F0024289900293E0FBA3E03D
:10433200FAA3E0F9900298E475F00112388E85F044
:1043420082F5831237C2900290F00242899002985D
:10435200E475F001123878AFF090028DF0A3EFF01F
:1043620002428990028DE0FEA3E0FF4E60129002AD
:1043720098EEF0A3EFF0E490028DF0A3F0024289F0
:10438200900299E004F07006900298E004F0024274
:1043920089900299E004F07006900298E004F0021D
:1043A2004289900296E0FEA3E0FFC3900299E09F4B
:1043B200900298E09E5056900293E0FBA3E0FAA38D
:1043C200E0F9900298E475F00112388E85F082F5DA
:1043D200831237C290028CF0900291E0FFA3E0FDBD
:1043E200A3E0FBA3E0FAA3E0F9900298E475F001E0
:1043F20012388E85F082F5831237C2F52990028C2D
:0D440200E0FB125252800690028F7403F00E
:05440F00056B056B22A6
:0F63040090024274FFF0A37441F0A3741EF022C4
:105A960090028FE0B4030DE4900298F0A3F0A3F017
:105AA600A3F0C226EF6004900292F0ED600490022B
:105AB60091F0E94A60047F0180027F00E52E452DC2
:105AC60060047E0180027E00EE5F6013900293EB1D
:105AD600F0A3EAF0A3E9F0A3E52DF0A3E52EF0E5A7
:085AE6002F6004900290F022F1
:10602B00BF02047E0180027E00BF01047D0180025D
:10603B007D00ED4EFEBF03047D0180027D00ED4E21
:08604B00600590028FEFF022C6
:0663E10090028FE0FF2294
:043F0A004102BA01B5
:1061F600C295E4FEEF1392CC000000D29500EFC3E7
:0862060013FFC2950EBE08EC67
:01620E00226D
:10624100E4FEEFC313FF30CC03430780D295000077
:0762510000C2950EBE08EB30
:016258002223
:105F5900F07F85125F6CA3EFF07F87125F6CA3EF70
:035F6900F07F893D
:105F6C00C296000000C295000000D296001261F6A5
:0A5F7C00126241D295000000C296A7
:015F860022F8
:03614C00A3E0FDD0
:10614F00C296000000C295000000D296001261F6C0
:0D615F00AF051261F6D295000000C2962235
:0763C8007B017A0279B32288
:10620F0078B37C027D017B007A00792D7E007F07B9
:09621F00123761E49002BAF0228A
:1062C200EFD3941F5009EF25E044C1FF025F6C7FBA
:0262D2000122A7
:105FB200AC07AB05ECD3941F501CE4FD7F8E12613D
:105FC2004FEC25E044C0FFAD0312614F7D807F8E10
:095FD20012614F7F00227F0122C1
:0253A400156B87
:1053A6009002BAE060447F81125F6CA86BEFF690C2
:1053B60002B3E06F7003025446A86BE6F07F8312D7
:1053C6005F6CA86BEFF6A3E06F6075A86BE6125FE3
:1053D60059A3EFF07F8D125F6C9002B9EFF07F8BCF
:1053E600125F6C9002B8EFF080569002B2E0FF04B4
:1053F600F0EFC3940A4049E4F09002BA04F0E4FDE9
:105406007F8E12614F9002B3E0FD7F8012614F7F65
:105416008212614C7F8412614CA3E0FD7F8612618B
:105426004FA3E0FD7F8812614FA3E0FD7F8A1261E2
:105436004FA3E0FD7F8C12614F7D807F8E12614FFE
:03544600056B22D1
:104D32007F81125F6C9002B3EFF07F83125F6CA3EE
:104D4200EF125F59A3EFF07F8B125F6CA3EFF07F3E
:104D52008D125F6CA3EFF0E4FD7F8E12614F7F1E18
:104D62001262C2EF64A560047F0180027F0090029C
:104D7200B3E05480FEA3E0D3945940047D01800245
:104D82007D00ED4EFE9002B5E0D394A440047D0177
:104D920080027D00ED4EFE9002B6E0D394314004D5
:104DA2007D0180027D00ED4EFE9002B7E0D39412A9
:104DB20040047D0180027D00ED4EFE9002B8E0D3FA
:104DC200940740047D0180027D00ED4EFE9002B901
:104DD200E0D3949940047D0180027D00ED4E4F6046
:104DE20030782D7C007D007B007A0079267E007F62
:104DF2000712376112620F7DA57F1E125FB278B370
:104E02007C027D017B007A0079267E007F071237C3
:104E1200617DA97F9012614F7D807F8E12614F90DC
:0E4E2200025A74FFF0A37453F0A374A4F0229C
:0B3F0E004802BBD4111A50400288A5E5
:09629C007F031262A5D2C57F0345
:0A62A500AE071FEE60030080F72231
:1062AF00D2A712629CC2A77F031262A5C2C57F0349
:0362BF000262A5D3
:0C637500C2A712629CD2A77F030262A59F
:10618900E4FFD2C530A709EFC394FA50030F80F496
:0C6199007F031262A5C2C57F030262A54D
:02605300AD0797
:10605500E4FBC2C57F031262A5ED3392A7ED25E0EF
:10606500FD12629C0BBB08EAC2C57F031262A5D272
:06607500C57F030262A5D5
:025D0900156B18
:105D0B009002C3E0640170371262AF7F20126053C0
:105D1B00126189A86BE4F6A86BE6FFC394085017D1
:105D2B0074BB2FF582E43402F583E0FF126053124B
:0F5D3B006189A86B0680E0126375E49002C3F0E3
:035D4A00056B22C4
:105A3A009002BDE025E025E0FFA3E0C41313540360
:105A4A002F2466F538E43403F5379002C2E0540F88
:105A5A00F5399002C0E0543FFF5403FEBE030575BA
:105A6A003AFF8003E4F53AEF540CFEBE0C05753B91
:105A7A00FF8003E4F53BEF5430FFBF3005753CFF70
:0B5A8A008003E4F53C7B007A007937D4
:015A950022EE
:10519C00D3E5329438E531940450047F0180027FCA
:1051AC0000C3E5329466E531940340047E0180022D
:1051BC007E00EE5F6030125A3A1238A465327004E9
:1051CC00E5F065316020E532249AFD1313543F90CD
:1051DC0002BDF0ED5403FFC4333354C04410A3F0AC
:1051EC009002C37401F0125A3AE92402F9E43AFA33
:1051FC001237A9653360047F0180027F00E533D349
:10520C00940F50047E0180027E00EE5F6011E53346
:10521C00540FFF9002C2E054F04FF0A37401F07DE4
:10522C002AE5346003430501E5356003430504E5D5
:10523C003660034305109002C0E06D6008EDF090FD
:05524C0002C37401F033
:01525100223A
:1060A20078317C007D007B007A0079267E007F06B5
:1060B20012376112519C90025774FFF0A3745DF085
:0560C200A37409F022A7
:1062E50053B1DF43B220C2B5C2208F43438F102282
:03005300025891BF
:10589100C0E0C083C082C0D075D000C000C001C0CC
:0358A10002C0033F
:1058A400201913D219755C08754A00755B00E5432D
:1058B400C313F541803AE542C394014031E55B25C9
:1058C400E0F55BE542C394034002055BD55C21E54A
:1058D4004AC3955D501A755C08AB5EAA5FA96085E2
:1058E4004A82758300E55B1237EF054A8002C219CC
:0358F400754200FA
:1058F700D003D002D001D000D0D0D082D083D0E066
:01590700326D
:0963AF008B5E8A5F89608D5D221E
:0363ED00AF4A2292
:105EF8002019047F0180027F002020047E01800297
:105F08007E00EE5F60188B4E8A4F8950EDC313F503
:105F180040C218E4F54C538FEFD21A7F02227F0358
:015F28002256
:105E10002019047F0180027F002020047E0180027F
:105E20007E00EE5F6026538FEF754410754D08D2EB
:105E300020438F018B4E8A4F8950ED75F008A404E2
:0F5E4000F540D218E4F54CD21A7F02227F0322DC
:1061A5002019047F0180027F002020047E018002E7
:0C61B5007E00EE5F60037F00227F01226D
:1016D9000000000000000000002F000000000700CB
:1016E900070000147F147F1400242A7F2A12006245
:1016F90064081323003649552250000005030000F1
:1017090000001C224100000041221C000014083E78
:1017190008140008083E0808000000A0600000083E
:101729000808080800006060000000201008040292
:10173900003E5149453E0000427F40000042615150
:101749004946002141454B31001814127F100027EA
:1017590045454539003C4A494930000171090503AD
:1017690000364949493600064949291E00003636DE
:101779000000000056360000000814224100001441
:10178900141414140000412214080002015109061E
:1017990000324959513E007C1211127C007F49499F
:1017A9004936003E41414122007F4141221C007FD0
:1017B90049494941007F09090901003E4149497ADE
:1017C900007F0808087F0000417F41000020404158
:1017D9003F01007F08142241007F40404040007FC4
:1017E900020C027F007F0408107F003E4141413E08
:1017F900007F09090906003E4151215E007F091950
:1018090029460046494949310001017F0101003F4C
:101819004040403F001F2040201F003F4038403FCC
:101829000063140814630007087008070061514930
:10183900454300007F41410000552A552A550000C3
:1018490041417F0000040201020400404040404041
:10185900000001020400002054545478007F4844D9
:10186900443800384444442000384444487F003810
:101879005454541800087E0901020018A4A4A47C39
:10188900007F080404780000447D40000040808403
:101899007D00007F102844000000417F4000007C4B
:1018A90004180478007C0804047800384444443857
:1018B90000FC242424180018242418FC007C0804A3
:1018C900040800485454542000043F444020003C7C
:1018D9004040207C001C2040201C003C4030403C03
:1018E900004428102844001CA0A0A07C0044645493
:1018F9004C441414141414140000000000000000D7
:101909000000000000000000000000F800000000D6
:10191900000000333000000000100C06100C060017
:10192900000000000000000040C07840C07840007E
:10193900043F04043F040400007088FC08300000E0
:10194900001820FF211E0000F008F000E018000038
:1019590000211C031E211E0000F0088870000000F1
:101969001E2123241927211010160E000000000043
:101979000000000000000000000000E01804020060
:10198900000000071820400000020418E0000000D1
:101999000040201807000000404080F080404000CF
:1019A9000202010F01020200000000F00000000025
:1019B9000101011F010101000000000000000000F9
:1019C90080B070000000000000000000000000006E
:1019D90000010101010101010000000000000000F7
:1019E9000030300000000000000000008060180492
:1019F900006018060100000000E010080810E0006F
:101A0900000F102020100F00001010F80000000037
:101A19000020203F2020000000700808088870007E
:101A290000302824222130000030088888483000FE
:101A39000018202020110E000000C02010F800001E
:101A490000070424243F240000F8088888080800B7
:101A59000019212020110E0000E0108888180000CC
:101A6900000F112020110E0000380808C83808009E
:101A79000000003F0000000000708808088870001E
:101A8900001C222121221C0000E010080810E0009F
:101A99000000312222110F00000000C0C000000028
:101AA900000000303000000000000080000000004D
:101AB9000000806000000000000080402010080045
:101AC900000102040810200040404040404040000E
:101AD90004040404040404000008102040800000E9
:101AE9000020100804020100007048080808F000EE
:101AF9000000003036010000C030C828E810E000BE
:101B09000718272423140B000000C038E000000048
:101B1900203C23020227382008F8888888700000B2
:101B2900203F202020110E00C03008080808380086
:101B3900071820202010080008F808080810E000FD
:101B4900203F202020100F0008F88888E80810009E
:101B5900203F20202320180008F88888E808100072
:101B6900203F200003000000C030080808380000AA
:101B790007182020221E020008F808000008F808AB
:101B8900203F210101213F20000808F80808000032
:101B99000020203F2020000000000808F808080065
:101BA900C08080807F00000008F888C028180800DD
:101BB900203F20012638200008F808000000000016
:101BC900203F20202020300008F8F800F8F808000D
:101BD900203F003F003F200008F830C00008F80807
:101BE900203F200007183F00E01008080810E00017
:101BF9000F10202020100F0008F808080808F0002E
:101C0900203F210101010000E01008080810E00050
:101C19000F18242438504F0008F8888888887000E5
:101C2900203F2000030C3020007088080808380085
:101C39000038202121221C00180808F8080818007B
:101C49000000203F2000000008F808000008F808FC
:101C5900001F202020201F000878880000C83808AD
:101C6900000007380E010000F80800F80008F80025
:101C7900033C0700073C03000818688080681808BF
:101C890020302C03032C30200838C800C83808003D
:101C99000000203F2000000010080808C83808008C
:101CA9002038262120201800000000FE0202020030
:101CB9000000007F40404000000C30C000000000E0
:101CC900000000010638C00000020202FE00000008
:101CD900004040407F0000000000040202020400AE
:101CE90000000000000000000000000000000000EB
:101CF90080808080808080800002020400000000D3
:101D090000000000000000000000808080800000CA
:101D19000019242222223F2008F8008080000000B8
:101D2900003F112020110E0000000080808000007B
:101D3900000E112020201100000000808088F8008A
:101D4900000E112020103F200000808080800000BC
:101D5900001F222222221300008080F08888881820
:101D69000020203F2020000000008080808080002B
:101D7900006B94949493600008F8008080800000C0
:101D8900203F210000203F2000809898000000009B
:101D99000020203F202000000000008098980000CB
:101DA90000C08080807F000008F8000080808000EB
:101DB900203F24022D302000000808F80000000010
:101DC9000020203F202000008080808080808000CB
:101DD900203F20003F20003F80800080808000005D
:101DE900203F210000203F200000808080800000EB
:101DF900001F202020201F0080800080800000001C
:101E090080FFA12020110E0000000080808080004A
:101E1900000E112020A0FF8080808000808080003B
:101E290020203F2120000100000080808080800068
:101E39000033242424241900008080E080800000DD
:101E49000000001F2020000080800000008080002A
:101E5900001F202020103F2080808000008080808B
:101E690000010E300806010080800080008080801B
:101E79000F300C030C300F00008080008080800040
:101E89000020312E0E31200080808000008080806B
:101E990080818E701806010000808080808080001B
:101EA9000021302C2221300000000000807C020239
:101EB90000000000003F404000000000FF0000005B
:101EC90000000000FF0000000002027C800000000A
:101ED9000040403F00000000000601010202040426
:101EE9000000000000000000100C048414640506C2
:101EF900F404040404140C000000000000000000B5
:101F09000000000000000000048484444724140CED
:101F1900070C1424448404000000000000000000A1
:101F2900000000000000000000FC848484FC001014
:101F390010101010FF101000000000000000000039
:101F49000000000000000000003F1010103F0000DA
:101F5900010640807F000000000000000000000032
:101F6900000000000000000000FC848484FC0010D4
:101F790010101010FF1010000000000000000000F9
:101F89000000000000000000003F1010103F00009A
:101F9900010640807F0000000000000000000000F2
:101FA900000000000000000020102CE7242400F0AD
:101FB9001010FF1010F000000000000000000000E9
:101FC90000000000000000000101017F211100074D
:101FD9000202FF02020700000000000000000000EA
:101FE90000000000000000000434C404C43C0004E4
:101FF900FC040404C43C00000000000000000000D0
:10200900000000000000000040300C030C3080404C
:1020190020130C1320408000000000000000000085
:1020290000000000000000004042CC0000E2222A2B
:102039002AF22A2622E00000000000000000000029
:10204900000000000000000080403F4080FF8989B7
:1020590089BF89A9C9BF80000000000000000000F5
:102069000000000000000000404042CC0008E9AA3E
:10207900B8A8A8AAE90800000000000000000000B4
:1020890000000000000000000040201F20405F4ABF
:102099004A4A4A4A5F404000000000000000000030
:1020A90000000000000000002424A4FE232200C038
:1020B9003800FF0008106000000000000000000068
:1020C9000000000000000000080601FF01068180F1
:1020D900404027100C030000000000000000000031
:1020E900000000000000000000042424242424FF30
:1020F900242424242404000000000000000000001F
:10210900000000000000000021211109FD83412386
:1021190005091129254141000000000000000000C7
:102129000000000000000000100C4444444445C66F
:102139004444444444140C00000000000000000022
:1021490000000000000000008040201E2040407F69
:1021590044444444444040000000000000000000A2
:10216900000000000000000000FC848484FC0010D2
:1021790010101010FF1010000000000000000000F7
:102189000000000000000000003F1010103F000098
:10219900010640807F0000000000000000000000F0
:1021A900000000000000000080809E9292929EE054
:1021B900809EB2D2929E80000000000000000000C4
:1021C90000000000000000000808F4949292F10059
:1021D90001F2929494F80800000000000000000049
:1021E90000000000000000004040424458C0407F09
:1021F90040C0504846404000000000000000000078
:102209000000000000000000808040201807000046
:10221900003F4040404078000000000000000000FE
:1022290000000000000000000000FC04D4545454D5
:10223900D4047F84C53604000000000000000000BB
:10224900000000000000000088660100638282929D
:10225900AB8482C10224CF0000000000000000000E
:10226900000000000000000000007E0000FF0040A8
:10227900300F041464040000000000000000000096
:10228900000000000000000040407E42427E4242C1
:10229900427E42427E4040000000000000000000F3
:1022A90000000000000000001060028C00FE02F235
:1022B90002FE00F800FF000000000000000000001E
:1022C900000000000000000004047E018047300F78
:1022D90010270047807F0000000000000000000078
:1022E90000000000000000000000E09F8888888846
:1022F9008888888888080000000000000000000025
:102309000000000000000000080808080808080884
:10231900084880403F000000000000000000000065
:102329000000000000000000101010FF109000FED7
:1023390082828292A29E000000000000000000003C
:1023490000000000000000000444827F010000FF3B
:1023590080432C102C438000000000000000000086
:10236900000000000000000012EAAFAAEA0FFA021A
:10237900888C5724548C8400000000000000000061
:1023890000000000000000000202EAAAAAABAAAB02
:10239900AAAAAAAAEA02020000000000000000009E
:1023A90000000000000000001060028C0000FE9296
:1023B90092929292FE0000000000000000000000CE
:1023C900000000000000000004047E01407E42423B
:1023D9007E427E42427E4000000000000000000074
:1023E90000000000000000000000FC242424FC255B
:1023F9002624FC242424040000000000000000001E
:10240900000000000000000040308F80844C5525FA
:102419002525554C80808000000000000000000048
:10242900000000000000000000007E0000FF0040E6
:10243900300F0414640400000000000000000000D4
:10244900000000000000000040407E42427E4242FF
:10245900427E42427E404000000000000000000031
:1024690000000000000000001060028C00FE02F273
:1024790002FE00F800FF000000000000000000005C
:10248900000000000000000004047E018047300FB6
:1024990010270047807F00000000000000000000B6
:1024A90000000000000000000000E09F8888888884
:1024B9008888888888080000000000000000000063
:1024C90000000000000000000808080808080808C3
:1024D900084880403F0000000000000000000000A4
:1024E9000000000000000000101010FF109000FE16
:1024F90082828292A29E000000000000000000007B
:1025090000000000000000000444827F010000FF79
:1025190080432C102C4380000000000000000000C4
:10252900000000000000000012EAAFAAEA0FFA0258
:10253900888C5724548C840000000000000000009F
:1025490000000000000000000202EAAAAAABAAAB40
:10255900AAAAAAAAEA0202000000000000000000DC
:10256900000000000000000000FC0000FF00402007
:10257900D8171010F0101000000000000000000033
:102589000000000000000000000F0402FF0080406E
:1025990021160816214080000000000000000000FC
:1025A90000000000000000004040444454644546D7
:1025B900446454444440400000000000000000000E
:1025C9000000000000000000000000FF49494949DF
:1025D900494949FF00000000000000000000000018
:1025E90000000000000000001010D0FF901000FE55
:1025F900020202FE000000000000000000000000CE
:102609000000000000000000040300FF0083601FB9
:102619000000003F4040780000000000000000007A
:102629000000000000000000100C05555555057FFD
:102639000555555505140C00000000000000000068
:10264900000000000000000080403F1115F59515BD
:1026590015355555B59180000000000000000000B7
:1026690000000000000000004044C44444444010FD
:1026790010FF101010F00000000000000000000022
:102689000000000000000000103C131014B8403096
:102699000E014080403F00000000000000000000E3
:1026A900000000000000000012EAAFAAEA0FFA02D7
:1026B900888C5724548C840000000000000000001E
:1026C90000000000000000000202EAAAAAABAAABBF
:1026D900AAAAAAAAEA02020000000000000000005B
:1026E900000000000000000080A0908E888888FF0C
:1026F9008888888888808000000000000000000029
:102709000000000000000000000000FC44444444B4
:10271900444444FC000000000000000000000000E8
:102729000000000000000000404042CC00504EC8AC
:10273900487FC84848400000000000000000000031
:1027490000000000000000000040201F20504C4302
:1027590040404F50505C4000000000000000000065
:1027690000000000000000001010FF100082864ADF
:1027790052A2524A8680800000000000000000003A
:10278900000000000000000042827F0100101212C8
:1027990012FF1212121000000000000000000000D9
:1027A90000000000000000001010D0FF9014E4AFFA
:1027B900A4A4A4AFE404000000000000000000008D
:1027C9000000000000000000040300FF00894B2AFC
:1027D9001A0E1A2A4B888000000000000000000031
:1027E90000000000000000001010909090909010E0
:1027F90010FF10101116100000000000000000006A
:102809000000000000000000002060203F101010B0
:1028190000030C102040F800000000000000000038
:082829000000000000000000A7
:103F19006200000000000000000000000000000036
:103F29000000000000000000000000000000000088
:103F39000000000000000000000000000000000078
:103F49000000000000000000000000000000000068
:103F59000000000000000000000000000000000058
:103F69000000000000000000000000000000000048
:103F79000000000000000000000000000000000038
:103F89000000000000000000000000000000000028
:103F99000000000000000000000000000000000018
:103FA9000000000000000000000000000000000008
:103FB90000000000000000000000000000000000F8
:103FC90000000000000000000000000000000000E8
:103FD90000000000000000000000000000000000D8
:103FE90000000000000000000000000000000000C8
:103FF90000000000000000000000000000000000B8
:1040090000000000000000000000000000000000A7
:104019000000000000000000000000000000000097
:104029000000000000000000000000000000000087
:104039000000000000000000000000000000000077
:104049000000000000000000000000000000000067
:104059000000000000000000000000000000000057
:104069000000000000000000000000000000000047
:104079000000000000000000000000000000000037
:104089000000000000000000000000000000000027
:104099000000000000000000000000000000000017
:1040A9000000000000000000000000000000000007
:1040B90000000000000000000000000000000000F7
:1040C90000000000000000000000000000000000E7
:1040D90000000000000000000000000000000000D7
:1040E90000000000000000000000000000000000C7
:1040F90000000000000000000000000000000000B7
:1041090000000000000000000000000000000000A6
:0441190000000000A2
:105AEE00ED131313541FFEED5407FD7401A80508A2
:105AFE008002C333D8FCFDEFC39440503A75F008D2
:105B0E00EFA42400302716F582E5F03400F583E586
:105B1E00822EF582E43583F583E04DF022F582E5A1
:105B2E00F03400F583E5822EF582E43583F583E0CB
:075B3E00FFEDF4FEEF5EF045
:015B4500223D
:10597000E4F565E56524B0FFE4FD125E9EE4FDFFFD
:10598000125E9EE4FD7F10125E9EE4F56675F008DF
:10599000E566A42400F582E5F03400F583E5822570
:1059A00065F582E43583F583E0FF7D01125E9E0597
:1059B00066E566C3944040D50565E565C394084037
:1059C000B2E4F5657D01E4FF125E9E0565E565C301
:0459D000944040F0CF
:0159D40022B0
:1061DC00EF4E60157D087C07ED1DAA0470011C4A6A
:0961EC0070F6EF1F70EA1E80E757
:0161F5002287
:106228008F2EE52E7006FD7FA6125E9EE52EB40128
:0962380007E4FD7FA7125E9E221F
:10607B008F69E569700DFD7FC8125E9EE4FD7FA1FF
:10608B00125E9EE569B4010EE4FD7FC0125E9EE4D4
:07609B00FD7FA0125E9E22B2
:0863B8007F01AE071FEE70FA31
:0163C00022BA
:0F631300D291D2901263B8C2911263B8C2902295
:0A638100C291D2901263B8D29122AB
:0F632200D2911263B8D2901263B8C2900263B8DE
:0260C700AD0723
:1060C900E4FCC290ED30E704D2918002C2911263E0
:1060D900B8D2901263B8C290ED25E0FD0CBC08E27D
:0160E9002294
:105E8D00F583E58229F582E43583F583E493FF7D7F
:015E9D000103
:105E9E00AB05AA071263137F781260C7126322EB59
:105EAE0060047F408002E4FF1260C7126322AF02DB
:095EBE001260C712632202638125
:1060EA00A907ED24B0FFE4FD125E9EE954F0C45402
:1060FA000F4410FFE4FD125E9EE9540FFFE4FD0217
:02610A005E9E97
:10003E00E4FD7F8D125E9EE4FD7F14125E9EE4FD54
:05004E007FAF025E9E81
:10628700E4FD7F8D125E9EE4FD7F10125E9EE4FDAD
:056297007FAE025E9ED7
:105F2900E4F9E924B0FFE4FD125E9EE4FDFF125E90
:105F39009EE4FD7F10125E9EE4F52E7D01E4FF12C2
:0F5F49005E9E052EE52EC3948040F009B908D363
:015F58002226
:0450D6008F358D364F
:1050DA00E4F539E538C313FDF53AE4F53BF53CE56B
:1050EA0038B40808753D00753E068029E538131363
:1050FA0013541FFF7E00E5385407600590000180B5
:10510A0003900000E5822FFFE5833EFE7C00123803
:10511A00118E3D8F3EEB24E0F539AD36AF35126086
:10512A00EAE4F53BF53CC3E53C953EE53B953D504D
:10513A0060E53AFD7C00AE3BAF3C123823ED4C7083
:10514A000FE53864086009AD360536AF351260EAF6
:10515A00E538B4081075F006E539A424D9F582E5D6
:10516A00F034168013E538B4102775F010E539A429
:10517A002401F582E5F03419F583E582253CF582B0
:10518A00E583353B125E97053CE53C7099053B800B
:01519A00957F
:01519B0022F1
:046259008F6AA9059A
:10625D007F017E00AD0119ED6009AD6A7C00123839
:03626D001180F1AC
:01627000220B
:085713008F518D528A538B5413
:10571B00E4F559F55AE556B40803755902E4F55703
:10572B00E557C395555069C3E555955714FD7F0A49
:10573B00126259AC53AD54CFCDCFCECCCE12382351
:10574B007C007D0A1238238D58E55A7025E55514D7
:10575B00FFE557C39F501BE5587014E556C313253F
:10576B00598557F0A42551FF8556387B2080187535
:10577B005A01E556C31325598557F0A42551FFE56A
:10578B00582430FB855638AD521250D605578090B1
:01579B0022EB
:0A5BEB008F2E8D2F8B308A31893206
:105BF500E4F534AB30AA31A93285348275830012BD
:105C050037C2602AAF3405348F827583001237C2DC
:105C1500FB853338AD2FAF2E1250D6E533B40804CB
:0E5C250074068004E533C313252EF52E80C5CA
:015C3300224E
:065C34008F2E8D2F8B3036
:105C3A00E4F5311260EAE4F975F040E530A424F1A4
:105C4A00F582E5F0341E125E8D053109B910E9E5D9
:105C5A002F04FDAF2E1260EAE4F975F040E530A496
:105C6A002411F582E5F0341F125E8D053109B91051
:015C7A00E940
:015C7B002206
