:10003E0048554E414E20554E4956455253495459F6
:10004E0000202056696220446574656374656420DF
:10005E00200043484F4F534520594F5552204D4F86
:10006E00444500204D4F44453A30312020434C4FFB
:10007E00434B20004D4F44453A303253544F505766
:10008E004154434800204D4F44453A3033202054CC
:10009E00494D45522000204D4F44453A3034206C96
:1000AE0069676874202000204D4F44453A30352052
:1000BE002054656D70202000204D4F44453A303657
:1000CE00202020464D20202000204D4F44453A3020
:1000DE003720204D555349432000000000000000FA
:1000EE00000000000040C000000000000000000002
:1000FE0000000000000000000000000000000000F2
:10010E0000000000000000000000000000000000E1
:10011E0000000000000000000000000000000000D1
:10012E0000000000000000000000000000000000C1
:10013E0000000000000000000000000000000000B1
:10014E00000000000000000000000080E438000005
:10015E000000000000000000000000000000000091
:10016E00000000000000433F000000000000F8FE09
:10017E00FE88F0E0C0000080C0C0E0F0F06000003B
:10018E00000000000000000000000000000000C0A1
:10019E00F8FC8080E040000000000000000000003D
:1001AE00000000000000000000F8FC180000000035
:1001BE000000000000000000000000000000000031
:1001CE00001860C00010301098DEF37030901808E0
:1001DE0088C4743C0E040000000000000000000003
:1001EE0000000000000080C0E0F070787C3F1F0F20
:1001FE00070303C1D072E3C100C0FF3F030000003C
:10020E00000000000000202030301898DCEC7EB793
:10021E00939B090C0406EE0E000000000000000087
:10022E000000000000000000F8FFC7C06072381028
:10023E0000000000000000000000000000000000B0
:10024E00063C701B0F04128D8783D04877F3FCF6A3
:10025E00330100000000000000000000000000005C
:10026E000000FCE000C0F81F0100C0E0308CE6FE8C
:10027E003018C6FF011E330100FFFF800000000092
:10028E0000000000008060080407030784CEFFFB17
:10029E00310000000000FF00000000000000000020
:1002AE000000000C0CC67E3F0701011020C08080AC
:1002BE000000000000000000000000000000000030
:1002CE0000000002028281C1F1484C2627E3E16062
:1002DE000000000000000000000000000000000010
:1002EE0000E0FFFF3F0F01000000000000010300CF
:1002FE0000E0FF1F00040810307F7F4F0000000059
:10030E0000000000000300000000000001010007D3
:10031E000000000818180F00000000000000000088
:10032E0000000804030100000000000000000103AB
:10033E000707060602000000000000000008080C77
:10034E000E0607030301010001FC0000010000007E
:10035E00000000000000000000000000000000008F
:10036E00000001010000000000000000000000037A
:10037E000703000000000000000000000000000065
:10038E00000000000000000000000000000000005F
:10039E00000000000000000000000000000000004F
:1003AE00000000000000000000000000000000003F
:1003BE00000000000000000000000000000000002F
:1003CE000000000202020606060700000000000000
:1003DE0000000000000000000000F3F5FA250425DF
:1003EE00042518250425042518250425042508248C
:1003FE0008230822082110F6150C150421101510DB
:10040E0023102110251826082510250C250431103F
:10041E003110260C2504240826082530250C250429
:10042E00261026102210220C220425182408231030
:10043E00150C150425102508260825082408230860
:10044E0022082130250C2504311031102610260CDF
:10045E002504241825082610220C22042510250810
:10046E002608250824082308220821380008210C14
:10047E001508231023180008230C21042610261813
:10048E000008161816082210220C23042208210830
:10049E002708260815202110151016081610150805
:1004AE0021102210231000102210260826082508DD
:1004BE002510230822102610251000082108310CC3
:1004CE0031043108250826183108260C2504240885
:1004DE00250825100010310C310431083108251083
:1004EE002508260825082408230822082110F5FBD4
:1004FE00F464F7F3F5FAF450001000100010001039
:10050E003608310835083608330C350435083208FC
:10051E00331000103608350800100008350836086C
:10052E000008360433043108360432043308000858
:10053E00350836080008360435043308360433040B
:10054E0033080010001000100010230822042304AA
:10055E0023100010000C220421081608161000109B
:10056E002108220823082204230423100010000867
:10057E002204210417042104170800100010270874
:10058E0031042704261825082308210421042104F8
:10059E00250C2308210422042210000C210421081A
:1005AE002208230822042304231000102508250402
:1005BE0026042508220423042210001027083104E3
:1005CE002704261825082308210421042104250CBC
:1005DE0023082104220422100008310832083204B4
:1005EE0033043208310426042610000C220432088B
:1005FE003108321032100010001033103310321048
:10060E003108270826082504260426100010250880
:10061E0031083308320433043310000C2504340C33
:10062E003304320831043204321000083308320821
:10063E0031083110311033103310340833083110B3
:10064E00001025083108320831043204321000102F
:10065E002608320833083204330433100010001019
:10066E0036103604000232023602330232022602FD
:10067E0026102610360235023104310431043204BC
:10068E0032043208320833080010230822042304EF
:10069E002310001000082208210416041608161054
:1006AE000010210822082308220423042310000C22
:1006BE00150422082104170417042104170800103A
:1006CE0000102705310527062610000C25042308E7
:1006DE0021042104210825082308210422042210C4
:1006EE0020102108220823082204230423100010BE
:1006FE0025082504260425082204230422100010B0
:10070E00270831042704260826102604250423086A
:10071E002104210421082508230821042204221083
:10072E00000831083208320433043208310426043A
:10073E002610000C2204320831083210321000103C
:10074E000010331033103210310827082608250404
:10075E00260426100010250831083308320433040D
:10076E003310000C2504340C3304320831043204E7
:10077E0032100008330832083108311031103310AE
:10078E0033103408330831100010250831083208B0
:10079E0031043204321000102608320833083204B5
:1007AE0033043310331033100010001026102610AF
:1007BE00271027103110311032103210341034102F
:1007CE0035103608350836103610361036103610FD
:1007DE003610001000103310331032103108270479
:1007EE0027042608250426042610000C25042508B7
:1007FE003108330832043304331000103410320839
:10080E003104320432100008330832083108311C2A
:10081E003104331033103408330431043110000C1A
:10082E002504250831083208310432043210001034
:10083E0026083208330832043204331033103310D2
:10084E00000000000000000000000000000000009A
:10085E00000000000000000000000000000000008A
:10086E00000000000000000000000000000000007A
:10087E00000000000000000000000000000000006A
:10088E00000000000000000000000000000000005A
:10089E00000000000000000000000000000000004A
:1008AE00000000000000000000000000000000003A
:1008BE00000000000000000000000000000000002A
:1008CE00000000000000000000000000000000C05A
:1008DE00E0F0F0F8F8FCFCFCFCFCFCF8F080C0DE6C
:1008EE00FFFFFFFFDE80F0F8FCFCFCFCFCFCFCF8DC
:1008FE00F8F0E0C0800000000000000000000000E2
:10090E000000000000000000000000000000001FBA
:10091E009FCFFFFFFFFFFF7F3F1F1F0F0F07070731
:10092E001F1F0707070F0F0F1F3FBF7FFFFFFFF7A9
:10093E00EFCF1F1F030000000000000000000000AA
:10094E000000000000000000000000000080F8FE23
:10095E00FFFF3F0F03010000000000000000000039
:10096E000080C0E0F078381C060301000001071F6C
:10097E00FFFFFFFCE0000000000000000000000090
:10098E00000000000000000000000000001FFFFF3C
:10099E00FFFFC60600000000000000000000020F6E
:1009AE000F0F0F1D18307060C0800000000006860B
:1009BE00FFFFFFFF7F0000000000000000000000AE
:1009CE000000000000000000000000000000010F09
:1009DE001F7FFFFFFCF0E0C0C080000000000000A1
:1009EE0080800000000000008080C0E0F0F8FEFF74
:1009FE007F3F0F0300000000000000000000000019
:100A0E0000000000000000000000000000000000D8
:100A1E000000000103333F3F1F1F1F1F3F3E3E3E9E
:100A2E003F3F3E3E3E3E1F1F1F3F3F370703010025
:100A3E0000000000000000000000000000000000A8
:100A4E000000000000000000000000000000000098
:100A5E000000000000000000000000000000000088
:100A6E000000000000000000000000000000000078
:100A7E000000000000000000000000000000000068
:100A8E000000000000000000000000000000000058
:100A9E000000000000000000000000000000000048
:100AAE000000000000000000000000000000000038
:100ABE000000000000000000000000000000000028
:100ACE000000000000000000000000000000000018
:100ADE000000000000F8FC0C0C0C0C0C0CFCF800D8
:100AEE0000202020202020202020000000000000D8
:100AFE0000000000000000000000000000000000E8
:100B0E0000000000000000000000000000000000D7
:100B1E000000000000FFFF0000E0E00000FFFF000B
:100B2E000040444444444444444400000000000057
:100B3E0000000000000000000000000000000000A7
:100B4E000000000000000000000000000000000097
:100B5E000000000000FFFF0000FFFF0000FFFF008D
:100B6E0000000C0808080808080800000000000033
:100B7E000000000000000000000000000000000067
:100B8E000000000000000000000000000000000057
:100B9E00000080C0C07F7F0000FFFF00207F7FC06D
:100BAE00C0810101010101010101000000000000EE
:100BBE000000000000000000000000000000000027
:100BCE00000000000000000000000000000070FCAB
:100BDE00FE07010178FCFEFEFEFFFFFFFEFEFC3865
:100BEE00010107FEFC0000000000000000000000F4
:100BFE0000000000000000000000000000000000E7
:100C0E0000000000000000000000000000000001D5
:100C1E00070E0C18183030212121212121303018D7
:100C2E00180C0E070100000000000000000000007C
:100C3E0000000000000000000000000000000000A6
:100C4E000000000000000000000000000000000096
:100C5E000000000000000000000000000000000086
:100C6E000000000000000000000000000000000076
:100C7E000000000000000000000000000000000066
:100C8E000000000000000000000000000000000056
:100C9E000000000000000000000000000000000046
:100CAE000000000000000000000000000000000036
:100CBE000000000000000000000000000000000026
:100CCE000000000000000000000000000000000016
:100CDE0000000080808000000000FCFCFCFCFCFC9E
:100CEE00FCFCFCFC00000000808080000000000086
:100CFE0000000000000000000000000000000000E6
:100D0E0000000000000000000000000000000000D5
:100D1E00069FFFFFFFFFFFF67878783C3F3F3F3F8F
:100D2E003F3F3C787878FEFFFFFFDFFF9F0E00000D
:100D3E0000000000000000000000000000000000A5
:100D4E0000000000000000000000000080E0F8FE3F
:100D5E00FF3F0F07030101000000000000E0FFFF4E
:100D6E00F0000000000000000103070F3FFFFEF837
:100D7E00F0800000000000000000000000000000F5
:100D8E00000000000000000000000000FFFFFFFF59
:100D9E000000000000000000000000007EFFFFFFCA
:100DAE00FF7F000000000000000000000000EFFFC9
:100DBE00FFFF000000000000000000000000000027
:100DCE00000000000000000000000000030F3FFFC5
:100DDE00FEF8E0C0800000000000000000000000EF
:100DEE0000000000000000000080C0E0F0FEFF7F69
:100DFE001F070000000000000000000000000000BF
:100E0E0000000000000000000000000000000000D4
:100E1E000103070F0F1F1E3E3C3C787878787878D8
:100E2E00787878783C3C3E1E1F0F0F0703010000B8
:100E3E0000000000000000000000000000000000A4
:100E4E000000000000000000000000000000000094
:100E5E000000000000000000000000000000000084
:100E6E000000000000000000000000000000000074
:100E7E000000000000000000000000000000000064
:100E8E000000000000000000000000000000000054
:100E9E000000000000000000000000000000000044
:100EAE000000000000000000000000000000000034
:100EBE000000000000000000000000000000000024
:100ECE000000000000000000000000000000000014
:100EDE000000000000000000000000000000800084
:100EEE0000000000000000000000000000000000F4
:100EFE0000000000000000000000000000000000E4
:100F0E0000000000000000000000000000000000D3
:100F1E00000080800038787080CFDFF860606F60EE
:100F2E0060E8DFCF8070783800808080000000009D
:100F3E0000000000000000000000000000000000A3
:100F4E000000000000000000000000000000000093
:100F5E003030716303FBFE1F070181C0E0E0C0E08B
:100F6E00E0C08001031FFEFB036371303000000000
:100F7E000000000000000000000000000000000063
:100F8E000000000000000000000000000000000053
:100F9E000C0CCEC6E06F3FF8E080030FFEF9C1F9EE
:100FAE00FE0F0380E0F87F7FE0C6CE8E0C000000BF
:100FBE000000000000000000000000000000000023
:100FCE000000000000000000000000000000000013
:100FDE000000010100000000031FFEF8E0EFEFEF3C
:100FEE00E0F0FE1F03000000000101010000000000
:100FFE0000000000000000000000000000000000E3
:10100E0000000000000000000000000000000000D2
:10101E0000000000000000000000011F1F1F1F172E
:10102E00070707000000000000000000000000009D
:10103E0000000000000000000000000000000000A2
:10104E000000000000000000000000000000000092
:10105E000000000000000000000000000000000082
:10106E000000000000000000000000000000000072
:10107E000000000000000000000000000000000062
:10108E000000000000000000000000000000000052
:10109E000000000000000000000000000000000042
:1010AE000000000000000000000000000000000032
:1010BE000000000000000000000000000000000022
:1010CE000000000000000000000000000000000012
:1010DE000000000000000000000000000000000002
:1010EE0000000000000000000000000000000000F2
:1010FE0000000000000000000000000000000000E2
:10110E0000000000000000000000000000000000D1
:10111E00060F0FFFFFFF0F8F8F8F8F8F0F0F0F0F8A
:10112E000F0F0F0F0F0F0F0FFFFFFF0F0F06000018
:10113E0000000000000000000000000000000000A1
:10114E000000000000000000000000000000000091
:10115E000000000F3F7FFCF7F7EFDFBF7FFFFEFEC3
:10116E00FC7CBCD8E8F0F87C7F3F0F00000000004C
:10117E000000000000000000000000000000000061
:10118E000000000000000000000000000000000051
:10119E00000000000080C0E0F1FBFF7F3F00FDFD7E
:1011AE000C3F7FFFFBF1E0C080000000000000005C
:1011BE000000000000000000000000000000000021
:1011CE000000000000000000000000000000000011
:1011DE00000000FEFFFFE7F3F1F8F8FCFCFEFFFF56
:1011EE00FEFCFCF8F8F1E3EFFFFFFC00000000004E
:1011FE0000000000000000000000000000000000E1
:10120E0000000000000000000000000000000000D0
:10121E001C1C1C1F1F1F1F1F1F1F1F1F1F1F1F1FD9
:10122E001F1F1F1F1F1F1F1F1F1F1F1C1C0800001B
:10123E0000000000000000000000000000000000A0
:10124E00FFFFFFFFFFFFFFFFFFFFFFFFFFFFFFFFA0
:10125E00FFFFFFFFFFFFFFFFFFFFFFFFFFFFFFFF90
:10126E00FFFFFFFFFFFFFFFFFFFFFFFFFFFFFFFF80
:10127E00FFFFFFFFFFFFFFFFFFFFFFFFFFFFFFFF70
:10128E00FFFFFFFFFFFFFFFFFFFFFFFFFFFFFFFF60
:10129E00FFFFFFFFFFFFFFFFFFFFFFFFFFFFFFFF50
:1012AE00FFFFFFFFFFFFFFFFFFFFFFFFFFFFFFFF40
:1012BE00FFFFFFFFFFFFFFFFFFFFFFFFFFFFFFFF30
:1012CE00FFFFFFFFFFFFFFFFFFFFFFFFFFFFFFFF20
:1012DE00FFFFFFFF7F0F1F9FDFDFEFEFEFFFFFFF30
:1012EE00F7FFFFFFFFFFFFFFFFFFFFFFFFFFFFFF08
:1012FE00FFFFFFFFFFFFFFFFFFFFFFFFFFFFFFFFF0
:10130E00FFFFFFFFFFFFFFFFFFFFFFFF7F7F1FFFBF
:10131E007FC3F0F8FCFEFFFF01FBFBFBFF7FFFFF2F
:10132E00FFFFFFF7FBFDFDFCF803FFFFFFFFFFFFD5
:10133E00FFFFFFFFFFFFFFFFFFFFFFFFFFFFFFFFAF
:10134E00FFFFFFFFFFFFFFFFFFFFFFEFF3B0301FB9
:10135E001E0F0FFFF7FFFBFBFFFCFFFFFFFFFFFF63
:10136E00FFFFFFFFFCFFFF7F3EDEFEBF3FFFFEDE07
:10137E00CEE0F0F8FCFFFFFFFFFFFFFFFFFFFFFFD8
:10138E00FFFFFFFFFFFFFFFFFFFFF7F3E181830387
:10139E001F7EFEDEFCFDFD1DC3FBFFFDFDFDF9F90D
:1013AE00F8FC0FC1E0ECDC3E3F3F7F7F7F7E3107D4
:1013BE001F7FFFFFFFFFFFFFFFFFFFFFFFFFFFFF8F
:1013CE00FFFFFFFFFFFFFFFFFFFFFFFFFFFFFFFF1F
:1013DE00FFF60F8FFFFF03001F3F3F3F1F8FC7E733
:1013EE00F1F8FCFEFFFFFFFF7F7E3E1E9CCCECF86B
:1013FE00F8F8F1F7FFFFFFFFFFFFFFFFFFFFFFFF13
:10140E00FFFFFFFFFFFFFFFFFFFFFFFFFFFFFFFFDE
:10141E00FFFFFFFFFFFFE0F0F8FCFCFEFFFBF9F81B
:10142E00F8F9F8F8F0F0FCFCFEFEFFFFFFFFFFFFFF
:10143E00FFFFFFFFFFFFFFFFFFFFFFFFFFFFFFFFAE
:10144E00000000000000000000000000000000008E
:10145E00000000000000000000000000000000007E
:10146E00000000000000000000000000000000006E
:10147E00000000000000000000000000000000005E
:10148E00000000000000000000000000000000004E
:10149E00000000000000000000000000000000003E
:1014AE00000000000000000000000000000000002E
:1014BE00000000000000000000000000000000001E
:1014CE00000000000000000000000000000000000E
:1014DE000000000000F0F0F0F0C0C0C0808080007E
:1014EE0000000000000000000000000000000000EE
:1014FE0000000000000000000000000000000000DE
:10150E000000000000000000C0C0E0E0E0E0E0E00D
:10151E00E0E0E0E0E0E0E1E1E0E0E1E1E1E3E3E3AF
:10152E00E3E7E7E6EEEEECECFCFCF8F8F8F8F8FC96
:10153E00FCF8F0E0E0C0C000000000000000000079
:10154E000000000000000000FFFFFFFFFFFFFFFF95
:10155E00FF7F3F3F1F1F1F1F1F1F3F7FFFFFFFFF0D
:10156E00FFFFFFFF0F0F0F0F0F0F0F0F0F0F0F0FBD
:10157E001FFFFFFFFFFFFF00000000000000000044
:10158E000000000000000000FFFFFFFFFFFFFFC78D
:10159E00C7C7C7C7C7C7C7C7C7C7C7C7C7C7FFFF5D
:1015AE00FFFFFFFFFCFCFCFCFCFCFCFCFCFCFCFC61
:1015BE00FEFFFFFFFFFFFF00000000000000000025
:1015CE000000000000000000FFFFFFFFFFFFFFFF15
:1015DE00FFFDF9F9F1F1E1F1F1F1F9F9FDFFFFFF8D
:1015EE00FFFFFFFFFFFFFFFFFFFFFFFFF9F0F1FF20
:1015FE00FFFFFFFFFFFFFF000000000000000000E4
:10160E000000000000000000030707070707070798
:10161E00070707070707070707070707070707074C
:10162E00070707070707070707070707070707073C
:10163E00070707070707030000000000000000006F
:10164E00000000000000000000000000000000008C
:10165E00000000000000000000000000000000007C
:10166E00000000000000000000000000000000006C
:10167E00000000000000000000000000000000005C
:10168E00000000000000000000000000000000004C
:10169E00000000000000000000000000000000003C
:1016AE00000000000000000000000000000000002C
:1016BE00000000000000000000000000000000001C
:1016CE00000000000000000000000000000000000C
:1016DE0000000000000000000000000000000000FC
:1016EE0000000000000000000000000000000000EC
:1016FE0000000000000000000000000000000000DC
:10170E000000000000000000000000000000C0F01B
:10171E003C1E0703C0E000000000000000000000B7
:10172E0000000000000000000000E0C083071E3C27
:10173E00F0C00000000000000000000000000000EB
:10174E00000000000000000000000000E0FE0F019D
:10175E0000E0FC0F0300E07818000000C0603010BD
:10176E00302060C00000001C7CE000010FFCE00097
:10177E00010FFEE00000000000000000000000006D
:10178E000000000000000000000000007FFF0000CD
:10179E00007FFF0000007FE00000000F3B40C08094
:1017AE008080603F0F000080F07F000000F07F001F
:1017BE000000FFFF0000000000000000000000001D
:1017CE00000000000000000000000000000F3FF0CD
:1017DE00C000071F3C704001030000000000000025
:1017EE000000000000000003010060381E0700C06A
:1017FE00F03F0F000000000000000000000000009D
:10180E0000000000000000000000000000000000CA
:10181E0003070E1C00000000000000000000000086
:10182E000000000000000000000000000C0A07038A
:10183E00000000000000000000000000000000009A
:10184E00000000000000000000000000000000008A
:10185E00000000000000000000000000000000007A
:10186E00000000000000000000000000000000006A
:10187E00000000000000000000000000000000005A
:10188E00000000000000000000000000000000004A
:10189E00000000000000000000000000000000003A
:1018AE00000000000000000000000000000000002A
:1018BE00000000000000000000000000000000001A
:1018CE00000000000000000000000000000000000A
:1018DE0000000000000000000000000000000000FA
:1018EE0000000000000000000000000000000000EA
:1018FE0000000000000000000000000000000000DA
:10190E00000000000000000000000000000000FECB
:10191E000E0EFEFEFEFEFEFEFEFEFEFEFE7E3E1ED9
:10192E001E3E7EFEFEFEFEFEFEFEFEFEFEFE0E0EC9
:10193E00FE0000000000000000000000000000009B
:10194E00000000000000000000000000000000FF8A
:10195E000E0EFFFFFFFFFFFFFFFFFFC1E0F00000D5
:10196E000000F0E0EFFFFFFFFFFFFFFFFFFF0E0E97
:10197E00FF0000000000000000000000000000005A
:10198E00000000000000000000000000000000FF4A
:10199E000E0EFFFFFFFFFFFFFFFFFFFFFFFF000029
:1019AE000000FFFFFFFFFFFFFFFFFFFFFFFF0E0E19
:1019BE00FF0000000000000000000000000000001A
:1019CE00000000000000000000000000000000FF0A
:1019DE000F1FFFFFFFFFFFFFFFFFFFFFFFFF0000D7
:1019EE000000FFFFFFFFFFFFFFFFFFFFFFFF0F0FD7
:1019FE00FF000000000000000000000000000000DA
:101A0E000000000000000000000000000000000FB9
:101A1E000E0E0F0F0F0F0F0F0F0F0F0F0F0F0F0FCA
:101A2E000F0F0F0F0F0F0F0F0F0F0F0F0F0F0E0EBA
:101A3E000F00000000000000000000000000000089
:101A4E0000A8C0003F065B4F666D7D077F6F0008E4
:101A5E004001414876000000BF86DBCFE6EDFD87F2
:101A6E00FFEF777C395E79713D76301E753815370C
:101A7E003F736B336D313E3E2A76665BB7F9DEED12
:101A8E00B0B1B7000000000000000100020003002A
:101A9E00040005000600070000000000010002001F
:101AAE0003000400050006000700010016170709D1
:101ABE000423037603000101AA55AA55A1A1A1A1F1
:101ACE00AA5510000000AA5520000000AA553000AB
:101ADE000000AA5540000000AA5550000000AA556B
:101AEE0060000000AA5570000000AA55800000009A
:101AFE00AA5590000000AA553A000000AA554A00C7
:101B0E000000AA555A000000AA556A000000AA5506
:101B1E007A000000AA558A000000AA559A0000001B
:101B2E00AA553A000000AA55A1A1A1A1AA550100EB
:101B3E000000AA5502000000AA5503000000AA5595
:101B4E0004000000AA5505000000AA55060000007A
:061B5E00AA55070000007B
:1042BF00C10BC110C112010F00010900021700004C
:1042CF0002190000C114C115020C0D99C111C104CE
:1042DF00C101C10D010A14010B64C193C108C10EC4
:1042EF00C10FC109021B00C8021E0190C18AC10083
:0C42FF00C106C107C102C10CC103C1050A
:10593D001269201268C01257A77F98126653126918
:10594D007678267C007D007BFF7A1A79B97E007F00
:10595D0007123BE21254D378267C007D007BFF7A40
:10596D001A79C07E007F06123BE2126856126AC198
:10597D0012693D7FB07E047D007C0012605C752B4A
:10598D00FF752C1A752DC6E4F52EF52FFB7A0079CF
:10599D00007D06FC1266847BFF7A4E79C37F04126C
:1059AD005F677BFF7A2C79BC7F02125F677BFF7A82
:1059BD003F79167F07125F677BFF7A6A793E7F0614
:1059CD00125F677BFF7A6979F67F09125F67E4F5ED
:1059DD000EF508F51D1267677D07E4FF126B6B125C
:0759ED006BA91265DB80FBD2
:10676700752908752AFF752B00752CE87B80E4FDD9
:10677700FF1261A07BFF7A00793E7533107D06E436
:08678700FF1263B6750E022239
:103F1600E4FF12648E8F267F0512648E8F277F0240
:103F260012648E8F287F0412648E8F297F0112649B
:103F36008E8F2AE50EB4041AE526B40115B21430A4
:103F46001405E4F517F5187D147C007FE87E03124E
:103F56005FE4E50E6405600302401520110302408C
:103F660015E527B4011D30040A7458250DF50D74A6
:103F760002800A300160740A250DF50DE4350CF552
:103F86000C8053E5286401705830041FE50D24A801
:103F9600FFE50C34FDFED3EF9400EE648094804080
:103FA6003074A8250DF50D74FD8020300128E50D2F
:103FB60024F6FFE50C34FFFED3EF9400EE64809404
:103FC60080400E74F6250DF50D74FF350CF50C804A
:103FD60005E4F50CF50D7D147C007FE87E03125F89
:103FE600E4E529B40112300104C201D2047D147C37
:103FF600007FE87E03125FE4E52AB4011230040470
:10400600C204D2017D147C007FE87E03125FE4E5E2
:104016000EB4050A201107E526B40102B20DE50E1D
:1040260064066003024103200803024103E5276496
:10403600017050300E26AF0AEF3395E0FEEF2401F3
:10404600FFE43EFEAD0BED3395E0FCC3EF9DEC6463
:1040560080F8EE648098505E050A805A300F1DAFD6
:104066000BEF3395E0FEEF2401FFE43EFEC3EF9431
:10407600FFEE64809480503E050B803A300937B2DB
:10408600138033E52864017038300E0EE50A14D328
:10409600648094804020150A801C300F14E50B14B0
:1040A600FFD3E50A6480F8EF6480984009150B8019
:1040B60005300902B2137D147C007FE87E03125F8F
:1040C600E4E529B40119300E04C20ED209300F04FA
:1040D600C20FD20E7D147C007FE87E03125FE4E5FA
:1040E6002AB40119300E04C20ED20F300904C209D7
:1040F600D20E7D147C007FE87E03125FE4E50E6439
:104106000760030241EF2000030241EFE527640147
:10411600704530061CE51C2401FFE4351BFEC3EF89
:10412600951FEE951E507B051CE51C7028051B800F
:104136007130071CE51F2401FFE4351EFEC3EF9412
:10414600E7EE9403505C051FE51F7056051E80526E
:1041560030024FB20A804BE5286401705030061DCC
:10416600E51C24FFFFE51B34FFFED3EF9400EE941D
:1041760000402FE51C151C7029151B802530071DD6
:10418600E51F24FFFFE51E34FFFED3EF951CEE95D9
:104196001B400FE51F151F7009151E800530020212
:1041A600B20A7D147C007FE87E03125FE4E529B441
:1041B6000119300604C206D202300704C207D2062D
:1041C6007D147C007FE87E03125FE4E52AB40119C2
:1041D600300604C206D207300204C202D2067D149B
:1041E6007C007FE87E03125FE4E50E64087028E534
:1041F60026B40109200506D205D203800FE526B4B0
:10420600011530051230030FC205C2037D147C0070
:104216007FDC7E05125FE4E50E640860030242BEA1
:10422600126205123D5BF52C85F02B126205E9241E
:1042360002F9E43AFA123C2AF52D126205E9240342
:10424600F9E43AFA123C2AF52E126205E92404F939
:10425600E43AFA123C2AF52F126205E92405F9E43C
:104266003AFA123C2AF530E527B40114300C0A0557
:104276002CE52C7022052B801E30031B052D801784
:10428600E528B4011D300C0AE52C152C7009152BF8
:104296008005300302152D7D147C007FE87E031215
:1042A6005FE478317C007D007B007A00792B7E000C
:0842B6007F06123BE21259F4ED
:0142BE0022DD
:104EC300E4FF12655C8F267F0112655C8F27E52660
:104ED300B40102D212E50E6044200B0FE526B401A3
:104EE3000A850E08750E01D20B803E300B3BE5267A
:104EF30064017035C3E508648094897D0A7C007F72
:104F0300587E02500C125FE4E50804F50ED21080BF
:104F130008125FE4750E03D210C20B800CE50E700D
:104F230008E526B40103851D0EE50EB40315E52738
:104F3300B40110C3E5096480948250040509800319
:104F4300E4F509E50EB4041AE527B40115B21530EA
:104F53001505E4F519F51A7D147C007FDC7E051236
:104F63005FE4E50EB4050F200D0CE527B40107201F
:104F73001102D201B211E50EB40609E527B401040A
:104F8300B208D20EE50EB40709E527B40104B20056
:104F9300D206E50E64087028E527B401092005064A
:104FA300D205D20C800FE527B40115300512300C61
:104FB3000FC205C20C7D147C007FDC7E05125FE40A
:104FC300E50E64097042E527B4011E126BAFBF03FF
:104FD300187BFF7A057901752D03752E4D752FF01A
:104FE3007DFA7F5A126261801AE527B4010A126BB7
:104FF300AFBF01047F02800DE527B4010B126BAF35
:10500300BF02057F011267B7E50E64096013126BD7
:10501300AFEF64026006126BAFBF01057F03126737
:01502300B7D5
:015024002269
:102CBC003012081248FA124D57C212301408051877
:102CCC00E51870020517301508051AE51A7002058B
:102CDC0019300D08E50D150D7002150CE50D450CA0
:102CEC007015201112C20D7DC8FC7F787E05125F15
:102CFC00E4750C0B750DB8E50EB40A0040030237F1
:102D0C0067902D14F8282873022D32022D4A022DBB
:102D1C0088022DB2022F04022FD00231E30233DAE3
:102D2C0002365802372B75310B75320B7533017522
:102D3C00340D75351E7B017D0D7F1E0237643010FE
:102D4C0004C210D21275312C7532307533227534A1
:102D5C000CAF08EF3395E0FEEF25E0FFEE33FE7489
:102D6C00A52FF582741A3EF583E4740193F5357B37
:0C2D7C002C7D257F201268E0E4FF8027FA
:102D880075310C7532207533307534227535227BD8
:102D9800327D2B7F251268E0E526600625E0F526C2
:0A2DA8008003752601AF26026BA31D
:102DB200126B9678107C007D007E007F07123BE24A
:102DC200E50914603714606124026003023767E585
:102DD20012C4540FFFE512540FFDE511C4540FF550
:102DE20031E511540FF53275330CE510C4540FF56B
:102DF20034E510540FF5357B0C023764E516C454E4
:102E02000FFFE516540FFDE514C4540FF531E51418
:102E1200540FF53275330CE513C4540FF534E51332
:092E2200540FF5357B0C023764F6
:102E2B00851526E52614B407004003023767902E5C
:102E3B004775F003A4C58325F0C58373022E5C028E
:102E4B002E74022E8C022EA4022EBC022ED4022E25
:102E5B00EC75313875320A75330A75340C753501DA
:102E6B007B2C7D2B7F2B02376475310A75320A75EB
:102E7B00330A75340C7535027B397D327F3102375D
:102E8B006475313A75320A75330A75340C7535032E
:102E9B007B227D327F3202376475312F75323B7561
:102EAB00330A75340C7535047B327D257F3102373F
:102EBB006475310A75320A75330A75340C7535042D
:102ECB007B3C7D2F7F2302376475310A75320A757F
:102EDB00330A75340C7535047B3D7D1E7F3002370C
:102EEB006475310A75320A75330A75340C753504FD
:092EFB007B3E7D327F300237641A
:102F0400AE17AF187C037DE8123CA47C007D0A1246
:102F14003CA48D2DE52D7003752D0AAE17AF187CDA
:102F2400007D64123CA47C007D0A123CA48D2CE537
:102F34002C7003752C0AAE17AF187C007D0A123C66
:102F4400A47C007D0A123CA4ED2414F52BAE17AF2B
:102F5400187C007D0A123CA48D2AAE19AF1A7C039A
:102F64007DE8123CA47C007D0A123CA48D29E5294D
:102F7400700375290AAE19AF1A7C007D64123CA453
:102F84007C007D0A123CA48D28E528700375280A6C
:102F9400AE19AF1A7C007D0A123CA47C007D0A1293
:102FA4003CA4ED2414F527AE19AF1A7C007D0A1257
:102FB4003CA48D26852A31852932852833852734FA
:0C2FC400852635AB2BAD2CAF2D023764F9
:102FD000050FD3E50F648094835002800C301103F9
:102FE000023123300D03023083AE0CAF0D7C007D27
:102FF0000A123CF97C007D3C123CF97C007D0A12EF
:103000003CF9AB07C003AE0CAF0D7C007D0A123C4F
:10301000F97C007D3C123CF97C007D0A123CF9AB46
:1030200005AE0CAF0D7C007D0A123CF97C007D3CA6
:10303000123CF97E007F0ACFCDCFCECCCE123CF928
:10304000AA07AE0CAF0D7C007D0A123CF97C007D16
:103050003C123CF97E007F0ACFCDCFCECCCE123CC5
:10306000F9ED2414F5348A338B3175320CAE0CAF84
:103070000D7C007D0A123CF98D35D0037D0A7F0A54
:103080000231D1200D030231D4AE0CAF0D7C007D96
:103090000A123CF97C007D3C123CF97C007D0A124E
:1030A0003CF9AB07C003AE0CAF0D7C007D0A123CAF
:1030B000F97C007D3C123CF97C007D0A123CF9ABA6
:1030C00005AE0CAF0D7C007D0A123CF97C007D3C06
:1030D000123CF97E007F0ACFCDCFCECCCE123CF988
:1030E000AA07AE0CAF0D7C007D0A123CF97C007D76
:1030F0003C123CF97E007F0ACFCDCFCECCCE123C25
:10310000F9ED2414F5348A338B3175320CAE0CAFE3
:103110000D7C007D0A123CF98D35D0037D0A7F2D90
:103120000231D1300462AE0CAF0D7C007D0A123C3E
:10313000F97C007D3C123CF97E007F0ACFCDCFCEDA
:10314000CCCE123CF9AB07AE0CAF0D7C007D0A1261
:103150003CF97C007D3C123CF97E007F0ACFCDCF4C
:10316000CECCCE123CF9ED2414F5348B3375310AF4
:1031700075320CAE0CAF0D7C007D0A123CF98D351A
:103180007B0A7D0A7F208049300149AE0CAF0D7C5F
:10319000007D0A123CF97C007D3C123CF97C007DEC
:1031A0000A123CF9AB07AE0CAF0D7C007D0A123C55
:1031B000F97C007D3C123CF97C007D0A123CF98DC3
:1031C0003175320C75330A75340A75350A7D0A7FFC
:1031D000201268E0D3E50F648094855003023767BE
:0331E0000237278C
:1031E300120003E92406F9E43AFA123D5BF5278558
:1031F300F02620086DAE26FF7C007D64123CA4AB54
:1032030007AE26AF277C007D0A123CA47C007D0A12
:10321300123CA48D348B3375310A75320AAE26AF56
:10322300277C007D0A123CA48D357B0C7D047F2214
:103233001268E0201303023767AF0AEF3395E0FE0D
:10324300C3E5279FE5269E500302345BAF0BEF33A4
:1032530095E0FED3E5279FE5269E500302376702DC
:10326300347C200803023767050FD3E50F6480948D
:10327300835067A213E433FFE50A75F064123C0838
:10328300FE75F00A123C08ADF0E50A75F00A123C2F
:1032930008FE75F00A123C08ABF0E50A75F00A1255
:1032A3003C0885F03175320CE50B75F064123C086F
:1032B300FE75F00A123C0885F033E50B75F00A122F
:1032C3003C08FE75F00A123C0885F034E50B75F0F6
:1032D3000A123C0885F0350233C8300E41A213E4CC
:1032E30033FF75310A75320CE50B75F064123C0837
:1032F300FE75F00A123C0885F033E50B75F00A12EF
:103303003C08FE75F00A123C0885F034E50B75F0B5
:103313000A123C0885F0357B0A7D0A0233C8300F58
:1033230040A213E433FFE50A75F064123C08FE750E
:10333300F00A123C08ADF0E50A75F00A123C08FEEB
:1033430075F00A123C08ABF0E50A75F00A123C0866
:1033530085F03175320C75330A75340A75350A8078
:1033630064300964E50A75F064123C08FF75F00ADD
:10337300123C08ADF0E50A75F00A123C08FF75F03F
:103383000A123C08ABF0E50A75F00A123C0885F016
:103393003175320CE50B75F064123C08FF75F00AC9
:1033A300123C0885F033E50B75F00A123C08FF75F3
:1033B300F00A123C0885F034E50B75F00A123C085C
:1033C30085F0357F0A1268E0D3E50F648094855059
:0733D30003023767023727F0
:1033DA00120003E92404F9E43AFA123D5BF5278561
:1033EA00F026FFAE26125CA18E288F293000030238
:1033FA0034877C007D64123CA47C007D0A123CA4C4
:10340A00AB05AE28AF297C007D0A123CA47C007D66
:10341A000A123CA4ED2414F5348B3375310A753243
:10342A000AAE28AF297C007D0A123CA48D357B0C9C
:10343A007D057F221268E0200A03023767AE28AFB3
:10344A00297C007D0A123CA4C3EF9414EE94005028
:10345A000A7DC87C007FB07E04801FAE28AF297C1D
:10346A00007D0A123CA4D3EF9428EE940050030284
:10347A0037677DC87C007FD07E07025FE4200003A7
:10348A00023767050FD3E50F648094834003023542
:10349A001FAE1BAF1C7C007D64123CA47C007D0A1D
:1034AA00123CA4AA05C002AE1BAF1C7C007D0A1206
:1034BA003CA47C007D0A123CA4ED2414FBAE1EAF92
:1034CA001F7C007D64123CA47C007D0A123CA4AAE5
:1034DA0005AE1EAF1F7C007D0A123CA47C007D0A4B
:1034EA00123CA4ED2414F5348A33A20AE433FFC053
:1034FA0007AE1BAF1C7C007D0A123CA48D317532CD
:10350A000CAE1EAF1F7C007D0A123CA48D35D0077D
:10351A00D005023646300650AE1EAF1F7C007D64D1
:10352A00123CA47C007D0A123CA4AB05AE1EAF1F60
:10353A007C007D0A123CA47C007D0A123CA4ED2486
:10354A0014F5348B33A20AE433FFC00775310A75C8
:10355A00320CAE1EAF1F7C007D0A123CA48D35D002
:10356A00077B0A7D0A023646300751AE1BAF1C7C28
:10357A00007D64123CA47C007D0A123CA4AA05AE1C
:10358A001BAF1C7C007D0A123CA47C007D0A123C05
:10359A00A4ED2414FBA20AE433FFC007AE1BAF1C40
:1035AA007C007D0A123CA48D3175320C75330A7584
:1035BA00340A75350AAD02D00702364620020302E4
:1035CA003649AE1BAF1C7C007D64123CA47C007D96
:1035DA000A123CA4AA05C002AE1BAF1C7C007D0ADD
:1035EA00123CA47C007D0A123CA4ED2414FBAE1EFE
:1035FA00AF1F7C007D64123CA47C007D0A123CA4AF
:10360A00AA05AE1EAF1F7C007D0A123CA47C007D79
:10361A000A123CA4ED2414F5348A33AE1BAF1C7C89
:10362A00007D0A123CA48D3175320CAE1EAF1F7C90
:10363A00007D0A123CA48D35D0057F0A1268E0D3BA
:0E364A00E50F6480948550030237670237272E
:10365800126205123D5BF52785F026126205E92402
:1036680002F9E43AFA123C2AF528AE26AF277C0084
:103678007D0A123CA48D29AE26AF277C007D0A1254
:103688003CA47C007D0A123CA4ED2414F52AAE2645
:10369800AF277C007D64123CA47C007D0A123CA408
:1036A8008D2BE52B7003752B0AE52875F00A8485A8
:1036B800F02CE52875F00A8475F00A8485F02D054C
:1036C8000FD3E50F6480948350028006200C1420E9
:1036D800031175310A753223852B33852A348529E0
:1036E800358012300C1575310A75322375330A7519
:1036F800340A75350AAB2CAD2D8016300318753198
:103708000A753223852B33852A348529357B0A7D32
:103718000A7F321268E0D3E50F648094854040E464
:03372800F50F2278
:10372B00126BAFBF031875310A75320A75330A7500
:10373B00340A75350A7B0C7D077F221268E0126B09
:10374B00AFBF021875313075322275330A75340AE2
:0D375B0075350A7B327D1E7F2D1268E0223D
:106A3E00E50E6002F51DE4F50E7D0AFC7F587E0220
:066A4E00125FE4D21222E7
:105CA100AD07AC06E4123A0BE4FBFA797A784412B8
:105CB10039698F318E308D2F8C2EAB31AA30A92FBF
:105CC100A82EE4FFFE7D807C3F12376BA804A90556
:105CD100AA06AB07AF31AE30AD2FAC2E1239691227
:105CE10050597B007AE0797678451239697B0F7AD1
:105CF100CF795B783B12376FA804A905AA06AB07D9
:105D0100E4FFFE7D807C3F1239697B337A93798889
:105D110078C312376F8F358E348D338C32E4FFFEAA
:105D21007D207C41AB35AA34A933A83212386012E8
:025D31003A44F2
:015D3300224D
:1048FA001266B5E50EB40A004003024BAA90490EAF
:10490A00F828287302492C02496F024BAA0249B1BE
:10491A000249F8024A48024A86024AE8024B490218
:10492A004B877531407532FF75331675344E7B40AF
:10493A00E4FDFF1260D37BFF7A00794F753310E4F0
:10494A00FDFF1263B67B1D7D037F401263FF7B1E52
:10495A007D037F501263FF7B1F7D037F601263FF1D
:10496A007B200249F17531407532FF753318753471
:10497A004E7B40E4FDFF1260D37BFF7A00796075BD
:10498A003310E4FDFF1263B67B217D037F4012637F
:10499A00FF7B227D037F501263FF7B237D037F60B1
:1049AA001263FF7B2480407531407532FF753308EE
:1049BA0075344E7B40E4FDFF1260D37BFF7A0079A9
:1049CA0071753310E4FDFF1263B6E4FB7D037F408B
:1049DA001263FF7B017D037F501263FF7B027D031D
:1049EA007F601263FF7B037D037F70024B84753106
:1049FA00407532FF75330C75344E7B40E4FDFF126F
:104A0A0060D37BFF7A007982753310E4FDFF12636D
:104A1A00B67B047D037F401263FF7B057D037F50D5
:104A2A001263FF7B067D037F601263FF7B077D05B0
:104A3A007F401263FF7B087D057F50024B847531EE
:104A4A00407532FF75331075344E7B40E4FDFF121A
:104A5A0060D37BFF7A007993753310E4FDFF12630C
:104A6A00B67B097D037F401263FF7B0A7D037F507B
:104A7A001263FF7B0B7D037F60024B8475314075A7
:104A8A0032FF75330E75344E7B40E4FDFF1260D35E
:104A9A007BFF7A0079A4753310E4FDFF1263B67BBD
:104AAA000C7D037F401263FF7B0D7D037F501263F1
:104ABA00FF7B0E7D037F601263FF7B0F7D037F7098
:104ACA001263FF7B107D057F401263FF7B117D051A
:104ADA007F501263FF7B127D057F60024B84753124
:104AEA00407532FF75330A75344E7B40E4FDFF1280
:104AFA0060D37BFF7A0079B5753310E4FDFF12634A
:104B0A00B67B137D037F401263FF7B147D037F50C6
:104B1A001263FF7B157D037F601263FF7B167D03A3
:104B2A007F701263FF7B177D057F401263FF7B183E
:104B3A007D057F501263FF7B197D057F60803B7581
:104B4A0031407532FF75331475344E7B40E4FDFFF6
:104B5A001260D37BFF7A0079C6753310E4FDFF1229
:104B6A0063B67B1A7D037F401263FF7B1B7D037F45
:104B7A00501263FF7B1C7D037F600263FF75314027
:104B8A007532FF75331275344E7B40E4FDFF1260B7
:104B9A00D37BFF7A0079D7753310E4FDFF1263B631
:014BAA0022E8
:1069F6007BFF7A1A79C87D067C001268077D0A7CBF
:086A0600007FD07E07025FE46F
:104D5700E50EB40A004003024EC2904D68F82828B9
:104D670073024D86024E0B024E7D024E85024E8D1A
:0F4D7700024E95024E9D024EA5024EAD024EB564
:104D8600E51D14B409004003024EC2904D9F75F014
:104D960003A4C58325F0C58373024DBA024DC30231
:104DA6004DCC024DD5024DDE024DE7024DF0024DCF
:104DB600F9024E027BFF7A1A79CE024EBB7BFF7A4E
:104DC6001A79D4024EBB7BFF7A1A79DA024EBB7B84
:104DD600FF7A1A79E0024EBB7BFF7A1A79E6024E19
:104DE600BB7BFF7A1A79EC024EBB7BFF7A1A79F20B
:104DF600024EBB7BFF7A1A79F8024EBB7BFF7A1A0A
:054E060079FE024EBB25
:104E0B00E50824FEB408004003024EC2904E2575FF
:104E1B00F003A4C58325F0C58373024E3D024E45B6
:104E2B00024E4D024E55024E5D024E65024E6D0214
:104E3B004E757BFF7A1B790480767BFF7A1B790A90
:104E4B00806E7BFF7A1B791080667BFF7A1B79164D
:104E5B00805E7BFF7A1B791C80567BFF7A1B792245
:104E6B00804E7BFF7A1B792880467BFF7A1B792E3D
:024E7B00803E77
:084E7D007BFF7A1B79348036BB
:084E85007BFF7A1B793A802EB5
:084E8D007BFF7A1B79408026AF
:084E95007BFF7A1B7946801EA9
:084E9D007BFF7A1B794C8016A3
:084EA5007BFF7A1B7952800E9D
:084EAD007BFF7A1B7958800697
:0D4EB5007BFF7A1B795E7D067C001268078A
:014EC20022CD
:096B62008B88898C88898F888951
:10430B0052027A868600868600868600868600861E
:09431B00860086860041026F094C
:03002B00026B9DC8
:066B9D0053BCEFD22532CB
:024BAB0015668D
:104BAD00202503024D54C22590026EE0B409004049
:104BBD0003024D36904BC8F8282873024C0F024B58
:104BCD00E3024BF5024C21024BE3024BF5024C384C
:104BDD00024BE3024BF5AFBDEFFEADBE7C00E42D05
:104BED00FFEC3E900270803CAFBDEFFEADBE7C0091
:104BFD00E42DFFEC3E900272F0A3EFF0755B010225
:104C0D004D3CAFBDEFFEADBE7C00E42DFFEC3E9004
:104C1D0002748010AFBDEFFEADBE7C00E42DFFEC45
:104C2D003E900276F0A3EFF0024D3CAFBDEFFEAD2E
:104C3D00BE7C00E42DFFEC3E900278F0A3EFF090E7
:104C4D000278E0FEA3E07807CEC313CE13D8F9A8FF
:104C5D0066F6C394065013A866E675F003A4247A8D
:104C6D00F582E43402F583E014F090026FE014F065
:104C7D006003024D3C7409F0A866E4F6A866E6FFF1
:104C8D00C394064003024D3CEF75F003A4247AF55E
:104C9D0082E43402F583E0C39480502AE6FF75F078
:104CAD0003A4247BF582E43402F583E0D3948040A1
:104CBD0040EF75F003A4247CF582E43402F583748F
:104CCD0001F0F55C802BA866E6FF75F003A4247B4C
:104CDD00F582E43402F583E0C394805014EF75F04F
:104CED0003A4247CF582E43402F5837402F0755C30
:104CFD0001A866E6FF75F003A4247AF582E4340278
:104D0D00F583E0FEEF75F003A4247BF582E4340215
:104D1D00F583EEF0E675F003A4247AF582E434020F
:104D2D00F5837486F006024C8990026E74FFF09044
:104D3D00026EE0D39407400374FFF090026EE0041E
:074D4D00F0906B6293F5BCCE
:034D5400056622CF
:026AFD0015661C
:096AFF00A866A65CE4F55CE6FF64
:036B0800056622FD
:026B0B0015660D
:096B0D00A866A65BE4F55BE6FF57
:036B1600056622EF
:106653008F9D75BC88439720D2AD90024574FFF09F
:10666300A3744BF0A374ABF0A374FFF0A3746AF0AC
:10667300A374FDF0A374FFF0A3746BF0A3740BF089
:0166830022F4
:070003007B017A02797022F3
:10648E00C3EF64809480403BD3EF64809485503397
:10649E00EFFD3395E0FC90027C75F003ED123F04A6
:1064AE00EC75F003A42583F583E0FE90027C75F075
:1064BE0003ED123F04EC75F003A42583F583E4F09D
:0564CE00AF06227F0370
:0164D30022A6
:04678F001566156610
:10679300126B74A866A60608A607A866E6FE08E6B6
:0F67A300FF4E600BEF24FFFFEE34FFFE126B7D05
:0567B2000566056622EA
:1068C00053B1EF43B210126BB5E4F5D975DA49D282
:1068D000DE90023F74FFF0A37467F0A3748FF02280
:085FE4008E318F328C338D34B5
:105FEC00126B74EF4E7066AF34AE33126B7DC3E53B
:105FFC0032940AE5319400404BE47B18FAF9F8909E
:10600C001A4E123ED8123E11C006C007AE31AF3246
:10601C00AB07AA06E4F9F8D007D006123E11AB077D
:10602C00AA06AFF9EFFEADE97C00E42DFFEC3ECF04
:10603C002BCF3AAD07FCAF03AE02126AA1D2D84304
:0F604C00DA018006126BB553DAFE7F02227F0362
:01605B002222
:0C6B3500126B74EF4E7002FF227F0122F1
:1056BE00E4F5809002BCE0FFB40800505F9056D233
:1056CE00F82828730256EA0256F00256F60256FCE5
:1056DE0002570202570C025716025720C2A3C2A24B
:1056EE008016C2A3C2A2801AC2A3C2A2801EC2A3E7
:1056FE00C2A28022C2A3D2A2C2A1C2A08020C2A3F3
:10570E00D2A2C2A1D2A08016C2A3D2A2D2A1C2A0FE
:10571E00800CC2A3D2A2D2A1D2A08002D2A3C3EF88
:10572E006480948850299002BCE0FF3395E0FE74AB
:10573E00B32FF58274023EF583E0FF3395E0FE74DD
:10574E00522FF582741A3EF583E493F580801E90F5
:10575E0002BCE0FFB408133395E0FE74B32FF5825C
:10576E0074023EF583E0F5808003E4F5809002B28A
:10577E00E0FF9002BCE004FEF0D3EF6480F8EE642C
:10578E0080984014E0D36480948850047408F0220A
:09579E009002B1E09002BCF0227F
:10697600E4F5937594FF5395F043960F90022A74AD
:0B698600FFF0A37456F0A374BEF022D3
:096B6B009002B1EFF0A3EDF0225D
:1068E0009002B3EFF0A3EDF0A3EBF0A3E531F0A33A
:1068F000E532F0A3E533F0A3E534F0A3E535F0226B
:066BA3009002BBEFF0229E
:104324000161004902BE9494009494009494004165
:0343340002BD1EA9
:0253B000156680
:1053B20020B2069002BEE014F020B3069002C1E0D3
:1053C20014F02097069002C4E014F09002BDE0149D
:1053D200F060030254D0741EF0A866E4F6A866E6F4
:1053E200FFC36480948340030254D0EF3395E0FE00
:1053F2009002BE75F003EF123F04EE75F003A42590
:1054020083F583E0C3948050399002BF75F003EFB7
:10541200123F04EE75F003A42583F583E0D3948054
:10542200405AE6FF3395E0FE9002C075F003EF129A
:105432003F04EE75F003A42583F5837401F0F56152
:10544200803AA866E6FF3395E0FE9002BF75F0034E
:10545200EF123F04EE75F003A42583F583E0C394B5
:105462008050199002C075F003EF123F04EE75F000
:1054720003A42583F5837402F0756101A866E6FF33
:10548200FD3395E0FC9002BE75F003ED123F04EC93
:1054920075F003A42583F583E0FE9002BF75F00347
:1054A200ED123F04EC75F003A42583F583EEF0EFD3
:1054B2003395E0FE9002BE75F003EF123F04EE75E5
:0E54C200F003A42583F5837494F0060253DFF3
:0354D0000566224C
:026B19001566FF
:096B1B00A866A661E4F561E6FF3D
:036B2400056622E1
:1069200090023074FFF0A3746BF0A37419F090021E
:0D6930002D74FFF0A37453F0A374B0F02297
:10655C00EF600764016003BF0233EFFD3395E0FC8D
:10656C009002C075F003ED123F04EC75F003A42506
:10657C0083F583E0FE9002C075F003ED123F04EC4E
:0F658C0075F003A42583F583E4F0AF06227F03A7
:01659B0022DD
:104337004102000A4102290A41026D0A04450000B0
:104347000000014B004602670000FFFF8FFFC123FB
:10435700C11BC11EC117C12460240205FF000AFF4B
:10436700000AFF000AFF000AFF000AFF000AFF0019
:104377000AFF000AFF000AFF000AFF000AFF000AFF
:104387006036022AFF000AFF000AFF0026FF000A24
:10439700FF0026FF000AFF0026FF000AFF000AFFB2
:1043A700000AFF0026FF0026FF0026FF0026FF0069
:0A43B7000AFF000AFF000AFF000AD7
:01000A0022D3
:030026007F002236
:10644700438E805389F07BE07A2879017800901A8F
:106457004E123ED8126518EFF404F58A7BE07A28CD
:1064670079017800901A4E123ED8126518C3E49F3E
:10647700FFE49EFE74019DFDE49CFC7808123EC477
:076487008F8CD28CD2A922F8
:03000B0002636429
:04636400C0E0C0D005
:10636800D53F0A753F4C302302054BD223A2197240
:106378001A50361541E5417030854341D21D302011
:1063880017E54460071544438F01801D538FFEC2F3
:10639800B5D54D15C22080110542E542D39406407B
:0963A80008C219E54A6002D21C8A
:0563B100D0D0D0E03265
:10631100302447C224901A4E123ED87810123EC43F
:106321008E5D8F5E900203E0FEA3E0FFE4FCFD7B47
:1063310019FAF9F8123D86C006C007AE5DAF5EAB33
:1063410007AA06E4F9F8D007D006126518780312F7
:106351003EC4900265EEF0A3EFF0900265E0FEA36B
:02636100E0FF5B
:016363002217
:096B7400900267E0FEA3E0FF229D
:096B7D00900267EEF0A3EFF02294
:106AA10090026BEEF0A3EFF0900269ECF0A3EDF031
:016AB10022C2
:036BB500C2B42245
:03003B00025B5411
:105B5400C0E0C083C082C0D075D000C004C005C0FE
:035B640006C00771
:105B670030DF04C2DF807D30DA04C2DA807630D9D4
:105B77003DC2D9AFFBEFFEADEB7C00E42DFFEC3E61
:105B870020160E900201F0A3EFF075DB11D21680FC
:105B970053FE900201E0FCA3E0FDC3EF9DFFEE9CE6
:105BA700A3F0A3EFF075DB00C216D224803630D8FD
:105BB70033C2D8900267E07002A3E06022B2B490CB
:105BC7000269E0FEA3E0F5EAEEF5FAA3E0FEA3E042
:105BD700FF90026AE02FF0900269E03EF08005C274
:045BE700B453DAFEDB
:105BEB00D007D006D005D004D0D0D082D083D0E05F
:015BFB003277
:066BA900126447D2AF2286
:105E5300301A047F0180027F002020047E0180022B
:105E63007E00EE5F6074E54CC39540506830183691
:105E7300754401E54C131313541FAB4EAA4FA9509D
:105E8300F582758300123C43FFE54C540704FEEF93
:105E9300A806088002C333D8FC30D705754D0380AC
:105EA3002F754D01802AAB4EAA4FA95075F002E51C
:105EB3004CA4F58285F083123C43F544E54C75F020
:105EC30002A429F9EA35F0FA900001123C43F54D9A
:0A5ED300054CD22022C21A438F10A2
:015EDD0022A2
:1055D100900200E014F0701F740AF0D21B900229AF
:1055E100E014F07012740AF0D21E90026DE014F013
:1055F1007005740AF0D21790022AA3E0FAA3E0F929
:10560100123F1090022DA3E0FAA3E0F9123F10908F
:105611000239A3E0FAA3E0F9123F10900245A3E09A
:10562100FAA3E0F9123F10900254A3E0FAA3E0F9C3
:10563100123F1090025DA3E0FAA3E0F9123F10902F
:10564100024BA3E0FAA3E0F9123F10EF600C9002C5
:105651001DA3E0FAA3E0F9123F1090024EA3E0FA75
:10566100A3E0F9123F10EF600E900220A3E0FAA32D
:10567100E0F9123F10D221E549D394004016D549F3
:1056810030301F0C900223A3E0FAA3E0F9123F107F
:10569100D222801D900251A3E0FAA3E0F9123F103B
:1056A100EF600E900223A3E0FAA3E0F9123F10D2BB
:0D56B10022900205A3E0FAA3E0F9023F10E9
:105D340090023FA3E0FAA3E0F9123F10900242A3BD
:105D4400E0FAA3E0F9123F10900233A3E0FAA3E0D3
:105D5400F9123F10900208A3E0FAA3E0F9123F10F1
:105D6400900230A3E0FAA3E0F9123F10EF600C9028
:105D74000211A3E0FAA3E0F9123F10900236A3E067
:105D8400FAA3E0F9123F10EF600C900217A3E0FAB7
:105D9400A3E0F9123F10900248A3E0FAA3E0F9123D
:105DA4003F10EF600C90021AA3E0FAA3E0F9123F4F
:105DB40010301C0EC21C900226A3E0FAA3E0F912D4
:035DC4003F10226B
:10659C0090020BA3E0FAA3E0F9123F1090023CA387
:1065AC00E0FAA3E0F9123F10EF600C900214A3E0A4
:1065BC00FAA3E0F9123F10900257A3E0FAA3E0F916
:0F65CC00123F1090025AA3E0FAA3E0F9023F1029
:10671300AF48AE47AD46AC45900260123EF89002DA
:1067230064E54BF0E4F548F547F546F545F54B9040
:0B673300020EA3E0FAA3E0F9023F1001
:1065DB00301D05C21D125E53302305C2231255D147
:1065EB00301B05C21B125D34301E05C21E12659C8A
:1065FB00301705C217126713E5482401F548E43537
:0E660B0047F547E43546F546E43545F54522AA
:105F67008B268A278928EFB40C005070905F7AF847
:105F7700282873025F9E025FA3025FA8025FAD023B
:105F87005FB2025FB7025FBC025FC1025FC6025F1A
:105F9700CB025FD0025FD590020580359002088062
:105FA7003090020B802B90020E80269002118021E8
:105FB700900217801C900214801790021A8012908A
:105FC700021D800D9002208008900223800390021A
:0D5FD70026E526F0A3E527F0A3E528F0223B
:076B8F007B017A027960220C
:0743C1000162004102D90076
:0D002E0020A4097562019002D97401F0222E
:026B27001566F1
:096B2900A866A662E4F562E6FF2D
:036B3200056622D3
:10693D0090023C74FFF0A3746BF0A37427F09002E7
:0D694D003974FFF0A37400F0A3742EF02243
:026AB200156667
:0A6AB4009002D9E0A866F6FFE4F0B6
:036ABE0005662248
:10528A0000C400DC00F701060126014A0172018808
:10529A0001B801EE020B024B029302E40310037001
:1052AA0003DC04160497052605C800DC00F701157F
:1052BA000126014A0172019F01B801EE022A024B3E
:1052CA00029302E4033F037003DC045504970526A6
:1052DA0005C8067D00F701150137014A0172019FD1
:1052EA0001D201EE022A026E029302E4033F03A4F2
:1052FA0003DC045504DD057505C8067D074901066A
:10530A000126014A015D018801B801EE020B024B38
:10531A00029302BA0310037003DC041604970526ED
:10532A000575062006E007B80126014A01720188C0
:10533A0001B801EE022A024B029302E40310037041
:10534A0003DC04550497052605C8062006E007B8BD
:10535A0008AA014A0172019F01B801EE022A026EEF
:10536A00029302E4033F037003DC045504DD0526BF
:10537A0005C8067D06E007B808AA09B9015D0188D3
:10538A0001B801D2020B024B029302BA0310037056
:10539A0003A40416049705260575062006E00749A6
:0653AA00082D092D0A4D3B
:1043C8004D02A403000000000000000000000000EF
:065AAA008F268D278B28DA
:105AB000126B35EF60037F0122E528D39400400686
:105AC000E52894114028E528D394174006E528944A
:105AD00021401BE528D394274006E5289431400E49
:105AE000E528D394375007E526C394F950037F0384
:105AF00022E528603DC4540F75F007A4FDACF0E525
:105B00002675F015A42DFFE5F03CFEE52854077C32
:105B1000002FFFEC3EFEEF25E0FFEE33FE74A02FDA
:105B2000F58274293EF583E493F52A740193F52BED
:105B30008005E4F52AF52BAF297E007C017D7712E4
:105B40003C92AD271C123CA4AD07AC06AF2BAE2A8D
:035B5000125FE4FD
:015B5300222F
:0446040015661566BC
:10460800126B35EF70047F0180027F009002A4E0F6
:10461800FEB402047D0180027D00ED5F6003024864
:10462800F5EEB4030AE49002A2F0A3F00248F59074
:1046380002A5E0FFB4F3047E0180027E00EFB4F12E
:10464800047F0180027F00EF4E603E9002A7E0FEEB
:1046580075F06484FFEE75F00A8475F00A84ADF095
:10466800E075F00A84ABF075310A9002A6E02407E1
:10467800F5329002A1E0FEC4540F240AF5337534D4
:104688000AEE5407F5351268E09002A5E0FFB4F38E
:10469800047E0180027E00EFB4F2047F0180027F75
:1046A80000EF4E700302474E9002A7E0FD7C007EAB
:1046B800177F70123CA4A866A607E6F975F002A455
:1046C800FFC39002B0E09F9002AFE095F05070E019
:1046D800FEA3E0FF7C007D0B123C92E9FBFD123C3F
:1046E800A4A86608A6079002AFE475F001123D453C
:1046F800FED3E5F09BEE94004018A86608E624F97E
:10470800FFE47EF0A807088005CEC313CE13D8F9BE
:10471800801FA86608E6FF740F7E00A807088005BA
:10472800C333CE33CED8F97804CEA2E713CE13D84C
:10473800F8A86608F6A86608E6FF126BA38007E4E7
:104748009002AFF0A3F09002ABE0FEA3E0FFC390AD
:1047580002AEE09F9002ADE09E40030248EF126B6C
:1047680035EF60030248F59002A8E0FBA3E0FAA346
:10477800E0F99002ADE0FEA3E0F5828E83123C439F
:10478800FFD39437500302488AEF241024FC507951
:10479800604524FE700302483514700302484B2418
:1047A8000260030248799002A8E0FBA3E0FAA3E0C4
:1047B800F99002ADE475F001123D2F85F082F58382
:1047C800123C439002A6F09002AEE004F07098907C
:1047D80002ADE004F080909002A8E0FBA3E0FAA309
:1047E800E0F99002ADE475F001123D2F85F082F5F5
:1047F80083123C439002A7F09002AEE004F0706E82
:104808009002ADE004F002476F9002A8E0FBA3E03D
:10481800FAA3E0F99002ADE475F001123D4585F088
:1048280082F583123C439002A5F002476F9002ADD7
:10483800E475F001123D2FAFF09002A2F0A3EFF063
:1048480002476F9002A2E0FEA3E0FF4E60129002C2
:10485800ADEEF0A3EFF0E49002A2F0A3F002476FF0
:104868009002AEE004F070069002ADE004F002475A
:104878006F9002AEE004F070069002ADE004F00222
:10488800476F9002ABE0FEA3E0FFC39002AEE09F4B
:104898009002ADE09E50569002A8E0FBA3E0FAA378
:1048A800E0F99002ADE475F001123D4585F082F51E
:1048B80083123C439002A1F09002A6E0FFA3E0FD22
:1048C800A3E0FBA3E0FAA3E0F99002ADE475F001E0
:1048D800123D4585F082F583123C43F5299002A1EB
:0D48E800E0FB125AAA80069002A47403F0AF
:0548F5000566056622C6
:0F6AC10090024274FFF0A37446F0A37404F02215
:106261009002A4E0B4030DE49002ADF0A3F0A3F01A
:10627100A3F0C226EF60049002A7F0ED6004900243
:10628100A6F0E94A60047F0180027F00E52E452DDA
:1062910060047E0180027E00EE5F60139002A8EB35
:1062A100F0A3EAF0A3E9F0A3E52DF0A3E52EF0E5D4
:0862B1002F60049002A5F02209
:1067B700BF02047E0180027E00BF01047D018002CA
:1067C7007D00ED4EFEBF03047D0180027D00ED4E8E
:0867D70060059002A4EFF0221E
:066BAF009002A4E0FF22A9
:0443D8004102CF01CE
:1069AB00C295E4FEEF1392CC000000D29500EFC32A
:0869BB0013FFC2950EBE08ECAB
:0169C30022B1
:106A0E00E4FEEFC313FF30CC03430780D2950000A2
:076A1E0000C2950EBE08EB5B
:016A2500224E
:1066E500F07F851266F8A3EFF07F871266F8A3EFB7
:0366F500F07F89AA
:1066F800C296000000C295000000D296001269AB55
:0A670800126A0ED295000000C2963E
:016712002264
:03690000A3E0FD14
:10690300C296000000C295000000D296001269AB47
:0D691300AF051269ABD295000000C29622BC
:076B96007B017A0279C8229D
:1069C40078C87C027D017B007A00792D7E007F07E8
:0969D400123BE2E49002CFF02234
:106A8F00EFD3941F5009EF25E044C1FF0266F87F52
:026A9F000122D2
:10673E00AC07AB05ECD3941F501CE4FD7F8E1269A1
:10674E0003EC25E044C0FFAD031269037D807F8E0C
:09675E001269037F00227F012271
:025BFC0015662C
:105BFE009002CFE060447F811266F8A866EFF690BF
:105C0E0002C8E06F7003025C9EA866E6F07F831206
:105C1E0066F8A866EFF6A3E06F6075A866E61266F2
:105C2E00E5A3EFF07F8D1266F89002CEEFF07F8B3A
:105C3E001266F89002CDEFF080569002C7E0FF0496
:105C4E00F0EFC3940A4049E4F09002CF04F0E4FD73
:105C5E007F8E1269039002C8E0FD7F801269037F78
:105C6E00821269007F84126900A3E0FD7F861269AB
:105C7E0003A3E0FD7F88126903A3E0FD7F8A12690A
:105C8E0003A3E0FD7F8C1269037D807F8E12690372
:035C9E0005662276
:1054D3007F811266F89002C8EFF07F831266F8A30B
:1054E300EF1266E5A3EFF07F8B1266F8A3EFF07F70
:1054F3008D1266F8A3EFF0E4FD7F8E1269037F1E21
:10550300126A8FEF64A560047F0180027F0090021E
:10551300C8E05480FEA3E0D3945940047D01800287
:105523007D00ED4EFE9002CAE0D394A440047D01B9
:1055330080027D00ED4EFE9002CBE0D39431400417
:105543007D0180027D00ED4EFE9002CCE0D39412EB
:1055530040047D0180027D00ED4EFE9002CDE0D33C
:10556300940740047D0180027D00ED4EFE9002CE43
:10557300E0D3949940047D0180027D00ED4E4F609D
:1055830030782D7C007D007B007A0079267E007FB9
:1055930007123BE21269C47DA57F1E12673E78C8DD
:1055A3007C027D017B007A0079267E007F07123B17
:1055B300E27DA97F901269037D807F8E126903903B
:0E55C300025A74FFF0A3745BF0A374FCF02294
:0B43DC004802D0D4111A50400288A5FE
:096A69007F03126A72D2C57F039B
:0A6A7200AE071FEE60030080F7225C
:106A7C00D2A7126A69C2A77F03126A72C2C57F03CA
:036A8C00026A7229
:0C6B4100C2A7126A69D2A77F03026A7221
:10695A00E4FFD2C530A709EFC394FA50030F80F4BD
:0C696A007F03126A72C2C57F03026A72CA
:0267DF00AD0704
:1067E100E4FBC2C57F03126A72ED3392A7ED25E087
:1067F100FD126A690BBB08EAC2C57F03126A72D235
:06680100C57F03026A726C
:0264D40015664B
:1064D6009002D8E064017037126A7C7F201267DF71
:1064E60012695AA866E4F6A866E6FFC39408501730
:1064F60074D02FF582E43402F583E0FF1267DF12D1
:0F650600695AA8660680E0126B41E49002D8F053
:03651500056622F6
:106205009002D2E025E025E0FFA3E0C41313540378
:106215002F2466F538E43403F5379002D7E0540FA0
:10622500F5399002D5E0543FFF5403FEBE030575D2
:106235003AFF8003E4F53AEF540CFEBE0C05753BBE
:10624500FF8003E4F53BEF5430FFBF3005753CFF9D
:0B6255008003E4F53C7B007A00793701
:01626000221B
:1059F400D3E5329438E531940450047F0180027F6A
:105A040000C3E5329466E531940340047E018002CC
:105A14007E00EE5F6030126205123D5B65327004F9
:105A2400E5F065316020E532249AFD1313543F906C
:105A340002D2F0ED5403FFC4333354C04410A3F036
:105A44009002D87401F0126205E92402F9E43AFAEA
:105A5400123C2A653360047F0180027F00E533D362
:105A6400940F50047E0180027E00EE5F6011E533E6
:105A7400540FFF9002D7E054F04FF0A37401F07D6F
:105A84002AE5346003430501E5356003430504E575
:105A94003660034305109002D5E06D6008EDF09088
:055AA40002D87401F0BE
:015AA90022DA
:1068560078317C007D007B007A0079267E007F06F9
:10686600123BE21259F490025774FFF0A37464F0DD
:05687600A374D4F02220
:1043E70055028C00000000000000000000000000E3
:0843F7000000010000000000BD
:0300230002515A2D
:10515A00C0E0C0F0C083C082C0D075D000C000C01B
:10516A0001C002C003C004C005C006C00730993B95
:10517A00C299900291E0FEA3E0FFC3900290E09FE3
:10518A0090028FE09E501F90028CE0FBA3E0FAA3EE
:10519A00E0F9A3E475F001123D4585F082F583122A
:1051AA003C43F5998005900293E4F020980302525B
:1051BA006FC298302109C221900299E4F0A3F090BD
:1051CA000297E0FEA3E0FFA3E0FCA3E0FDC39FEC8F
:1051DA009E5077900294E0FBA3E0FAA3E0F98D8257
:1051EA008C83E599123C7090029FE0FEA3E0FFC316
:1051FA00ED9FEC9E5046900297E0FCA3E0FDEF9DE8
:10520A00EE9C503890029CE0FBA3E0FAA3E0F990F0
:10521A000299E0FEA3E0FFF5828E83123C43FD90E3
:10522A000294E0FBA3E0FAA3E0F98F828E83123C9A
:10523A00436D600890029974FFF0A3F090029AE01F
:10524A0004F07006900299E004F0900297E0FEA341
:10525A00E0FFC390029AE09F900299E09E40069078
:10526A00029B7401F0D007D006D005D004D003D039
:10527A0002D001D000D0D0D082D083D0F0D0E0329A
:026AD000156649
:0A6AD20090029BE0A866F6FFE4F0D6
:036ADC000566222A
:10605C008F298E288D278C26759850438E40538E11
:10606C00FE53890FE47B04FAF9F8901A4E123ED8CD
:10607C00123E11AB29AA28A927A826123E11EFF42B
:10608C0004F58BE47B04FAF9F8901A4E123ED81200
:10609C003E11AB29AA28A927A826123E11C3E49FBA
:1060AC00FFE49EFE74019DFDE49CFC7808123EB159
:1060BC008F8DC2ABD28ED2AC90024E74FFF0A37413
:0760CC006AF0A374D0F0227A
:10668400900294EBF0A3EAF0A3E9F0A3ECF0A3EDFD
:10669400F090029FE52EF0A3E52FF090029CE52BED
:1066A400F0A3E52CF0A3E52DF0D221E490029BF0B9
:0166B40022C3
:10680700900293E0701F90028CEBF0A3EAF0A3E9EB
:10681700F0E4A3F0A3F0A3ECF0A3EDF0A37401F070
:08682700D2997F02227F0322B7
:0B6B4D00900293E07002FF227F012203
:101B64000000000000000000002F0000000007003B
:101B7400070000147F147F1400242A7F2A120062B5
:101B84006408132300364955225000000503000061
:101B940000001C224100000041221C000014083EE9
:101BA40008140008083E0808000000A060000008AF
:101BB4000808080800006060000000201008040203
:101BC400003E5149453E0000427F400000426151C1
:101BD4004946002141454B31001814127F1000275B
:101BE40045454539003C4A4949300001710905031E
:101BF40000364949493600064949291E000036364F
:101C040000000000563600000008142241000014B1
:101C1400141414140000412214080002015109068E
:101C240000324959513E007C1211127C007F49490F
:101C34004936003E41414122007F4141221C007F40
:101C440049494941007F09090901003E4149497A4E
:101C5400007F0808087F0000417F410000204041C8
:101C64003F01007F08142241007F40404040007F34
:101C7400020C027F007F0408107F003E4141413E78
:101C8400007F09090906003E4151215E007F0919C0
:101C940029460046494949310001017F0101003FBD
:101CA4004040403F001F2040201F003F4038403F3D
:101CB40000631408146300070870080700615149A1
:101CC400454300007F41410000552A552A55000034
:101CD40041417F00000402010204004040404040B2
:101CE400000001020400002054545478007F48444A
:101CF400443800384444442000384444487F003881
:101D04005454541800087E0901020018A4A4A47CA9
:101D1400007F080404780000447D40000040808473
:101D24007D00007F102844000000417F4000007CBB
:101D340004180478007C08040478003844444438C7
:101D440000FC242424180018242418FC007C080413
:101D5400040800485454542000043F444020003CEC
:101D64004040207C001C2040201C003C4030403C73
:101D7400004428102844001CA0A0A07C0044645403
:101D84004C44141414141414000000000000000047
:101D94000000000000000000000000F80000000047
:101DA400000000333000000000100C06100C060088
:101DB400000000000000000040C07840C0784000EF
:101DC400043F04043F040400007088FC0830000051
:101DD400001820FF211E0000F008F000E0180000A9
:101DE40000211C031E211E0000F008887000000062
:101DF4001E2123241927211010160E0000000000B4
:101E04000000000000000000000000E018040200D0
:101E1400000000071820400000020418E000000041
:101E24000040201807000000404080F0804040003F
:101E34000202010F01020200000000F00000000095
:101E44000101011F01010100000000000000000069
:101E540080B07000000000000000000000000000DE
:101E64000001010101010101000000000000000067
:101E74000030300000000000000000008060180402
:101E8400006018060100000000E010080810E000DF
:101E9400000F102020100F00001010F800000000A8
:101EA4000020203F202000000070080808887000EF
:101EB400003028242221300000300888884830006F
:101EC4000018202020110E000000C02010F800008F
:101ED40000070424243F240000F808888808080028
:101EE4000019212020110E0000E01088881800003D
:101EF400000F112020110E0000380808C83808000F
:101F04000000003F0000000000708808088870008E
:101F1400001C222121221C0000E010080810E0000F
:101F24000000312222110F00000000C0C000000098
:101F340000000030300000000000008000000000BD
:101F440000008060000000000000804020100800B5
:101F5400000102040810200040404040404040007E
:101F64000404040404040400000810204080000059
:101F74000020100804020100007048080808F0005E
:101F84000000003036010000C030C828E810E0002E
:101F94000718272423140B000000C038E0000000B9
:101FA400203C23020227382008F888888870000023
:101FB400203F202020110E00C030080808083800F7
:101FC400071820202010080008F808080810E0006E
:101FD400203F202020100F0008F88888E80810000F
:101FE400203F20202320180008F88888E8081000E3
:101FF400203F200003000000C0300808083800001B
:1020040007182020221E020008F808000008F8081B
:10201400203F210101213F20000808F808080000A2
:102024000020203F2020000000000808F8080800D5
:10203400C08080807F00000008F888C0281808004D
:10204400203F20012638200008F808000000000086
:10205400203F20202020300008F8F800F8F808007D
:10206400203F003F003F200008F830C00008F80877
:10207400203F200007183F00E01008080810E00087
:102084000F10202020100F0008F808080808F0009E
:10209400203F210101010000E01008080810E000C1
:1020A4000F18242438504F0008F888888888700056
:1020B400203F2000030C30200070880808083800F6
:1020C4000038202121221C00180808F808081800EC
:1020D4000000203F2000000008F808000008F8086D
:1020E400001F202020201F000878880000C838081E
:1020F400000007380E010000F80800F80008F80096
:10210400033C0700073C030008186880806818082F
:1021140020302C03032C30200838C800C8380800AD
:102124000000203F2000000010080808C8380800FC
:102134002038262120201800000000FE02020200A0
:102144000000007F40404000000C30C00000000050
:10215400000000010638C00000020202FE00000078
:10216400004040407F00000000000402020204001E
:10217400000000000000000000000000000000005B
:102184008080808080808080000202040000000043
:10219400000000000000000000008080808000003B
:1021A4000019242222223F2008F800808000000029
:1021B400003F112020110E000000008080800000EC
:1021C400000E112020201100000000808088F800FB
:1021D400000E112020103F2000008080808000002D
:1021E400001F222222221300008080F08888881891
:1021F4000020203F2020000000008080808080009C
:10220400006B94949493600008F800808080000030
:10221400203F210000203F2000809898000000000B
:102224000020203F2020000000000080989800003B
:1022340000C08080807F000008F80000808080005B
:10224400203F24022D302000000808F80000000080
:102254000020203F2020000080808080808080003B
:10226400203F20003F20003F8080008080800000CD
:10227400203F210000203F2000008080808000005B
:10228400001F202020201F0080800080800000008C
:1022940080FFA12020110E000000008080808000BB
:1022A400000E112020A0FF808080800080808000AC
:1022B40020203F21200001000000808080808000D9
:1022C4000033242424241900008080E0808000004E
:1022D4000000001F2020000080800000008080009B
:1022E400001F202020103F208080800000808080FC
:1022F40000010E300806010080800080008080808C
:102304000F300C030C300F000080800080808000B0
:102314000020312E0E3120008080800000808080DB
:1023240080818E701806010000808080808080008B
:102334000021302C2221300000000000807C0202A9
:1023440000000000003F404000000000FF000000CB
:1023540000000000FF0000000002027C800000007A
:102364000040403F00000000000601010202040496
:102374000000000000000000100C04841464050632
:10238400F404040404140C00000000000000000025
:102394000000000000000000048484444724140C5E
:1023A400070C142444840400000000000000000012
:1023B400000000000000000000FC848484FC001085
:1023C40010101010FF1010000000000000000000AA
:1023D4000000000000000000003F1010103F00004B
:1023E400010640807F0000000000000000000000A3
:1023F400000000000000000000FC848484FC001045
:1024040010101010FF101000000000000000000069
:102414000000000000000000003F1010103F00000A
:10242400010640807F000000000000000000000062
:10243400000000000000000020102CE7242400F01D
:102444001010FF1010F00000000000000000000059
:1024540000000000000000000101017F21110007BD
:102464000202FF020207000000000000000000005A
:1024740000000000000000000434C404C43C000454
:10248400FC040404C43C0000000000000000000040
:10249400000000000000000040300C030C308040BD
:1024A40020130C13204080000000000000000000F6
:1024B40000000000000000004042CC0000E2222A9C
:1024C4002AF22A2622E0000000000000000000009A
:1024D400000000000000000080403F4080FF898928
:1024E40089BF89A9C9BF8000000000000000000066
:1024F4000000000000000000404042CC0008E9AAAF
:10250400B8A8A8AAE9080000000000000000000024
:1025140000000000000000000040201F20405F4A2F
:102524004A4A4A4A5F4040000000000000000000A0
:1025340000000000000000002424A4FE232200C0A8
:102544003800FF00081060000000000000000000D8
:102554000000000000000000080601FF0106818061
:10256400404027100C0300000000000000000000A1
:10257400000000000000000000042424242424FFA0
:10258400242424242404000000000000000000008F
:10259400000000000000000021211109FD834123F7
:1025A4000509112925414100000000000000000038
:1025B4000000000000000000100C4444444445C6E0
:1025C4004444444444140C00000000000000000093
:1025D40000000000000000008040201E2040407FDA
:1025E4004444444444404000000000000000000013
:1025F400000000000000000000FC848484FC001043
:1026040010101010FF101000000000000000000067
:102614000000000000000000003F1010103F000008
:10262400010640807F000000000000000000000060
:10263400000000000000000080809E9292929EE0C4
:10264400809EB2D2929E8000000000000000000034
:1026540000000000000000000808F4949292F100C9
:1026640001F2929494F808000000000000000000B9
:1026740000000000000000004040424458C0407F79
:1026840040C05048464040000000000000000000E8
:1026940000000000000000008080402018070000B7
:1026A400003F40404040780000000000000000006F
:1026B40000000000000000000000FC04D454545446
:1026C400D4047F84C536040000000000000000002C
:1026D400000000000000000088660100638282920E
:1026E400AB8482C10224CF0000000000000000007F
:1026F400000000000000000000007E0000FF004019
:10270400300F041464040000000000000000000006
:10271400000000000000000040407E42427E424231
:10272400427E42427E404000000000000000000063
:1027340000000000000000001060028C00FE02F2A5
:1027440002FE00F800FF000000000000000000008E
:10275400000000000000000004047E018047300FE8
:1027640010270047807F00000000000000000000E8
:1027740000000000000000000000E09F88888888B6
:102784008888888888080000000000000000000095
:1027940000000000000000000808080808080808F5
:1027A400084880403F0000000000000000000000D6
:1027B4000000000000000000101010FF109000FE48
:1027C40082828292A29E00000000000000000000AD
:1027D40000000000000000000444827F010000FFAC
:1027E40080432C102C4380000000000000000000F7
:1027F400000000000000000012EAAFAAEA0FFA028B
:10280400888C5724548C84000000000000000000D1
:1028140000000000000000000202EAAAAAABAAAB72
:10282400AAAAAAAAEA02020000000000000000000E
:1028340000000000000000001060028C0000FE9206
:1028440092929292FE00000000000000000000003E
:10285400000000000000000004047E01407E4242AB
:102864007E427E42427E40000000000000000000E4
:1028740000000000000000000000FC242424FC25CB
:102884002624FC242424040000000000000000008E
:10289400000000000000000040308F80844C55256B
:1028A4002525554C808080000000000000000000B9
:1028B400000000000000000000007E0000FF004057
:1028C400300F041464040000000000000000000045
:1028D400000000000000000040407E42427E424270
:1028E400427E42427E4040000000000000000000A2
:1028F40000000000000000001060028C00FE02F2E4
:1029040002FE00F800FF00000000000000000000CC
:10291400000000000000000004047E018047300F26
:1029240010270047807F0000000000000000000026
:1029340000000000000000000000E09F88888888F4
:1029440088888888880800000000000000000000D3
:102954000000000000000000080808080808080833
:10296400084880403F000000000000000000000014
:102974000000000000000000101010FF109000FE86
:1029840082828292A29E00000000000000000000EB
:1029940000000000000000000444827F010000FFEA
:1029A40080432C102C438000000000000000000035
:1029B400000000000000000012EAAFAAEA0FFA02C9
:1029C400888C5724548C8400000000000000000010
:1029D40000000000000000000202EAAAAAABAAABB1
:1029E400AAAAAAAAEA02020000000000000000004D
:1029F400000000000000000000FC0000FF00402078
:102A0400D8171010F01010000000000000000000A3
:102A14000000000000000000000F0402FF008040DE
:102A2400211608162140800000000000000000006C
:102A34000000000000000000404044445464454647
:102A4400446454444440400000000000000000007E
:102A54000000000000000000000000FF494949494F
:102A6400494949FF00000000000000000000000088
:102A740000000000000000001010D0FF901000FEC5
:102A8400020202FE0000000000000000000000003E
:102A94000000000000000000040300FF0083601F2A
:102AA4000000003F404078000000000000000000EB
:102AB4000000000000000000100C05555555057F6E
:102AC4000555555505140C000000000000000000D9
:102AD400000000000000000080403F1115F595152E
:102AE40015355555B5918000000000000000000028
:102AF40000000000000000004044C444444440106E
:102B040010FF101010F00000000000000000000092
:102B14000000000000000000103C131014B8403006
:102B24000E014080403F0000000000000000000053
:102B3400000000000000000012EAAFAAEA0FFA0247
:102B4400888C5724548C840000000000000000008E
:102B540000000000000000000202EAAAAAABAAAB2F
:102B6400AAAAAAAAEA0202000000000000000000CB
:102B7400000000000000000080A0908E888888FF7C
:102B84008888888888808000000000000000000099
:102B94000000000000000000000000FC4444444425
:102BA400444444FC00000000000000000000000059
