:102A6A0048554E414E20554E4956455253495459A0
:102A7A00004E657874204D6F6465A3BA00000000AB
:102A8A00000000000000000040C00000000000003C
:102A9A00000000000000000000000000000000002C
:102AAA00000000000000000000000000000000001C
:102ABA00000000000000000000000000000000000C
:102ACA0000000000000000000000000000000000FC
:102ADA0000000000000000000000000000000000EC
:102AEA00000000000000000000000000000080E478
:102AFA003800000000000000000000000000000094
:102B0A00000000000000000000433F000000000039
:102B1A0000F8FEFE88F0E0C0000080C0C0E0F0F0DF
:102B2A00600000000000000000000000000000003B
:102B3A000000C0F8FC8080E04000000000000000B7
:102B4A00000000000000000000000000F8FC18006F
:102B5A00000000000000000000000000000000006B
:102B6A00000000001860C00010301098DEF37030CA
:102B7A0090180888C4743C0E04000000000000008D
:102B8A0000000000000000000080C0E0F070787CC7
:102B9A003F1F0F070303C1D072E3C100C0FF3F0309
:102BAA00000000000000000000202030301898DCEF
:102BBA00EC7EB7939B090C0406EE0E0000000000A1
:102BCA000000000000000000000000F8FFC7C0601D
:102BDA007238100000000000000000000000000031
:102BEA00000000063C701B0F04128D8783D04877C3
:102BFA00F3FCF633010000000000000000000000B2
:102C0A000000000000FCE000C0F81F0100C0E03036
:102C1A008CE6FE3018C6FF011E330100FFFF80005C
:102C2A000000000000000000806008040703078419
:102C3A00CEFFFB310000000000FF00000000000092
:102C4A000000000000000C0CC67E3F0701011020A6
:102C5A00C0808000000000000000000000000000AA
:102C6A0000000000000002028281C1F1484C2627C0
:102C7A00E3E1600000000000000000000000000026
:102C8A0000000000E0FFFF3F0F010000000000000D
:102C9A0001030000E0FF1F00040810307F7F4F008F
:102CAA000000000000000000030000000000000116
:102CBA000100070000000818180F000000000000BB
:102CCA0000000000000804030100000000000000EA
:102CDA0000010307070606020000000000000000CA
:102CEA0008080C0E0607030301010001FC0000019D
:102CFA0000000000000000000000000000000000CA
:102D0A0000000000000101000000000000000000B7
:102D1A00000003070300000000000000000000009C
:102D2A000000000000000000000000000000000099
:102D3A000000000000000000000000000000000089
:102D4A000000000000000000000000000000000079
:102D5A000000000000000000000000000000000069
:102D6A00000000000000020202060606070000003A
:102D7A0000000000000000000000000000F3F5FA67
:102D8A0025042504251825042504251825042504C9
:102D9A0025082408230822082110F6150C150421F9
:102DAA0010151023102110251826082510250C258A
:102DBA000431103110260C25042408260825302554
:102DCA000C2504261026102210220C220425182471
:102DDA00082310150C150425102508260825082493
:102DEA0008230822082130250C2504311031102629
:102DFA0010260C2504241825082610220C22042546
:102E0A001025082608250824082308220821380046
:102E1A0008210C1508231023180008230C21042666
:102E2A001026180008161816082210220C2304224D
:102E3A00082108270826081520211015101608163B
:102E4A00101508211022102310001022102608261F
:102E5A00082508251023082210261025100008210D
:102E6A0008310C31043108250826183108260C25AA
:102E7A00042408250825100010310C3104310831CA
:102E8A0008251025082608250824082308220821D1
:102E9A0010F5FBF464F7F3F5FAF450001000100093
:102EAA001000103608310835083608330C35043559
:102EBA0008320833100010360835080010000835AB
:102ECA00083608000836043304310836043204335D
:102EDA000800083508360800083604350433083671
:102EEA0004330433080010001000100010230822D5
:102EFA0004230423100010000C22042108160816CB
:102F0A001000102108220823082204230423100099
:102F1A0010000822042104170421041708001000D5
:102F2A00102708310427042618250823082104211C
:102F3A00042104250C2308210422042210000C2158
:102F4A000421082208230822042304231000102540
:102F5A000825042604250822042304221000102729
:102F6A0008310427042618250823082104210421EE
:102F7A0004250C23082104220422100008310832F7
:102F8A0008320433043208310426042610000C22C5
:102F9A000432083108321032100010001033103396
:102FAA0010321031082708260825042604261000A6
:102FBA0010250831083308320433043310000C2575
:102FCA0004340C330432083104320432100008335A
:102FDA0008320831083110311033103310340833F5
:102FEA000831100010250831083208310432043241
:102FFA001000102608320833083204330433100054
:10300A001000103610360400023202360233023241
:10301A000226022610261036023502310431043106
:10302A00043204320432083208330800102308221A
:10303A000423042310001000082208210416041691
:10304A00081610001021082208230822042304234A
:10305A0010000C1504220821041704170421041770
:10306A0008001000102705310527062610000C2538
:10307A000423082104210421082508230821042205
:10308A0004221020102108220823082204230423E2
:10309A0010001025082504260425082204230422EA
:1030AA0010001027083104270426082610260425B4
:1030BA0004230821042104210825082308210422C5
:1030CA00042210000831083208320433043208316D
:1030DA000426042610000C22043208310832103269
:1030EA001000100010331033103210310827082650
:1030FA000825042604261000102508310833083252
:10310A000433043310000C2504340C330432083120
:10311A000432043210000833083208310831103101
:10312A0010331033103408330831100010250831D9
:10313A0008320831043204321000102608320833EB
:10314A0008320433043310331033100010001026F1
:10315A001026102710271031103110321032103477
:10316A001034103510360835083610361036103639
:10317A001036103610001000103310331032103190
:10318A0008270427042608250426042610000C25EF
:10319A00042508310833083204330433100010348C
:1031AA001032083104320432100008330832083170
:1031BA0008311C310433103310340833043104311C
:1031CA0010000C2504250831083208310432043273
:1031DA001000102608320833083204320433103340
:1031EA0010331000A8C0003F065B4F666D7D077F55
:1031FA006F00084001414876000000BF86DBCFE639
:10320A00EDFD87FFEF777C395E79713D76301E756B
:10321A003815373F736B336D313E3E2A76665BB79E
:10322A00F9DEEDB0B1B700000000000000010002B5
:10323A000003000400050006000700080000000063
:10324A000001000200030004000500060007000850
:10325A000001000101020102010A01060101010344
:10326A000102010E01010104303211250702230374
:05327A00C80300010182
:103D8900C10BC110010F000109000217000002193F
:103D99000000C113C114020C0D99C111C104C10164
:103DA900C10D010A14010B64C192C108C10EC10FF2
:103DB900C109021B00C8021E0190C18AC100C106C7
:0A3DC900C107C102C10CC103C1050E
:10528F0012000E125E2C124D267F98125BE7125EF3
:10529F00E178257C007D007BFF7A3279727E007F7A
:1052AF00071236F9124A5278257C007D007BFF7A6F
:1052BF003279797E007F061236F9125DC2126021B3
:1052CF007F2B126002125E8C7BFF7A4579567F042A
:1052DF001254BC7BFF7A1F79AE7F021254BC7BFF46
:1052EF007A3979E47F071254BC7BFF7A5F79A67F06
:1052FF00061254BCE4F50EF508F51D125CFB7D0794
:0D530F00E4FF1260B11260F8125B6F80FBCA
:105CFB007528087529FF752A2A752B877B80E4FD8B
:105D0B00FF1256F57BFF7A2A796A7532107D06E40D
:085D1B00FF12590B750E022264
:1039E400E4FF1259E38F257F051259E38F267F02E6
:1039F4001259E38F277F041259E38F287F0112594C
:103A0400E38F29E50EB4041AE525B40115B2133089
:103A14001305E4F517F5187D147C007FE87E031286
:103A24005539E50E64056003023ADF201103023ABA
:103A3400DFE526B4011D30040A7458250DF50D7414
:103A440002800A30015C740A250DF50DE4350CF58D
:103A54000C804FE5276401705430041DE50D24A843
:103A6400FFE50C34FDFED3EF9400EE9400402E7479
:103A7400A8250DF50D74FD801E300126E50D24F6F4
:103A8400FFE50C34FFFED3EF9400EE9400400E7477
:103A9400F6250DF50D74FF350CF50C8005E4F50CD9
:103AA400F50D7D147C007FE87E03125539E528B4BA
:103AB4000112300104C201D2047D147C007FE87E2F
:103AC40003125539E529B40112300404C204D201A9
:103AD4007D147C007FE87E03125539E50EB4050A97
:103AE400201107E525B40102B20DE50E640660035A
:103AF400023BCD200803023BCDE526640170503023
:103B04000E26AF0AEF3395E0FEEF2401FFE43EFEFC
:103B1400AD0BED3395E0FCC3EF9DEC6480F8EE64EF
:103B24008098505E050A805A300F1DAF0BEF339515
:103B3400E0FEEF2401FFE43EFEC3EF94FFEE648059
:103B44009480503E050B803A300937B2128033E539
:103B54002764017038300E0EE50A14D36480948013
:103B64004020150A801C300F14E50B14FFD3E50A1E
:103B74006480F8EF6480984009150B8005300902D1
:103B8400B2127D147C007FE87E03125539E528B417
:103B94000119300E04C20ED209300F04C20FD20E26
:103BA4007D147C007FE87E03125539E529B40119A0
:103BB400300E04C20ED20F300904C209D20E7D1495
:103BC4007C007FE87E03125539E50E64076003022A
:103BD4003CB9200003023CB9E52664017045300677
:103BE4001CE51C2401FFE4351BFEC3EF951FEE9575
:103BF4001E507B051CE51C7028051B807130071CBA
:103C0400E51F2401FFE4351EFEC3EF94E7EE9403A1
:103C1400505C051FE51F7056051E805230024FB2DE
:103C24000A804BE5276401705030061DE51C24FF13
:103C3400FFE51B34FFFED3EF9400EE9400402FE524
:103C44001C151C7029151B802530071DE51F24FF3A
:103C5400FFE51E34FFFED3EF951CEE951B400FE5E8
:103C64001F151F7009151E8005300202B20A7D144B
:103C74007C007FE87E03125539E528B4011930062B
:103C840004C206D202300704C207D2067D147C00A7
:103C94007FE87E03125539E529B40119300604C2C0
:103CA40006D207300204C202D2067D147C007FE8EB
:103CB4007E03125539E50E64087028E525B4010920
:103CC400200506D205D203800FE525B40115300581
:103CD4001230030FC205C2037D147C007FDC7E0515
:0C3CE400125539E50E64086003023D88AB
:103CF00012575A12383CF52B85F02A12575AE924EC
:103D000002F9E43AFA123741F52C12575AE9240322
:103D1000F9E43AFA123741F52D12575AE92404F919
:103D2000E43AFA123741F52E12575AE92405F9E41C
:103D30003AFA123741F52FE526B40114300C0A0582
:103D40002BE52B7022052A801E30031B052C8017C3
:103D5000E527B4011D300C0AE52B152B7009152A37
:103D60008005300302152C7D147C007FE87E031251
:103D7000553978307C007D007B007A00792A7E00FE
:083D80007F061236F9124EBC59
:013D88002218
:10455600E4FF125AB18F257F01125AB18F26E50E5C
:104566006044200B0FE525B4010A850E08750E017F
:10457600D20B803E300B3BE52564017035C3E50860
:104586006480948A7D0A7C007F587E02500C125506
:1045960039E50804F50ED2108008125539750E0358
:1045A600D210C20B800CE50E7008E525B401038518
:1045B6001D0EE50EB40315E526B40110C3E5096426
:1045C600809482500405098003E4F509E50EB404DD
:1045D6001AE526B40115B214301405E4F519F51AD6
:1045E6007D147C007FDC7E05125539E50EB4050F7F
:1045F600200D0CE526B40107201102D201B211E507
:104606000EB40609E526B40104B208D20EE50EB4CE
:104616000709E526B40104B200D206E50E64087067
:1046260028E526B40109200506D205D20C800FE53F
:1046360026B40115300512300C0FC205C20C7D14CC
:104646007C007FDC7E05125539E50E64097042E573
:1046560026B4011E1260FEBF03187BFF7A2E79A0D6
:10466600752C03752D4D752EF07DFA7F5A1257B6AF
:10467600801AE526B4010A1260FEBF01047F02809B
:104686000DE526B4010B1260FEBF02057F01125D27
:104696004BE50E640960131260FEEF6402600612B9
:1046A60060FEBF01057F03125D4BE50EB40A1EE5F1
:1046B60026B401197BFF7A32795C7D16125C18BF2D
:0D46C600020B7D147C007FDC7E051255394F
:0146D30022C4
:101FAE003013080518E51870020517301408051AC5
:101FBE00E51A70020519300D08E50D150D700215A4
:101FCE000CE50D450C7012C20D7DC8FC7F787E05A8
:101FDE00125539750C0B750DB8E50EB40B00400398
:101FEE00022A69901FF8F82828730220190220315E
:101FFE0002207D0220A70221F90222C50224D80266
:10200E0026C9022941022A14022A5175300B753154
:10201E000B75320175330D75341E7B017D0D7F1EE0
:10202E00022A663010127BFF7A2A797B7532107D78
:10203E0006E4FF12590BC21075302C753130753213
:10204E002275330CAF08EF3395E0FEEF25E0FFEE7F
:10205E0033FE74462FF58274323EF583E474019399
:0F206E00F5347B2C7D257F20125E4CE4FF80270C
:10207D0075300C7531207532307533227534227BF5
:10208D00327D2B7F25125E4CE525600625E0F5257A
:0A209D008003752501AF250260F2F3
:1020A7001260E578107C007D007E007F071236F90C
:1020B700E50914603714606124026003022A69E5A8
:1020C70012C4540FFFE512540FFDE511C4540FF568
:1020D70030E511540FF53175320CE510C4540FF586
:1020E70033E510540FF5347B0C022A66E516C45409
:1020F7000FFFE516540FFDE514C4540FF530E51432
:10210700540FF53175320CE513C4540FF533E5134D
:09211700540FF5347B0C022A661A
:10212000851525E52514B407004003022A6990218E
:102130003C75F003A4C58325F0C5837302215102C9
:1021400021690221810221990221B10221C90221C2
:10215000E175303875310A75320A75330C75340102
:102160007B2C7D2B7F2B022A6675300A75310A7510
:10217000320A75330C7534027B397D327F31022A85
:102180006675303A75310A75320A75330C75340349
:102190007B227D327F32022A6675302F75313B7586
:1021A000320A75330C7534047B327D257F31022A67
:1021B0006675300A75310A75320A75330C75340448
:1021C0007B3C7D2F7F23022A6675300A75310A75A4
:1021D000320A75330C7534047B3D7D1E7F30022A34
:1021E0006675300A75310A75320A75330C75340418
:0921F0007B3E7D327F30022A663D
:1021F900AE17AF187C037DE81237BB7C007D0A124D
:1022090037BB8D2CE52C7003752C0AAE17AF187CE3
:10221900007D641237BB7C007D0A1237BB8D2BE52C
:102229002B7003752B0AAE17AF187C007D0A123785
:10223900BB7C007D0A1237BBED2414F52AAE17AF1B
:10224900187C007D0A1237BB8D29AE19AF1A7C03A1
:102259007DE81237BB7C007D0A1237BB8D28E52843
:10226900700375280AAE19AF1A7C007D641237BB5A
:102279007C007D0A1237BB8D27E527700375270A75
:10228900AE19AF1A7C007D0A1237BB7C007D0A1299
:1022990037BBED2414F526AE19AF1A7C007D0A125E
:1022A90037BB8D2585293085283185273285263309
:0C22B900852534AB2AAD2BAF2C022A6621
:1022C500050FD3E50F648094835002800C30110311
:1022D500022418300D03022378AE0CAF0D7C007D6F
:1022E5000A1237BB7C007D3C1237BB7C007D0A128D
:1022F50037BBAB07C003AE0CAF0D7C007D0A1237B0
:10230500BB7C007D3C1237BB7C007D0A1237BBAB22
:1023150005AE0CAF0D7C007D0A1237BB7C007D3C01
:102325001237BB7E007F0ACFCDCFCECCCE1237BBC6
:10233500AA07AE0CAF0D7C007D0A1237BB7C007D71
:102345003C1237BB7E007F0ACFCDCFCECCCE123725
:10235500BBED2414F5338A328B3075310CAE0CAFDE
:102365000D7C007D0A1237BB8D34D0037D0A7F0AB0
:102375000224C6200D030224C9AE0CAF0D7C007DDE
:102385000A1237BB7C007D3C1237BB7C007D0A12EC
:1023950037BBAB07C003AE0CAF0D7C007D0A12370F
:1023A500BB7C007D3C1237BB7C007D0A1237BBAB82
:1023B50005AE0CAF0D7C007D0A1237BB7C007D3C61
:1023C5001237BB7E007F0ACFCDCFCECCCE1237BB26
:1023D500AA07AE0CAF0D7C007D0A1237BB7C007DD1
:1023E5003C1237BB7E007F0ACFCDCFCECCCE123785
:1023F500BBED2414F5338A328B3075310CAE0CAF3E
:102405000D7C007D0A1237BB8D34D0037D0A7F2DEC
:102415000224C6300462AE0CAF0D7C007D0A123773
:10242500BB7C007D3C1237BB7E007F0ACFCDCFCE73
:10243500CCCE1237BBAB07AE0CAF0D7C007D0A12BC
:1024450037BB7C007D3C1237BB7E007F0ACFCDCFEA
:10245500CECCCE1237BBED2414F5338B3275300A52
:1024650075310CAE0CAF0D7C007D0A1237BB8D3477
:102475007B0A7D0A7F208049300149AE0CAF0D7C77
:10248500007D0A1237BB7C007D3C1237BB7C007D8A
:102495000A1237BBAB07AE0CAF0D7C007D0A1237B5
:1024A500BB7C007D3C1237BB7C007D0A1237BB8D9F
:1024B5003075310C75320A75330A75340A7D0A7F19
:1024C50020125E4CD3E50F648094855003022A697F
:0324D500022A10C8
:1024D800120003E92406F9E43AFA12383CF5268595
:1024E800F025200867AE25FF7C007D641237BBAB62
:1024F80007AE25AF267C007D0A1237BB7C007D0A1B
:102508001237BB8D338B3275300A75310AAE25AF61
:10251800267C007D0A1237BB8D347B0C7D047F221C
:10252800125E4CAF0AEF3395E0FEC3E5269FE52522
:102538009E5003022744AF0BEF3395E0FED3E52608
:102548009FE5259E5003022A690227652008030299
:102558002A69050FD3E50F648094835067A212E4BB
:1025680033FFE50A75F06412371FFE75F00A12375B
:102578001FADF0E50A75F00A12371FFE75F00A1252
:10258800371FABF0E50A75F00A12371F85F0307572
:10259800310CE50B75F06412371FFE75F00A12371F
:1025A8001F85F032E50B75F00A12371FFE75F00A29
:1025B80012371F85F033E50B75F00A12371F85F0C7
:1025C800340226B7300E41A212E433FF75300A7583
:1025D800310CE50B75F06412371FFE75F00A1237DF
:1025E8001F85F032E50B75F00A12371FFE75F00AE9
:1025F80012371F85F033E50B75F00A12371F85F087
:10260800347B0A7D0A0226B7300F40A212E433FF5A
:10261800E50A75F06412371FFE75F00A12371FAD10
:10262800F0E50A75F00A12371FFE75F00A12371F17
:10263800ABF0E50A75F00A12371F85F03075310CDA
:1026480075320A75330A75340A8064300964E50AFC
:1026580075F06412371FFF75F00A12371FADF0E5E9
:102668000A75F00A12371FFF75F00A12371FABF010
:10267800E50A75F00A12371F85F03075310CE50B45
:1026880075F06412371FFF75F00A12371F85F03294
:10269800E50B75F00A12371FFF75F00A12371F8510
:1026A800F033E50B75F00A12371F85F0347F0A12F4
:1026B8005E4CD3E50F648094855003022A69022A90
:0126C8001001
:1026C900120003E92404F9E43AFA12383CF52685A4
:1026D900F025FFAE251251698E278F28300003029D
:1026E90027707C007D641237BB7C007D0A1237BBE2
:1026F900AB05AE27AF287C007D0A1237BB7C007D75
:102709000A1237BBED2414F5338B3275300A753153
:102719000AAE27AF287C007D0A1237BB8D347B0CAB
:102729007D057F22125E4CAE27AF287C007D0A1200
:1027390037BBC3EF9414EE9400500A7DC87C007F28
:10274900B07E04801FAE27AF287C007D0A1237BBFC
:10275900D3EF9428EE94005003022A697DC87C00C7
:102769007FD07E07025539200003022A69050FD35D
:10277900E50F648094834003022808AE1BAF1C7CDC
:10278900007D641237BB7C007D0A1237BBAA05C0E5
:1027990002AE1BAF1C7C007D0A1237BB7C007D0A90
:1027A9001237BBED2414FBAE1EAF1F7C007D6412F3
:1027B90037BB7C007D0A1237BBAA05AE1EAF1F7C52
:1027C900007D0A1237BB7C007D0A1237BBED241449
:1027D900F5338A32A20AE433FFC007AE1BAF1C7C73
:1027E900007D0A1237BB8D3075310CAE1EAF1F7CD0
:1027F900007D0A1237BB8D34D007D00502292F304E
:102809000650AE1EAF1F7C007D641237BB7C007D75
:102819000A1237BBAB05AE1EAF1F7C007D0A12370B
:10282900BB7C007D0A1237BBED2414F5338B32A231
:102839000AE433FFC00775300A75310CAE1EAF1FAD
:102849007C007D0A1237BB8D34D0077B0A7D0A02D2
:10285900292F300751AE1BAF1C7C007D641237BB9A
:102869007C007D0A1237BBAA05AE1BAF1C7C007D1C
:102879000A1237BB7C007D0A1237BBED2414FBA278
:102889000AE433FFC007AE1BAF1C7C007D0A123778
:10289900BB8D3075310C75320A75330A75340AAD42
:1028A90002D00702292F200203022932AE1BAF1CD6
:1028B9007C007D641237BB7C007D0A1237BBAA05F8
:1028C900C002AE1BAF1C7C007D0A1237BB7C007DA9
:1028D9000A1237BBED2414FBAE1EAF1F7C007D64CA
:1028E9001237BB7C007D0A1237BBAA05AE1EAF1F8B
:1028F9007C007D0A1237BB7C007D0A1237BBED24B0
:1029090014F5338A32AE1BAF1C7C007D0A1237BB2B
:102919008D3075310CAE1EAF1F7C007D0A1237BB9E
:102929008D34D0057F0A125E4CD3E50F64809485FF
:082939005003022A69022A1072
:1029410012575A12383CF52685F02512575AE924B8
:1029510002F9E43AFA123741F527AE25AF267C0099
:102961007D0A1237BB8D28AE25AF267C007D0A1269
:1029710037BB7C007D0A1237BBED2414F529AE2547
:10298100AF267C007D641237BB7C007D0A1237BB09
:102991008D2AE52A7003752A0AE52775F00A8485D0
:1029A100F02BE52775F00A8475F00A8485F02C0573
:1029B1000FD3E50F6480948350028006200C14200D
:1029C100031175300A753123852A3285293385280B
:1029D100348012300C1575300A75312375320A7541
:1029E100330A75340AAB2BAD2C80163003187530C1
:1029F1000A753123852A328529338528347B0A7D5E
:102A01000A7F32125E4CD3E50F648094854059E40D
:032A1100F50F229C
:102A14001260FEBF031875300A75310A75320A75E3
:102A2400330A75340A7B0C7D077F22125E4C1260D8
:102A3400FEEF6402702F75303075312275320A75DD
:102A4400330A75340A7B327D1E7F2D801575302C38
:102A540075310C75320875330C75340C7B2B7D0C79
:062A64007F0C125E4C2203
:105FA600E50E6002F51DE4F50E7D0AFC7F587E02C3
:035FB60002553958
:10516900AD07AC06E4123522E4FBFA797A784412E9
:1051790034808F308E2F8D2E8C2DAB30AA2FA92EF7
:10518900A82DE4FFFE7D807C3F123282A804A90588
:10519900AA06AB07AF30AE2FAD2EAC2D123480125C
:1051A90047087B007AE0797678451234807B0F7A5C
:1051B900CF795B783B123286A804A905AA06AB070A
:1051C900E4FFFE7D807C3F1234807B337A937988BB
:1051D90078C31232868F348E338D328C31E4FFFEE0
:1051E9007D207C41AB34AA33A932A831123377121E
:0251F900355B24
:0151FB002291
:0960A8008B88898C88898F888916
:103DD30052027A868600868600868600868600865C
:093DE300860086860041026F098A
:03002B000260EC84
:0660EC0053BCEFD2243288
:0243AA00157A82
:1043AC00202403024553C22490026EE0B40900405D
:1043BC00030245359043C7F828287302440E024384
:1043CC00E20243F40244200243E20243F402443783
:1043DC000243E20243F4AFBDEFFEADBE7C00E42D20
:1043EC00FFEC3E900270803CAFBDEFFEADBE7C009A
:1043FC00E42DFFEC3E900272F0A3EFF0756F01021A
:10440C00453BAFBDEFFEADBE7C00E42DFFEC3E9016
:10441C0002748010AFBDEFFEADBE7C00E42DFFEC4E
:10442C003E900276F0A3EFF002453BAFBDEFFEAD40
:10443C00BE7C00E42DFFEC3E900278F0A3EFF090F0
:10444C000278E0FEA3E07807CEC313CE13D8F9A808
:10445C007AF6C394065013A87AE675F003A4247A6E
:10446C00F582E43402F583E014F090026FE014F06E
:10447C00600302453B7409F0A87AE4F6A87AE6FFDB
:10448C00C39406400302453BEF75F003A4247AF570
:10449C0082E43402F583E0C39480502AE6FF75F081
:1044AC0003A4247BF582E43402F583E0D3948040AA
:1044BC0040EF75F003A4247CF582E43402F5837498
:1044CC0001F0F570802BA87AE6FF75F003A4247B2D
:1044DC00F582E43402F583E0C394805014EF75F058
:1044EC0003A4247CF582E43402F5837402F0757025
:1044FC0001A87AE6FF75F003A4247AF582E434026D
:10450C00F583E0FEEF75F003A4247BF582E434021E
:10451C00F583EEF0E675F003A4247AF582E4340218
:10452C00F5837486F00602448890026E74FFF09056
:10453C00026EE0D39407400374FFF090026EE00427
:07454C00F09060A893F5BC9C
:03455300057A22C4
:02604E00157AC1
:09605000A87AA670E4F570E6FFE1
:03605900057A22A3
:02605C00157AB3
:09605E00A87AA66FE4F56FE6FFD5
:03606700057A2295
:105BE7008F9D75BC88439720D2AD90024574FFF016
:105BF700A37443F0A374AAF0A374FFF0A37460F036
:105C0700A3744EF0A374FFF0A37460F0A3745CF068
:015C1700226A
:070003007B017A02797022F3
:1059E300C3EF64809480403BD3EF6480948550334D
:1059F300EFFD3395E0FC90027C75F003ED1239D294
:105A0300EC75F003A42583F583E0FE90027C75F02A
:105A130003ED1239D2EC75F003A42583F583E4F08A
:055A2300AF06227F0325
:015A2800225B
:045D2300157A157A5E
:105D27001260BAA87AA60608A607A87AE6FE08E6C9
:0F5D3700FF4E600BEF24FFFFEE34FFFE1260C340
:055D4600057A057A2238
:105E2C0053B1EF43B210126107E4F5D975DA49D2D8
:105E3C00DE90023F74FFF0A3745DF0A37423F02294
:085539008E308F318C328D336E
:105541001260BAEF4E7066AF33AE321260C3C3E57C
:1055510031940AE5309400404BE47B18FAF9F89055
:1055610031ED1239A61238F2C006C007AE30AF31A4
:10557100AB07AA06E4F9F8D007D0061238F2AB0758
:10558100AA06AFF9EFFEADE97C00E42DFFEC3ECFBA
:105591002BCF3AAD07FCAF03AE02125FF1D2D84375
:0F55A100DA01800612610753DAFE7F02227F03D0
:0155B00022D8
:0C6086001260BAEF4E7002FF227F012270
:104C3D00E4F5809002A7E0FFB40800505F904C515E
:104C4D00F8282873024C69024C6F024C75024C7B9C
:104C5D00024C81024C8B024C95024C9FC2A3C2A206
:104C6D008016C2A3C2A2801AC2A3C2A2801EC2A372
:104C7D00C2A28022C2A3D2A2C2A1C2A08020C2A37E
:104C8D00D2A2C2A1D2A08016C2A3D2A2D2A1C2A08A
:104C9D00800CC2A3D2A2D2A1D2A08002D2A3C3EF14
:104CAD006480948850299002A7E0FF3395E0FE744C
:104CBD009E2FF58274023EF583E0FF3395E0FE747E
:104CCD00F12FF58274313EF583E493F580801E90CB
:104CDD0002A7E0FFB408133395E0FE749E2FF58212
:104CED0074023EF583E0F5808003E4F58090029D2B
:104CFD00E0FF9002A7E004FEF0D3EF6480F8EE64CD
:104D0D0080984014E0D36480948850047408F02295
:094D1D0090029CE09002A7F02234
:105EE100E4F5937594FF5395F043960F90022A744D
:0B5EF100FFF0A3744CF0A3743DF022FE
:0960B10090029CEFF0A3EDF02237
:105E4C0090029EEFF0A3EDF0A3EBF0A3E530F0A3EE
:105E5C00E531F0A3E532F0A3E533F0A3E534F0220D
:0660F2009002A6EFF0226F
:103DEC000175004902A994940094940094940041A4
:033DFC0002A81EFC
:02492F00157AF7
:1049310020B2069002A9E014F020B3069002ACE088
:1049410014F02097069002AFE014F09002A8E01452
:10495100F06003024A4F741EF0A87AE4F6A87AE6E2
:10496100FFC3648094834003024A4FEF3395E0FE16
:104971009002A975F003EF1239D2EE75F003A42568
:1049810083F583E0C3948050399002AA75F003EF58
:104991001239D2EE75F003A42583F583E0D3948018
:1049A100405AE6FF3395E0FE9002AB75F003EF123B
:1049B10039D2EE75F003A42583F5837401F0F57502
:1049C100803AA87AE6FF3395E0FE9002AA75F003DB
:1049D100EF1239D2EE75F003A42583F583E0C39479
:1049E1008050199002AB75F003EF1239D2EE75F0D9
:1049F10003A42583F5837402F0757501A87AE6FF97
:104A0100FD3395E0FC9002A975F003ED1239D2EC6B
:104A110075F003A42583F583E0FE9002AA75F003E7
:104A2100ED1239D2EC75F003A42583F583EEF0EF96
:104A31003395E0FE9002A975F003EF1239D2EE75BD
:0E4A4100F003A42583F5837494F00602495E09
:034A4F00057A22C3
:02606A00157AA5
:09606C00A87AA675E4F575E6FFBB
:03607500057A2287
:10000E0090023074FFF0A37460F0A3746AF0900253
:0D001E002D74FFF0A37449F0A3742FF0229D
:105AB100EF600764016003BF0233EFFD3395E0FC43
:105AC1009002AB75F003ED1239D2EC75F003A42509
:105AD10083F583E0FE9002AB75F003ED1239D2EC51
:0F5AE10075F003A42583F583E4F0AF06227F035D
:015AF0002293
:103DFF004102000A4102290A41026D0A04440000EF
:103E0F000000014A004602670000FFFF8FFFC1223A
:103E1F00C11AC11DC116C12360240205FF000AFF8C
:103E2F00000AFF000AFF000AFF000AFF000AFF0056
:103E3F000AFF000AFF000AFF000AFF000AFF000A3C
:103E4F006036022AFF000AFF000AFF6104FF000A22
:103E5F00FF6104FF000AFF6104FF000AFF000AFF71
:103E6F00000AFF6104FF6104FF6104FF6104FF00AA
:0A3E7F000AFF000AFF000AFF000A14
:01000A0022D3
:036104007F0022F7
:10599C00438E805389F07BE07A287901780090312E
:1059AC00ED1239A6125A6DEFF404F58A7BE07A28D1
:1059BC00790178009031ED1239A6125A6DC3E49F2B
:1059CC00FFE49EFE74019DFDE49CFC780812399264
:0759DC008F8CD28CD2A922AE
:03000B000258B9DF
:0458B900C0E0C0D0BB
:1058BD00D53E0A753E4C302202054AD222A21872FC
:1058CD001950361540E5407030854240D21C301FCE
:1058DD0017E54360071543438F01801D538FFEC2AB
:1058ED00B5D54C15C21F80110541E541D394064035
:0958FD0008C218E5496002D21B43
:05590600D0D0D0E0321A
:10586600302347C2239031ED1239A67810123992AF
:105876008E718F72900203E0FEA3E0FFE4FCFD7BD5
:1058860019FAF9F8123867C006C007AE71AF72ABE5
:1058960007AA06E4F9F8D007D006125A6D78031263
:1058A6003992900265EEF0A3EFF0900265E0FEA358
:0258B600E0FF11
:0158B80022CD
:0960BA00900267E0FEA3E0FF2262
:0960C300900267EEF0A3EFF02259
:105FF10090026BEEF0A3EFF0900269ECF0A3EDF0EC
:01600100227C
:03610700C2B422FD
:03003B0002501C54
:10501C00C0E0C083C082C0D075D000C004C005C041
:03502C0006C007B4
:10502F0030DF04C2DF807D30DA04C2DA807630D917
:10503F003DC2D9AFFBEFFEADEB7C00E42DFFEC3EA4
:10504F0020150E900201F0A3EFF075DB11D2158041
:10505F0053FE900201E0FCA3E0FDC3EF9DFFEE9C29
:10506F00A3F0A3EFF075DB00C215D223803630D842
:10507F0033C2D8900267E07002A3E06022B2B4900E
:10508F000269E0FEA3E0F5EAEEF5FAA3E0FEA3E085
:10509F00FF90026AE02FF0900269E03EF08005C2B7
:0450AF00B453DAFE1E
:1050B300D007D006D005D004D0D0D082D083D0E0A2
:0150C30032BA
:0660F80012599CD2AF22F8
:1053A8003019047F0180027F00201F047E018002E3
:1053B8007E00EE5F6074E54BC3953F50683017364A
:1053C800754301E54B131313541FAB4DAA4EA94F58
:1053D800F58275830012375AFFE54B540704FEEF38
:1053E800A806088002C333D8FC30D705754C038063
:1053F8002F754C01802AAB4DAA4EA94F75F002E5D6
:105408004BA4F58285F08312375AF543E54B75F0C6
:1054180002A429F9EA35F0FA90000112375AF54C3E
:0A542800054BD21F22C219438F105A
:015432002257
:104B5000900200E014F0701F740AF0D21A9002293B
:104B6000E014F07012740AF0D21D90026DE014F09F
:104B70007005740AF0D21690022AA3E0FAA3E0F9B5
:104B80001239DE90022DA3E0FAA3E0F91239DE908B
:104B90000239A3E0FAA3E0F91239DE900245A3E05E
:104BA000FAA3E0F91239DE900254A3E0FAA3E0F987
:104BB0001239DE90025DA3E0FAA3E0F91239DE902B
:104BC000024BA3E0FAA3E0F91239DEEF600C900289
:104BD0001DA3E0FAA3E0F91239DE90024EA3E0FA39
:104BE000A3E0F91239DEEF600E900220A3E0FAA3F1
:104BF000E0F91239DED220E548D394004016D548BA
:104C000030301E0C900223A3E0FAA3E0F91239DE43
:104C1000D221801D900251A3E0FAA3E0F91239DEFF
:104C2000EF600E900223A3E0FAA3E0F91239DED27E
:0D4C300021900205A3E0FAA3E0F90239DEAD
:1051FC0090023FA3E0FAA3E0F91239DE900242A339
:10520C00E0FAA3E0F91239DE900233A3E0FAA3E04E
:10521C00F91239DE900208A3E0FAA3E0F91239DEA4
:10522C00900230A3E0FAA3E0F91239DEEF600C90A3
:10523C000211A3E0FAA3E0F91239DE900236A3E0E2
:10524C00FAA3E0F91239DEEF600C900217A3E0FA32
:10525C00A3E0F91239DE900248A3E0FAA3E0F912B8
:10526C0039DEEF600C90021AA3E0FAA3E0F91239D0
:10527C00DE301B0EC21B900226A3E0FAA3E0F9124B
:03528C0039DE22E6
:105AF10090020BA3E0FAA3E0F91239DE90023CA375
:105B0100E0FAA3E0F91239DEEF600C900214A3E091
:105B1100FAA3E0F91239DE900257A3E0FAA3E0F903
:0F5B21001239DE90025AA3E0FAA3E0F90239DE4E
:105CA700AF47AE46AD45AC449002601239C690028C
:105CB70064E54AF0E4F547F546F545F544F54A90BD
:0B5CC700020EA3E0FAA3E0F90239DEB0
:105B6F00301C05C21C1253A8302205C222124B5002
:105B7F00301A05C21A1251FC301D05C21D125AF1FE
:105B8F00301605C216125CA7E5472401F547E43528
:0E5B9F0046F546E43545F545E43544F5442227
:1054BC008B258A268927EFB40C0050709054CFF8B6
:1054CC002828730254F30254F80254FD02550202C8
:1054DC00550702550C02551102551602551B025563
:1054EC002002552502552A9002058035900208802D
:1054FC003090020B802B90020E802690021180219E
:10550C00900217801C900214801790021A8012903F
:10551C00021D800D900220800890022380039002CF
:0D552C0026E525F0A3E526F0A3E527F022F3
:0760DE007B017A02796022C8
:073E89000176004102C400B4
:0D002E0020A4097576019002C47401F0222F
:02607800157A97
:09607A00A87AA676E4F576E6FFAB
:03608300057A2279
:105E8C0090023C74FFF0A37460F0A37478F090025D
:0D5E9C003974FFF0A37400F0A3742EF022FF
:02601200157AFD
:0A6014009002C4E0A87AF6FFE4F061
:03601E00057A22DE
:1048090000C400DC00F701060126014A0172018893
:1048190001B801EE020B024B029302E4031003708C
:1048290003DC04160497052605C800DC00F701150A
:104839000126014A0172019F01B801EE022A024BC9
:10484900029302E4033F037003DC04550497052631
:1048590005C8067D00F701150137014A0172019F5C
:1048690001D201EE022A026E029302E4033F03A47D
:1048790003DC045504DD057505C8067D07490106F5
:104889000126014A015D018801B801EE020B024BC4
:10489900029302BA0310037003DC04160497052679
:1048A9000575062006E007B80126014A017201884C
:1048B90001B801EE022A024B029302E403100370CD
:1048C90003DC04550497052605C8062006E007B849
:1048D90008AA014A0172019F01B801EE022A026E7B
:1048E900029302E4033F037003DC045504DD05264B
:1048F90005C8067D06E007B808AA09B9015D01885F
:1049090001B801D2020B024B029302BA03100370E1
:1049190003A40416049705260575062006E0074931
:06492900082D092D0A4DC6
:103E90004D028F0300000000000000000000000041
:064F72008F258D268B2720
:104F7800126086EF60037F0122E527D39400400684
:104F8800E52794114028E527D394174006E5279490
:104F980021401BE527D394274006E5279431400E8E
:104FA800E527D394375007E525C394F950037F03C9
:104FB80022E527603DC4540F75F007A4FDACF0E569
:104FC8002575F015A42DFFE5F03CFEE52754077C78
:104FD800002FFFEC3EFEEF25E0FFEE33FE741F2F9F
:104FE800F582741F3EF583E493F529740193F52A3D
:104FF8008005E4F529F52AAF287E007C017D77122B
:1050080037A9AD261C1237BBAD07AC06AF2AAE29AF
:03501800125539F5
:01501B002272
:0440B400157A157AEA
:1040B800126086EF70047F0180027F0090028FE01B
:1040C800FEB402047D0180027D00ED5F60030243BF
:1040D800A5EEB4030AE490028DF0A3F00243A59084
:1040E8000290E0FFB4F3047E0180027E00EFB4F199
:1040F800047F0180027F00EF4E603E900292E0FE56
:1041080075F06484FFEE75F00A8475F00A84ADF0EA
:10411800E075F00A84ABF075300A900291E024074C
:10412800F53190028CE0FEC4540F240AF532753341
:104138000AEE5407F534125E4C900290E0FFB4F397
:10414800047E0180027E00EFB4F2047F0180027FCA
:1041580000EF4E70030241FE900292E0FD7C007E6B
:10416800177F701237BBA87AA607E6F975F002A484
:10417800FFC390029BE09F90029AE095F05070E098
:10418800FEA3E0FF7C007D0B1237A9E9FBFD123787
:10419800BBA87A08A60790029AE475F0011238269F
:1041A800FED3E5F09BEE94004018A87A08E624F9BF
:1041B800FFE47EF0A807088005CEC313CE13D8F914
:1041C800801FA87A08E6FF740F7E00A807088005FC
:1041D800C333CE33CED8F97804CEA2E713CE13D8A2
:1041E800F8A87A08F6A87A08E6FF1260F28007E4D1
:1041F80090029AF0A3F0900296E0FEA3E0FFC3902D
:104208000299E09F900298E09E400302439F12604B
:1042180086EF60030243A5900293E0FBA3E0FAA3B4
:10422800E0F9900298E0FEA3E0F5828E8312375AF7
:10423800FFD39437500302433AEF241024FC5079FB
:10424800604524FE70030242E51470030242FB2419
:10425800026003024329900293E0FBA3E0FAA3E083
:10426800F9900298E475F00112381085F082F58310
:1042780012375A900291F0900299E004F0709890E9
:104288000298E004F08090900293E0FBA3E0FAA388
:10429800E0F9900298E475F00112381085F082F583
:1042A8008312375A900292F0900299E004F0706EEF
:1042B800900298E004F002421F900293E0FBA3E012
:1042C800FAA3E0F9900298E475F00112382685F017
:1042D80082F58312375A900290F002421F9002989A
:1042E800E475F001123810AFF090028DF0A3EFF0F2
:1042F80002421F90028DE0FEA3E0FF4E6012900282
:1043080098EEF0A3EFF0E490028DF0A3F002421FC4
:10431800900299E004F07006900298E004F00242DE
:104328001F900299E004F07006900298E004F002F1
:10433800421F900296E0FEA3E0FFC3900299E09F1F
:10434800900298E09E5056900293E0FBA3E0FAA3F7
:10435800E0F9900298E475F00112382685F082F5AC
:104368008312375A90028CF0900291E0FFA3E0FD8F
:10437800A3E0FBA3E0FAA3E0F9900298E475F0014A
:1043880012382685F082F58312375AF52890028C68
:0D439800E0FB124F72800690028F7403F05C
:0543A500057A057A22F3
:0F60210090024274FFF0A37440F0A374B4F02215
:1057B60090028FE0B4030DE4900298F0A3F0A3F0FA
:1057C600A3F0C225EF6004900292F0ED600490020F
:1057D60091F0E94A60047F0180027F00E52D452CA7
:1057E60060047E0180027E00EE5F6013900293EB00
:1057F600F0A3EAF0A3E9F0A3E52CF0A3E52DF0E58C
:085806002E6004900290F022D4
:105D4B00BF02047E0180027E00BF01047D01800240
:105D5B007D00ED4EFEBF03047D0180027D00ED4E04
:085D6B00600590028FEFF022A9
:0660FE0090028FE0FF227A
:043EA0004102BA0120
:105F1600C295E4FEEF1392CC000000D29500EFC3C9
:085F260013FFC2950EBE08EC4A
:015F2E002250
:105F6100E4FEEFC313FF30CC03430780D29500005A
:075F710000C2950EBE08EB13
:015F78002206
:105C7900F07F85125C8CA3EFF07F87125C8CA3EF19
:035C8900F07F8920
:105C8C00C296000000C295000000D29600125F166A
:0A5C9C00125F61D295000000C2966D
:015CA60022DB
:035E6C00A3E0FDB3
:105E6F00C296000000C295000000D29600125F1685
:0D5E7F00AF05125F16D295000000C29622FA
:0760E5007B017A0279B3226E
:105F2F0078B37C027D017B007A00792C7E007F079D
:095F3F001236F9E49002BAF022D6
:105FDF00EFD3941F5009EF25E044C1FF025C8C7F83
:025FEF0001228D
:105CD200AC07AB05ECD3941F501CE4FD7F8E125E23
:105CE2006FEC25E044C0FFAD03125E6F7D807F8EB6
:095CF200125E6F7F00227F012287
:0250C400157A5B
:1050C6009002BAE060447F81125C8CA87AEFF69079
:1050D60002B3E06F7003025166A87AE6F07F83128E
:1050E6005C8CA87AEFF6A3E06F6075A87AE6125C8E
:1050F60079A3EFF07F8D125C8C9002B9EFF07F8B75
:10510600125C8C9002B8EFF080569002B2E0FF0479
:10511600F0EFC3940A4049E4F09002BA04F0E4FDCB
:105126007F8E125E6F9002B3E0FD7F80125E6F7F0E
:1051360082125E6C7F84125E6CA3E0FD7F86125E37
:105146006FA3E0FD7F88125E6FA3E0FD7F8A125E8B
:105156006FA3E0FD7F8C125E6F7D807F8E125E6F87
:03516600057A22A5
:104A52007F81125C8C9002B3EFF07F83125C8CA397
:104A6200EF125C79A3EFF07F8B125C8CA3EFF07FE7
:104A72008D125C8CA3EFF0E4FD7F8E125E6F7F1EC1
:104A8200125FDFEF64A560047F0180027F00900265
:104A9200B3E05480FEA3E0D3945940047D01800228
:104AA2007D00ED4EFE9002B5E0D394A440047D015A
:104AB20080027D00ED4EFE9002B6E0D394314004B8
:104AC2007D0180027D00ED4EFE9002B7E0D394128C
:104AD20040047D0180027D00ED4EFE9002B8E0D3DD
:104AE200940740047D0180027D00ED4EFE9002B9E4
:104AF200E0D3949940047D0180027D00ED4E4F6029
:104B020030782C7C007D007B007A0079257E007F46
:104B1200071236F9125F2F7DA57F1E125CD278B381
:104B22007C027D017B007A0079257E007F071236A8
:104B3200F97DA97F90125E6F7D807F8E125E6F90ED
:0E4B4200025A74FFF0A37450F0A374C4F02262
:0B3EA4004802BBD4111A50400288A550
:095FB9007F03125FC2D2C57F0311
:0A5FC200AE071FEE60030080F72217
:105FCC00D2A7125FB9C2A77F03125FC2C2C57F03FB
:035FDC00025FC29F
:0C609200C2A7125FB9D2A77F03025FC251
:105EA900E4FFD2C530A709EFC394FA50030F80F479
:0C5EB9007F03125FC2C2C57F03025FC2FC
:025D7300AD077A
:105D7500E4FBC2C57F03125FC2ED3392A7ED25E0B8
:105D8500FD125FB90BBB08EAC2C57F03125FC2D221
:065D9500C57F03025FC29E
:025A2900157AEC
:105A2B009002C3E064017037125FCC7F20125D736C
:105A3B00125EA9A87AE4F6A87AE6FFC39408501779
:105A4B0074BB2FF582E43402F583E0FF125D731211
:0F5A5B005EA9A87A0680E0126092E49002C3F080
:035A6A00057A2298
:10575A009002BDE025E025E0FFA3E0C41313540343
:10576A002F2466F537E43403F5369002C2E0540F6D
:10577A00F5389002C0E0543FFF5403FEBE0305759E
:10578A0039FF8003E4F539EF540CFEBE0C05753A77
:10579A00FF8003E4F53AEF5430FFBF3005753BFF55
:0B57AA008003E4F53B7B007A007936B9
:0157B50022D1
:104EBC00D3E5319438E530940450047F0180027FAF
:104ECC0000C3E5319466E530940340047E01800212
:104EDC007E00EE5F603012575A12383C6531700418
:104EEC00E5F065306020E531249AFD1313543F90B2
:104EFC0002BDF0ED5403FFC4333354C04410A3F08F
:104F0C009002C37401F012575AE92402F9E43AFAF8
:104F1C00123741653260047F0180027F00E532D395
:104F2C00940F50047E0180027E00EE5F6011E5322A
:104F3C00540FFF9002C2E054F04FF0A37401F07DC7
:104F4C002AE5336003430501E5346003430504E5BA
:104F5C003560034305109002C0E06D6008EDF090E1
:054F6C0002C37401F016
:014F7100221D
:105DC20078307C007D007B007A0079257E007F069A
:105DD2001236F9124EBC90025774FFF0A3745AF0B7
:055DE200A37429F0226A
:1060020053B1DF43B220C2B5C21F8F42438F102269
:030053000255B1A2
:1055B100C0E0C083C082C0D075D000C000C001C0AF
:0355C10002C00322
:1055C400201813D218756608754900756500E54200
:1055D400C313F540803AE541C394014031E56525A4
:1055E400E0F565E541C3940340020565D56621E510
:1055F40049C39567501A756608AB68AA69A96A8594
:105604004982758300E56512378705498002C2180F
:03561400754100DD
:10561700D003D002D001D000D0D0D082D083D0E048
:015627003250
:0960CC008B688A69896A8D6722DC
:03610A00AF492278
:105C18002018047F0180027F00201F047E0180027B
:105C28007E00EE5F60188B4D8A4E894FEDC313F5E9
:105C38003FC217E4F54B538FEFD2197F02227F033F
:015C48002239
:105B30002018047F0180027F00201F047E01800264
:105B40007E00EE5F6026538FEF754310754C08D2D0
:105B50001F438F018B4D8A4E894FED75F008A404C9
:0F5B6000F53FD217E4F54BD2197F02227F0322C3
:105EC5002018047F0180027F00201F047E018002CC
:0C5ED5007E00EE5F60037F00227F012250
:100056000000000000000000002F00000000070064
:10006600070000147F147F1400242A7F2A120062DE
:10007600640813230036495522500000050300008A
:1000860000001C224100000041221C000014083E12
:1000960008140008083E0808000000A060000008D8
:1000A600080808080000606000000020100804022C
:1000B600003E5149453E0000427F400000426151EA
:1000C6004946002141454B31001814127F10002784
:1000D60045454539003C4A49493000017109050347
:1000E60000364949493600064949291E0000363678
:1000F60000000000563600000008142241000014DB
:1001060014141414000041221408000201510906B7
:1001160000324959513E007C1211127C007F494938
:100126004936003E41414122007F4141221C007F69
:1001360049494941007F09090901003E4149497A77
:10014600007F0808087F0000417F410000204041F1
:100156003F01007F08142241007F40404040007F5D
:10016600020C027F007F0408107F003E4141413EA1
:10017600007F09090906003E4151215E007F0919E9
:1001860029460046494949310001017F0101003FE6
:100196004040403F001F2040201F003F4038403F66
:1001A60000631408146300070870080700615149CA
:1001B600454300007F41410000552A552A5500005D
:1001C60041417F00000402010204004040404040DB
:1001D600000001020400002054545478007F484473
:1001E600443800384444442000384444487F0038AA
:1001F6005454541800087E0901020018A4A4A47CD3
:10020600007F080404780000447D4000004080849C
:100216007D00007F102844000000417F4000007CE4
:1002260004180478007C08040478003844444438F0
:1002360000FC242424180018242418FC007C08043C
:10024600040800485454542000043F444020003C15
:100256004040207C001C2040201C003C4030403C9C
:10026600004428102844001CA0A0A07C004464542C
:100276004C44141414141414000000000000000070
:100286000000000000000000000000F80000000070
:10029600000000333000000000100C06100C0600B1
:1002A600000000000000000040C07840C078400018
:1002B600043F04043F040400007088FC083000007A
:1002C600001820FF211E0000F008F000E0180000D2
:1002D60000211C031E211E0000F00888700000008B
:1002E6001E2123241927211010160E0000000000DD
:1002F6000000000000000000000000E018040200FA
:10030600000000071820400000020418E00000006A
:100316000040201807000000404080F08040400068
:100326000202010F01020200000000F000000000BE
:100336000101011F01010100000000000000000092
:1003460080B0700000000000000000000000000007
:100356000001010101010101000000000000000090
:10036600003030000000000000000000806018042B
:10037600006018060100000000E010080810E00008
:10038600000F102020100F00001010F800000000D1
:100396000020203F20200000007008080888700018
:1003A6000030282422213000003008888848300098
:1003B6000018202020110E000000C02010F80000B8
:1003C60000070424243F240000F808888808080051
:1003D6000019212020110E0000E010888818000066
:1003E600000F112020110E0000380808C838080038
:1003F6000000003F000000000070880808887000B8
:10040600001C222121221C0000E010080810E00038
:100416000000312222110F00000000C0C0000000C1
:1004260000000030300000000000008000000000E6
:1004360000008060000000000000804020100800DE
:1004460000010204081020004040404040404000A7
:100456000404040404040400000810204080000082
:100466000020100804020100007048080808F00087
:100476000000003036010000C030C828E810E00057
:100486000718272423140B000000C038E0000000E2
:10049600203C23020227382008F88888887000004C
:1004A600203F202020110E00C03008080808380020
:1004B600071820202010080008F808080810E00097
:1004C600203F202020100F0008F88888E808100038
:1004D600203F20202320180008F88888E80810000C
:1004E600203F200003000000C03008080838000044
:1004F60007182020221E020008F808000008F80845
:10050600203F210101213F20000808F808080000CB
:100516000020203F2020000000000808F8080800FE
:10052600C08080807F00000008F888C02818080076
:10053600203F20012638200008F8080000000000AF
:10054600203F20202020300008F8F800F8F80800A6
:10055600203F003F003F200008F830C00008F808A0
:10056600203F200007183F00E01008080810E000B0
:100576000F10202020100F0008F808080808F000C7
:10058600203F210101010000E01008080810E000EA
:100596000F18242438504F0008F88888888870007F
:1005A600203F2000030C302000708808080838001F
:1005B6000038202121221C00180808F80808180015
:1005C6000000203F2000000008F808000008F80896
:1005D600001F202020201F000878880000C8380847
:1005E600000007380E010000F80800F80008F800BF
:1005F600033C0700073C0300081868808068180859
:1006060020302C03032C30200838C800C8380800D6
:100616000000203F2000000010080808C838080025
:100626002038262120201800000000FE02020200C9
:100636000000007F40404000000C30C00000000079
:10064600000000010638C00000020202FE000000A1
:10065600004040407F000000000004020202040047
:100666000000000000000000000000000000000084
:10067600808080808080808000020204000000006C
:100686000000000000000000000080808080000064
:100696000019242222223F2008F800808000000052
:1006A600003F112020110E00000000808080000015
:1006B600000E112020201100000000808088F80024
:1006C600000E112020103F20000080808080000056
:1006D600001F222222221300008080F088888818BA
:1006E6000020203F202000000000808080808000C5
:1006F600006B94949493600008F80080808000005A
:10070600203F210000203F20008098980000000034
:100716000020203F20200000000000809898000064
:1007260000C08080807F000008F800008080800084
:10073600203F24022D302000000808F800000000A9
:100746000020203F20200000808080808080800064
:10075600203F20003F20003F8080008080800000F6
:10076600203F210000203F20000080808080000084
:10077600001F202020201F008080008080000000B5
:1007860080FFA12020110E000000008080808000E4
:10079600000E112020A0FF808080800080808000D5
:1007A60020203F2120000100000080808080800002
:1007B6000033242424241900008080E08080000077
:1007C6000000001F202000008080000000808000C4
:1007D600001F202020103F20808080000080808025
:1007E60000010E30080601008080008000808080B5
:1007F6000F300C030C300F000080800080808000DA
:100806000020312E0E312000808080000080808004
:1008160080818E70180601000080808080808000B4
:100826000021302C2221300000000000807C0202D2
:1008360000000000003F404000000000FF000000F4
:1008460000000000FF0000000002027C80000000A3
:100856000040403F000000000006010102020404BF
:10086600000000000000000000080808080809FA57
:100876000808080808080000000000000000000042
:100886000000000000000000404041414141417F1E
:10089600414141414140400000000000000000008D
:1008A6000000000000000000040444C44F4444C497
:1008B60024242FB4240404000000000000000000DB
:1008C600000000000000000040442424150C04FE33
:1008D600040C152424444000000000000000000021
:1008E60000000000000000000000F8494A4C48F8EB
:1008F600484C4A49F80000000000000000000000D3
:10090600000000000000000010101312121212FF67
:100916001212121213101000000000000000000056
:100926000000000000000000404044445464454676
:1009360044645444444040000000000000000000AD
:100946000000000000000000000000FF494949497E
:10095600494949FF000000000000000000000000B7
:1009660000000000000000000000E09C848484F485
:100976008282838280800000000000000000000068
:100986000000000000000000002010080640807FE4
:100996000000020408300000000000000000000013
:1009A600000000000000000000FE024222325E92BB
:1009B6005232120202FE0000000000000000000099
:1009C600000000000000000000FF42424251556452
:1009D6006941424242FF00000000000000000000A2
:1009E6000000000000000000000000FE2020202083
:1009F600203F202020200000000000000000000012
:100A060000000000000000000080601F02020202D9
:100A16000202FE00000000000000000000000000CE
:100A26000000000000000000080889EE980000FEA3
:100A36000202F20202FE00000000000000000000B8
:100A46000000000000000000020100FF00834023B8
:100A56001806017E8083E000000000000000000010
:100A66000000000000000000407C407F484840F243
:100A7600121AD61212F20200000000000000000056
:100A86000000000000000000908E404F201E804FA6
:100A960020180710204F8000000000000000000012
:100AA60000000000000000001060028C0008F94EF3
:100AB600C820584F48C80800000000000000000089
:100AC600000000000000000004047E8140300F405A
:100AD6007F0044847F040400000000000000000042
:100AE60000000000000000000008488808C83840E0
:100AF6004040FF2022AC2000000000000000000063
:100B060000000000000000000020100C0304188004
:100B1600402017182641F0000000000000000000E9
:100B260000000000000000000202F28A4600FC04F9
:100B3600FC0402FE030200000000000000000000AA
:100B4600000000000000000042827F0080601F005D
:100B56007F2810610E3040000000000000000000F9
:100B660000000000000000000000F9A9A9ABABFDE1
:100B7600ADABABA9F80000000000000000000000CB
:100B8600000000000000000000888B4828180E09AD
:100B9600084888483B0000000000000000000000F4
:100BA6000000000000000000202024242424BF644C
:100BB6002434282422202000000000000000000029
:100BC600000000000000000010080402FF49494927
:100BD600494949FF00000000000000000000000035
:100BE60000000000000000000404E424242424FF84
:100BF60024242424E4040400000000000000000073
:100C0600000000000000000040402722120A06FFF4
:100C1600060A1222274040000000000000000000E3
:100C260000000000000000008080808080808080BE
:100C360090A0E0C0C080800000000000000000001E
:100C4600000000000000000000000000000000009E
:100C56000402030101000000000000000000000083
:100C6600000000000000000000000000000000007E
:100C7600000000000000000000000000000000006E
:100C8600000000000000000000000000000000005E
:100C9600000000000000000000000000000000004E
:100CA60000000000000000002424A4FE2322008A85
:100CB600B282461981918D000000000000000000FC
:100CC6000000000000000000080601FF010600FF0A
:100CD600444440404444FF0000000000000000007F
:100CE600000000000000000010109092523212FE28
:100CF6001231519190101000000000000000000019
:100D06000000000000000000010100FF49494949B8
:100D1600494949FF000101000000000000000000F1
:100D2600000000000000000000FC8484FC00445425
:100D360054547F5454544400000000000000000046
:100D46000000000000000000003F10103F0000FF00
:100D560015151555957F00000000000000000000E5
:100D6600000000000000000040404242424242FEB5
:100D760042424242424040000000000000000000A3
:100D8600000000000000000080804020100C0300DE
:100D9600030C1020408080000000000000000000CE
:100DA6000000000000000000040484E41C0405C6E2
:100DB6003CA42424E4040400000000000000000019
:100DC6000000000000000000020100FF00828146D2
:100DD6002810294641808000000000000000000025
:100DE600000000000000000000F0101010FF1010BE
:100DF60010FF101010F000000000000000000000BE
:100E0600000000000000000000FF4242427F424214
:100E1600427F424242FF0000000000000000000046
:100E26000000000000000000000202C2020202FEF2
:100E36008282828282020000000000000000000020
:100E460000000000000000004040407F4040407F1E
:100E560040404040404040000000000000000000CC
:100E66000000000000000000080888C8380C0B08C5
:100E760008E8080808080800000000000000000054
:100E86000000000000000000020100FF4041414157
:100E9600417F414141414000000000000000000048
:100EA60000000000000000001010FF109082563A6B
:100EB600127F1139559080000000000000000000EC
:100EC600000000000000000042827F010000FF4990
:100ED600497F4949FF0000000000000000000000B3
:100EE60000000000000000000808F94A48C8482031
:100EF600D8171010F01010000000000000000000CD
:100F0600000000000000000040300F20403F8040FD
:100F16002116081621408000000000000000000095
:100F26000000000000000000829A9693FA52528058
:100F36007E121212F11110000000000000000000E5
:100F46000000000000000000000100FE9392939252
:100F5600929292FE030000000000000000000000D4
:100F660000000000000000008060F80700047454D0
:100F760055565454740400000000000000000000A0
:100F860000000000000000000000FF00030105450E
:100F9600857D050505010300000000000000000036
:100FA6000000000000000000048484FC84844044A7
:100FB600C44444C444444000000000000000000053
:100FC60000000000000000002060201F109040304C
:100FD6000F00003F404070000000000000000000CD
:100FE6000000000000000000102C2424A4A465A624
:100FF60024242424A4340C00000000000000000077
:1010060000000000000000004049492924145289CC
:101016007F040A11102020000000000000000000DC
:1010260000000000000000000000000040301CFF2F
:101036001C3040000000000000000000000000001E
:10104600000000000000000000000000000000FF9B
:10105600000000000000000000000000000000008A
:10106600000000000000000020202020202020FF9B
:10107600202020202020200000000000000000008A
:10108600000000000000000080804020100C0300DB
:10109600030C1020408080000000000000000000CB
:1010A6000000000000000000000000E0000000FF5B
:1010B600000000204080000000000000000000004A
:1010C6000000000000000000080403000040807FCC
:1010D6000000000000010E000000000000000000FB
:1010E600000000000000000088681FC80810C854EF
:1010F60052D1129408D01000000000000000000039
:101106000000000000000000091909FF0500FF1299
:1011160092FF005F807F00000000000000000000DA
:1011260000000000000000000202EEAAAAAAAAAB74
:10113600AAAAAAAAEA020200000000000000000013
:101146000000000000000000807EAAFE00BE423AB9
:1011560042BE807E127EE00000000000000000001B
:1011660000000000000000001060028C000CA4A427
:10117600A5E6A4A4A40C00000000000000000000E6
:10118600000000000000000004047E0100804F2AD9
:101196000A0F0A2A4F80000000000000000000002D
:1011A60000000000000000000000C05E52525252D3
:1011B6005252525EC0000000000000000000000015
:1011C600000000000000000080808F404020100ECC
:1011D600101020204F8000000000000000000000DA
:1011E6000000000000000000008060F807402018A2
:1011F6000F08C808082818000000000000000000BA
:101206000000000000000000010000FF00100C03B9
:1012160040807F000106180000000000000000006A
:10122600000000000000000080808282828282FE30
:10123600828282828280800000000000000000001E
:10124600000000000000000000000000000000FF99
:101256000000000000000000000000000000000088
:101266000000000000000000FC0404FC00FC4444F4
:10127600FC4546FC44440400000000000000000059
:1012860000000000000000000F04044F300F0806A5
:10129600FF0906FF030C100000000000000000001C
:1012A600000000000000000000FC0404FC00C41F55
:1012B6000404041FC4040000000000000000000035
:1012C6000000000000000000000F04048F8040238F
:1012D6001408142340808000000000000000000075
:1012E600000000000000000000FC04FC006058C67E
:1012F6003010FF1010F00000000000000000000099
:101306000000000000000000000F0407000C0B881E
:101316005C300F40807F00000000000000000000ED
:10132600000000000000000040221408F4024454AB
:1013360054547F5454544400000000000000000040
:101346000000000000000000084482413F0000FF4A
:1013560015151555957F00000000000000000000DF
:10136600000000000000000020202020202020FF98
:101376002020202020202000000000000000000087
:10138600000000000000000080804020100C0300D8
:10139600030C1020408080000000000000000000C8
:1013A6000000000000000000000000E0000000FF58
:1013B6000000002040800000000000000000000047
:1013C6000000000000000000080403000040807FC9
:1013D6000000000000010E000000000000000000F8
:1013E600000000000000000008488808C838000017
:1013F600FC061544847C000000000000000000008C
:10140600000000000000000020100C03041800106B
:101416001312125292423E0000000000000000002B
:10142600000000000000000000FC0404FC20104C3A
:101436004B484848C80808000000000000000000AB
:101446000000000000000000000F04040F003048F8
:10145600444242414040700000000000000000008D
:1014660000000000000000000804E30206FA020A79
:10147600F443C2464A420200000000000000000099
:10148600000000000000000040407D44447D4445CB
:10149600447C44457C404000000000000000000001
:1014A6000000000000000000048484FC84841050C6
:1014B6009010FF9011169000000000000000000040
:1014C60000000000000000002060201F101010081F
:1014D60045827F01060910000000000000000000A0
:1014E600000000000000000008049392969A92FA09
:1014F60094939296FA020200000000000000000099
:1015060000000000000000004040472424140CFFA7
:1015160004042444241C0000000000000000000015
:10152600000000000000000000001011161010F06E
:10153600101014131000000000000000000000004E
:1015460000000000000000008181414121110D03CF
:101556000D112141418181000000000000000000C2
:101566000000000000000000001088C43300BEAA7E
:10157600AAAAAAAABE80000000000000000000007F
:101586000000000000000000020100FF00020A1235
:101596000242827F020202000000000000000000FA
:1015A60000000000000000008040209088868080B7
:1015B60080838C10204080000000000000000000A6
:1015C60000000000000000000080402018070040D6
:1015D60080403F0000000000000000000000000006
:1015E600000000000000000000FC04FC001010FFDA
:1015F60090C8090E08E8080000000000000000007E
:101606000000000000000000000F040F0044827F6D
:1016160000404F605C4340000000000000000000F6
:10162600000000000000000000F808080CCA494845
:1016360048C8080808F80000000000000000000084
:10164600000000000000000000FF0000001F080866
:10165600081F0040807F000000000000000000001E
:10166600000000000000000000FE0222DA0600FC76
:101676000404040404FC0000000000000000000054
:10168600000000000000000000FF0810080700FF2F
:101696004141414141FF0000000000000000000000
:1016A6000000000000000000040404846F04040429
:1016B600E4048F442404040000000000000000003D
:1016C6000000000000000000040201FF00100804F2
:1016D6003F4140404040780000000000000000000C
:1016E60000000000000000000010101010D030FFB5
:1016F60030D01010101000000000000000000000A4
:10170600000000000000000010080402010000FFB5
:1017160000000102040810000000000000000000A4
:101726000000000000000000000000007FC94949D9
:101736004949497F00000000000000000000000049
:1017460000000000000000000008044223128E4240
:10175600320E4282423E00000000000000000000FF
:1017660000000000000000000020222C2020E03FA6
:1017760020202020E0000000000000000000000003
:101786000000000000000000804020100806010054
:10179600014680403F0000000000000000000000FD
:1017A600000000000000000040445454D454745F0C
:1017B6005454D4545444400000000000000000007B
:1017C600000000000000000004040201FE92929254
:1017D6009292FE01020404000000000000000000D6
:1017E600000000000000000000FC0404FC0000FCF7
:1017F600444444C243424000000000000000000090
:101806000000000000000000000F04040F80601FAD
:10181600000000FF000000000000000000000000C3
:101826000000000000000000404042CC0000F1161D
:1018360010101814F3000000000000000000000063
:1018460000000000000000000000003F9048211941
:1018560007013F4141407000000000000000000009
:101866000000000000000000008060F8074020181B
:101876000F08C80808281800000000000000000033
:101886000000000000000000010000FF00100C0333
:1018960040807F00010618000000000000000000E4
:1018A600000000000000000080642C342424EC3288
:1018B6002222322E23A26000000000000000000059
:1018C60000000000000000000041219189874D556D
:1018D6002525554D81808000000000000000000095
:1018E60000000000000000000242A25A9257320295
:1018F6003A57925232020200000000000000000037
:101906000000000000000000044422150445857D07
:101916000505041521420200000000000000000039
:1019260000000000000000001088C43300201028CA
:1019360024E32428102020000000000000000000FE
:1019460000000000000000000100FF0020110D4112
:10195600817F010509310000000000000000000041
:101966000000000000000000202020FF202000F8DA
:101976008888FF8888F8000000000000000000004A
:1019860000000000000000001030100F0808001FC3
:101996000808FF08081F0000000000000000000003
:1019A60000000000000000000000F000000000FF42
:1019B60000000000F0000000000000000000000031
:1019C600000000000000000000003F202020203F13
:1019D600202020207F000000000000000000000002
:1019E600000000000000000000C0301F1010F000D2
:1019F60000FF204080000000000000000000000002
:101A06000000000000000000814021120C030000CD
:101A160000FF0000000300000000000000000000BE
:101A26000000000000000000404454545454547F09
:101A36005454545454444000000000000000000078
:101A46000000000000000000000000FF151515153D
:101A56001555957F00000000000000000000000002
:101A660000000000000000000000F000000000FF81
:101A760000000000F0000000000000000000000070
:101A8600000000000000000000003F202020203F52
:101A9600202020207F000000000000000000000041
:101AA60000000000000000001090FF90100090520F
:101AB60034107F1034529000000000000000000037
:101AC60000000000000000000601FF000182825AAB
:101AD600562322524E820200000000000000000041
:101AE600000000000000000000C0301F1010F000D1
:101AF60000FF204080000000000000000000000001
:101B06000000000000000000814021120C030000CC
:101B160000FF0000000300000000000000000000BD
:101B260000000000000000001090FF90100090528E
:101B360034107F10345290000000000000000000B6
:101B460000000000000000000601FF000182825A2A
:101B5600562322524E8202000000000000000000C0
:101B6600000000000000000000FC0404FC00007FF0
:101B7600494949497F0000000000000000000000BC
:101B86000000000000000000000F04040F00FF49E1
:101B96004949494949FF00000000000000000000D3
:101BA6000000000000000000003E22E2223E000885
:101BB60010FF00FFA0100800000000000000000059
:101BC6000000000000000000407E403F22228042CC
:101BD600310F007F8081F20000000000000000004D
:101BE6000000000000000000101010FF1090040418
:101BF6000404FC04040404000000000000000000CB
:101C060000000000000000000444827F0100000084
:101C160040807F000000000000000000000000007F
:101C260000000000000000000804E30206FA020AB1
:101C3600F443C2464A4202000000000000000000D1
:101C4600000000000000000040407D44447D444503
:101C5600447C44457C404000000000000000000039
:101C66000000000000000000048484FC84841050FE
:101C76009010FF9011169000000000000000000078
:101C860000000000000000002060201F1010100857
:101C960045827F01060910000000000000000000D8
:101CA6000000000000000000404042CC00504EC83A
:101CB600487FC848484000000000000000000000BF
:101CC60000000000000000000040201F20504C4390
:101CD60040404F50505C40000000000000000000F3
:101CE60000000000000000001010FF100082864A6D
:101CF60052A2524A868080000000000000000000C8
:101D0600000000000000000042827F010010121255
:101D160012FF121212100000000000000000000066
:101D260000000000000000000424C404E45C20F865
:101D36004F4849FA4848080000000000000000002B
:101D4600000000000000000020100C03041800FF33
:101D56002222223F22222000000000000000000074
:101D660000000000000000000000FC242424FC25E4
:101D76002624FC24242404000000000000000000A7
:101D8600000000000000000040308F80844C552584
:101D96002525554C808080000000000000000000D2
:101DA60000000000000000000804C312268AA2AA50
:101DB600A4A32226EA0202000000000000000000A0
:101DC60000000000000000000000FF00003F242487
:101DD600243F0080FF00000000000000000000001B
:101DE60000000000000000000000F8494A4C48F8D6
:101DF600484C4A49F80000000000000000000000BE
:101E0600000000000000000010101312121212FF52
:101E16001212121213101000000000000000000041
:101E2600000000000000000040445464457E444425
:101E3600447E456454444000000000000000000059
:101E46000000000000000000000000FF4949494969
:101E5600494949FF000000000000000000000000A2
:101E660000000000000000004042CC0000E2222AF0
:101E76002AF22A2622E000000000000000000000EE
:101E8600000000000000000080403F4080FF89897C
:101E960089BF89A9C9BF80000000000000000000BA
:101EA600000000000000000000FE02222222A2FE26
:101EB600A222222202FE0000000000000000000014
:101EC600000000000000000000FF40484442417F3F
:101ED6004041424C40FF00000000000000000000AE
:101EE60000000000000000000424C404E45C20F8A4
:101EF6004F4849FA4848080000000000000000006A
:101F0600000000000000000020100C03041800FF71
:101F16002222223F222220000000000000000000B2
:101F2600000000000000000000FE225A860810444F
:101F360024F42C2724E40400000000000000000024
:101F4600000000000000000000FF040887413F4039
:101F560080BF8595A59F800000000000000000005E
:101F660000000000000000001010D0FF901000FEDE
:101F7600020202FE00000000000000000000000057
:101F86000000000000000000040300FF0083601F43
:101F96000000003F40407800000000000000000004
:081FA600000000000000000033
:103EAF0062000000000000000000000000000000A1
:103EBF0000000000000000000000000000000000F3
:103ECF0000000000000000000000000000000000E3
:103EDF0000000000000000000000000000000000D3
:103EEF0000000000000000000000000000000000C3
:103EFF0000000000000000000000000000000000B3
:103F0F0000000000000000000000000000000000A2
:103F1F000000000000000000000000000000000092
:103F2F000000000000000000000000000000000082
:103F3F000000000000000000000000000000000072
:103F4F000000000000000000000000000000000062
:103F5F000000000000000000000000000000000052
:103F6F000000000000000000000000000000000042
:103F7F000000000000000000000000000000000032
:103F8F000000000000000000000000000000000022
:103F9F000000000000000000000000000000000012
:103FAF000000000000000000000000000000000002
:103FBF0000000000000000000000000000000000F2
:103FCF0000000000000000000000000000000000E2
:103FDF0000000000000000000000000000000000D2
:103FEF0000000000000000000000000000000000C2
:103FFF0000000000000000000000000000000000B2
:10400F0000000000000000000000000000000000A1
:10401F000000000000000000000000000000000091
:10402F000000000000000000000000000000000081
:10403F000000000000000000000000000000000071
:10404F000000000000000000000000000000000061
:10405F000000000000000000000000000000000051
:10406F000000000000000000000000000000000041
:10407F000000000000000000000000000000000031
:10408F000000000000000000000000000000000021
:10409F000000000000000000000000000000000011
:0440AF00000000000D
:10580E00ED131313541FFEED5407FD7401A8050884
:10581E008002C333D8FCFDEFC39440503A75F008B4
:10582E00EFA42400302616F582E5F03400F583E56A
:10583E00822EF582E43583F583E04DF022F582E584
:10584E00F03400F583E5822EF582E43583F583E0AE
:07585E00FFEDF4FEEF5EF028
:015865002220
:10569000E4F573E57324B0FFE4FD125BBEE4FDFFA7
:1056A000125BBEE4FD7F10125BBEE4F57475F0087A
:1056B000E574A42400F582E5F03400F583E5822545
:1056C00073F582E43583F583E0FF7D01125BBE054F
:1056D00074E574C3944040D50573E573C3940840E2
:1056E000B2E4F5737D01E4FF125BBE0573E573C39D
:0456F000944040F0B2
:0156F4002293
:105EFC00EF4E60157D087C07ED1DAA0470011C4A4D
:095F0C0070F6EF1F70EA1E80E739
:015F15002269
:105F48008F77E5777006FD7FA6125BBEE577B40113
:095F580007E4FD7FA7125BBE22E5
:105D9B008F78E578700DFD7FC8125BBEE4FD7FA1A7
:105DAB00125BBEE578B4010EE4FD7FC0125BBEE46E
:075DBB00FD7FA0125BBE2278
:0860D5007F01AE071FEE70FA17
:0160DD0022A0
:0F603000D291D2901260D5C2911260D5C2902247
:0A609E00C291D2901260D5D2912277
:0F603F00D2911260D5D2901260D5C2900260D576
:025DE700AD0706
:105DE900E4FCC290ED30E704D2918002C2911260C6
:105DF900D5D2901260D5C290ED25E0FD0CBC08E229
:015E09002276
:105BAD00F583E58229F582E43583F583E493FF7D62
:015BBD0001E6
:105BBE00AB05AA071260307F78125DE712603FEBEB
:105BCE0060047F408002E4FF125DE712603FAF0287
:095BDE00125DE712603F02609EB7
:105E0A00A907ED24B0FFE4FD125BBEE954F0C454C7
:105E1A000F4410FFE4FD125BBEE9540FFFE4FD02DC
:025E2A005BBE5D
:10003E00E4FD7F8D125BBEE4FD7F14125BBEE4FD1A
:05004E007FAF025BBE64
:105F9100E4FD7F8D125BBEE4FD7F10125BBEE4FD6C
:055FA1007FAE025BBEB3
:105C4900E4F9E924B0FFE4FD125BBEE4FDFF125B59
:105C5900BEE4FD7F10125BBEE4F5257D01E4FF1271
:0F5C69005BBE0525E525C3948040F009B908D33B
:015C78002209
:044DF6008F348D3534
:104DFA00E4F538E537C313FDF539E4F53AF53BE553
:104E0A0037B40808753C00753D068029E537131349
:104E1A0013541FFF7E00E537540760059000018098
:104E2A0003900000E5822FFFE5833EFE7C001237E7
:104E3A00A98E3C8F3DEB24E0F538AD35AF34125ED8
:104E4A000AE4F53AF53BC3E53B953DE53A953C5016
:104E5A0060E539FD7C00AE3AAF3B1237BBED4C70D2
:104E6A000FE53764086009AD350535AF34125E0ABF
:104E7A00E537B4081075F006E538A42456F582E53E
:104E8A00F034008013E537B4102775F010E538A424
:104E9A00247EF582E5F03402F583E582253BF5822E
:104EAA00E583353A125BB7053BE53B7099053A80D5
:014EBA009562
:014EBB0022D4
:045F79008F79A9056E
:105F7D007F017E00AD0119ED6009AD797C0012370E
:035F8D00A980F1F7
:015F900022EE
:085433008F5B8D5C8A5D8B5ECE
:10543B00E4F563F564E560B40803756302E4F561B4
:10544B00E561C3955F5069C3E55F956114FD7F0A04
:10545B00125F79AC5DAD5ECFCDCFCECCCE1237BB6C
:10546B007C007D0A1237BB8D62E5647025E55F1405
:10547B00FFE561C39F501BE5627014E560C3132504
:10548B00638561F0A4255BFF8560377B20801875F1
:10549B006401E560C31325638561F0A4255BFFE51B
:1054AB00622430FB856037AD5C124DF60561809050
:0154BB0022CE
:0A590B008F2D8D2E8B2F8A308931ED
:10591500E4F533AB2FAA30A93185338275830012A4
:10592500375A602AAF3305338F8275830012375A91
:10593500FB853237AD2EAF2D124DF6E532B4080496
:0E59450074068004E532C313252DF52D80C5B0
:015953002231
:065954008F6B8D6C8B6D62
:10595A00E4F56E125E0AE4F975F040E56DA4246E72
:10596A00F582E5F03408125BAD056E09B910E9E578
:10597A006C04FDAF6B125E0AE4F975F040E56DA4A4
:10598A00248EF582E5F03408125BAD056E09B91074
:01599A00E923
:01599B0022E9
:0456F5008F258B274B
:1056F900E4F52CF52DE5285407700BE52813131351
:10570900541FF52F800AE528131313541F04F52F8E
:105719008D2FE52FC395285037AD2FAF25125E0A7F
:1057290085252EE52EC395275022AB29AA2AA92B18
:10573900052DE52DAE2C7002052C14F5828E8312F1
:10574900375AFF7D01125BBE052E80D7052F80C217
:01575900222D
:065628008F508D518B52E2
:10562E00E4F557F558E553131313541FFFE5535480
:10563E000760047E0180027E00EF2EF553E4F559DB
:10564E00E559C39553503AE5592551FDAF50125EB9
:10565E000AE4F55AE55AC395525022AB54AA55A9FD
:10566E00560558E558AE577002055714F5828E83CD
:10567E0012375AFF7D01125BBE055A80D70559803D
:01568E00BF5C
:01568F0022F8
:104D2600C2927FC87E00125EFCD292E4FD7FAE1274
:104D36005BBEE4FDFF125BBEE4FD7F10125BBEE4CA
:104D4600FD7F40125BBEE4FD7F81125BBEE4FD7F0A
:104D5600CF125BBEE4FD7FA1125BBEE4FD7FC812ED
:104D66005BBEE4FD7FA6125BBEE4FD7FA8125BBEC0
:104D7600E4FD7F3F125BBEE4FD7FD3125BBEE4FD24
:104D8600FF125BBEE4FD7FD5125BBEE4FD7F8012A1
:104D96005BBEE4FD7FD9125BBEE4FD7FF1125BBE14
:104DA600E4FD7FDA125BBEE4FD7F12125BBEE4FD1A
:104DB6007FDB125BBEE4FD7F40125BBEE4FD7F201D
:104DC600125BBEE4FD7F02125BBEE4FD7F8D125BCB
:104DD600BEE4FD7F14125BBEE4FD7FA4125BBEE45D
:104DE600FD7FA6125BBE125C49E4FD7FAF025BBE8F
:10327F000235C7E86480F8E933E83360110460F081
:10328F00ED33EC337009E8FCE9FDEAFEEBFF2204B5
:10329F0060DED3EB9FEA9EE99DE8C2E78CF0C2F7B0
:1032AF0095F0400CE8CCF8E9CDF9EACEFAEBCFFB7C
:1032BF0012359285D0F05804700320D5B3E804700E
:1032CF00075002B2D50235D192D5EC0460F7E4CCA9
:1032DF00C0E0C398F8603B94186008400DD0E0FB45
:1032EF000235A9E4FBFAC9FC8028E830E406E4C9FA
:1032FF00FBE4CAFCE830E305E4C9CACBFCE8540799
:10330F006010F8C3E913F9EA13FAEB13FBEC13FCA3
:10331F00D8F130F52FC3E49CFCEF9BFFEE9AFEED46
:10332F0099FDD0E0FBEF4E4D4C701222DB030235BE
:10333F00CEEC2CFCEF33FFEE33FEED33FDED30E73B
:10334F00EB0235A9EF2BFFEE3AFEED39FDD0E0FB96
:10335F0050130BBB00030235D1ED13FDEE13FEEF3F
:08336F0013FFEC13FC0235A969
:10337700EC4D6011E8497017ED33EC3304600DE450
:10338700FCFFFEFD22E933E8330470F80235C7126B
:10339700359258046009E4CC24815006285009026C
:1033A70035D12840030235CEC0E0EB4A7044B980DE
